:020000040000fa
:080000000002040000000000f2
:020000040000fa
:10040000af5d21000e7f22000e0188000000000079
:100410000c00070080452a00010020001f00070093
:10042000000020000000e000020032000000020096
:100430000000000014970200000000000040da00f5
:100440000000fe004440a900408820000000e000b9
:100450000300320000002000a00188004440a800f2
:1004600000000600f03fb1000180b1000600350039
:10047000ee03090000000000403fb1000180b10020
:10048000fbff3d001000b000203fb000020035002f
:1004900000800900000000000000060091018800b3
:1004a000800078000000eb0015003700e28040007b
:1004b00032a0b4009101ba00e280400032a0b40042
:1004c0009102ba00e280400032a0b4000002eb00ca
:1004d000472bde00f507b200602ce10004003a0073
:1004e0000059eb008301e900fdff3e0004003700e6
:1004f0006128e100010032000082eb0004000700e7
:100500001101ba000200e000e8ff3a000000060016
:100510003159ba008301e9000c0032002159ba00b8
:100520008301e900080032000400e00003003a0003
:10053000e280400032a0b400f5ff370011d9ba00c4
:100540008301e900faff3a008100e800e180400001
:1005500032a0b400000006000040da000000fe00f7
:10056000800078001104b100030035009101b10052
:1005700001003c000050a000000006008000780050
:100580001106b100030035009101b10001003c00eb
:100590000050a100000006000a00fa008001780067
:1005a000e20f500028003e00c0ae8000e10f500076
:1005b00008003200802320000000e0000500320027
:1005c00004232000252320004623200080017800fa
:1005d00004003700042220002522200046222000ab
:1005e00083222000144090000004e0000400350045
:1005f0008009eb00144090000074a00010429800a5
:10060000154090000028a30003003a001540900018
:100610000024a000904298008001eb000700370002
:10062000154090000008a300fdff320063c0780071
:100630000000fb00000b78008301e800828f51006e
:10064000f7ff3a000800370030002000b0bf9f00dd
:10065000c3bf9f00d1bf9f00e2bf9f006a805700c9
:1006600000c0da006fb99700020078000080fa003d
:10067000000006006022b800060220000000d00042
:100680008180d2000482d2008582d2000000a000c6
:100690000202520083825a0003003100020242002b
:1006a00083824a000000a1000603e900f3ff3a003c
:1006b00000000600811f78000100e00002003d00fc
:1006c00060001000e08018000300e00002003d0020
:1006d00060011100e0811900050007004f00e000f3
:1006e00002003b0060001000e080180000000600df
:1006f000e0ff07000400be0000000600881f78002d
:10070000000478005001be004000be00040040001c
:10071000858048000601490087814900009cbe0091
:100720000294be000400e1000588e1000690e100ab
:100730000798e10002003100680044001008e8005a
:100740004f04780000000600f4874700889fbe0031
:100750008a9fbe008c9fbe008e1f78000205be00df
:100760000004be00d4b79f00e5b79f00f6b79f0016
:1007700087bf9f000000eb00c0b79f00b0b79f008d
:10078000a0b79f0090b79f0080b79f000d04200086
:10079000bfb097004fb09700000140000000e0009c
:1007a0000f003d004f08de0000007100c0b79f0041
:1007b0009e00070001003d0012002000a10007007c
:1007c00001003d0012002000a6000700b100070054
:1007d000b60007000f004000c8ff070022003700e6
:1007e0004f08de0000067100ccb79f008f000700a5
:1007f00001003d00120020009200070001003d00b2
:100800001200200097000700a20007000fb2970017
:100810009fb297002fb39700bfb39700a9000700be
:100820000000520081805a0002015b0083815b005e
:1008300080b79f0091b79f00a2b79f00b3b79f00fa
:100840000007eb009f0007000020e10001a8e10085
:1008500002b0e10003b8e100010031001e002000f9
:100860000e005600c0b79f004fb297000400e00092
:100870000700350010002000010020006011b800c2
:1008800008047000898470000a0571008b8571006e
:100890008d06e900beff3a000400e00003003d00c1
:1008a000820007000f00400094ff07004fa8970048
:1008b0000000e00004003a000fb497009fb49700d6
:1008c0002fb59700bfb59700940007004f07780039
:1008d0004f06be004f05be004f04be004f01b100e1
:1008e00000000600881f780018002000881f78008c
:1008f00095ff07008f87e9004f047800000006008d
:10090000801feb0090ff07008f87e90000000600c2
:10091000889fbe008a9fbe008c1f78006e00070073
:1009200007003d0073000700e00f5b00e08f5b00f5
:1009300007003d00320007000006eb00040037000e
:100940003400070002003d002a0007001c002000c0
:1009500072000700e3ff07000203be000002be00b2
:100960000c00e00001003200220007000400be007d
:100970000601be004f0678004f05be004f04be00c2
:1009800000000600889fbe008a9fbe008c1f780072
:100990005100070005003d0056000700e00f5b0016
:1009a000e08f5b0006003d000400370019000700df
:1009b00003003d006000b8006011b800100007009f
:1009c00056000700ceff07000203be000002be0073
:1009d0000c00e00001003200060007000400be0029
:1009e0000601be004f0678004f05be004f04be0052
:1009f000000006006000b8006011b8000000370079
:100a0000040250008582580006035900878359006c
:100a1000000006000006eb00e00f5200e08f5a00d5
:100a2000e00f5b00e08f5b000000060001804000eb
:100a300090b79f000001eb008fb097000100e0002d
:100a4000000006000200700090b79f000180400087
:100a500080b79f000001eb00ffa897000100e000b5
:100a6000000006000200700080b79f000180400077
:100a70006faa9700cf20de0001007000f0af9f004a
:100a800004024200250007004f18de000002720039
:100a900000000600e4af9f000804440089844c0075
:100aa0000a054d008b854d00000006003fb29700ff
:100ab000cfb297005fb39700efb3970000fe2f000f
:100ac000000006003fb09700cfb097005fb19700dd
:100ad000efb19700000006000205be000004be0052
:100ae000e00f5000e08f5800e00f5900e08f5900f0
:100af000000006006000b8006011b8000804500053
:100b0000898458000a0559008b8559001c00200073
:100b1000e00f5200e08f5a00000006000800be00ff
:100b20000a01be0000000600101288002112880091
:100b300002128800000006001013880021138800ac
:100b400002138800000006000c00fa00889fbe0017
:100b500000047800cfb09700f0ff2700d0bf9f00bf
:100b60008004eb0099bf9f0088bf9f00a8bf9f0033
:100b7000200c2000b0bf9f00788157007080570084
:100b8000340007000fb89700094878000fb89700a5
:100b900008045000080078004f04be000080fa00ee
:100ba00000000600800078003004e000feff3a00fc
:100bb000010050000000e9000000060080017800fc
:100bc0000001780031407800005978000004e0000e
:100bd000fcff3a0003007800000006008001eb00f3
:100be00002003700817178008301e800828f510094
:100bf000fcff3a0000000600000378008002780045
:100c0000020278008001eb00080037000402e900ce
:100c100063c07800805a78008301e8000004e00097
:100c200002003a008000eb0006003700828f51007e
:100c3000f6ff3a00fbff37000040eb0080f07a003f
:100c40008100e800848f5000fbff3a000600780026
:100c500000000600fe874700889fbe008a9fbe00f6
:100c60008c9fbe008e1f7800f0b79f0001077800b0
:100c700082bf9f000000eb00a0b79f009f023700db
:100c80008006eb0050c2b30080cf50000900320054
:100c90000100fb00ffb09700a3020700e10f400036
:100ca00096023200afb097008100e800a1b79f0024
:100cb000920237009e407800d0c2b30080cf50002f
:100cc0000c00320007003c006d40500080cf500007
:100cd0000a0032006b40400080cf50000e003a0006
:100ce0000800370000c3b30080cf50000a003a006c
:100cf000060037000d30a000050037000d00a000f1
:100d0000030037000d10a000010037000d20a000e7
:100d10000e07e800e7ff37000d18a30001003200be
:100d20000d00a1000d38a300010032000d20a1002c
:100d30000100fb0002fd2f0002004000e90f5000ff
:100d40000e003e000002eb00c4b79f008201780055
:100d5000cfb297006a28b9001e01fb0000014100d4
:100d600003014100c2b79f005e00fb00030040008a
:100d7000e90f50000b003e00f5ff37000006eb00c6
:100d8000ccb79f00a0c2b30080cf500005003a004e
:100d90000fb89700c000780080bf9f00c1b79f00c8
:100da0000e07e8000001eb00b2b79f00e0c2b300fd
:100db0009e4f100018003a000de0a0008e00e800e1
:100dc00064405000914f100002003200010778008b
:100dd0000c0037000fba9700c402780084bf9f0050
:100de000b5b79f000e87e8000b0037003fb69700ad
:100df0006a60b9000000410003004000b0b79f00e6
:100e00000e07e8001e01fb0003fd2f000300410058
:100e1000e90f5000f5ff3600be407800e1d79f0093
:100e2000c0c6b30080cf5000220032000f003c004b
:100e30006940500080cf50007700320004003c0031
:100e40000104e000310232006b4050000f00370017
:100e500040c6b30080cf5000930032006540400090
:100e600080cf50008b003a008f00370030c7b300ae
:100e700080cf50001a00320007003c006440500050
:100e800080cf5000110032000040e80080cf5000b9
:100e900080003a000f00370050c7b30080cf5000e9
:100ea000800032006340400080cf500079003a005b
:100eb00009003700000028000d48a30001003a0097
:100ec0000001200080867600d3ff37000d60a0006f
:100ed000750037000d50a0000d70a00072003700a3
:100ee0008fb897004100780081bf9f000004780010
:100ef0000000e00001003a00285821008004eb00c7
:100f0000010037008104e80089007800088044006f
:100f10001004e000fbff3a003fb197000200e00040
:100f200003003200890f5100010031008204780073
:100f30000002eb00e4af9f00cfb29700898f520010
:100f40000200360009805200e0af9f004368de00d7
:100f5000e10660001b003a000d067800090037002a
:100f6000ffb0970000022000ef010700e10f4000f2
:100f7000030032002fb097000000e800a0b79f00e8
:100f80000c06e800efa89700810f5600f4ff3a0026
:100f90000081eb00e2af9f000a0037008800780074
:100fa0003100fb0001047800ffb09700de0107006c
:100fb000e10f4000030032002fb297000402e80066
:100fc000a4b79f000900e90080047800e10f400009
:100fd000f2ff3a000006eb000d00e0000a003a00c4
:100fe000c6013700ffb0970000022000ce010700c5
:100ff000e10f400003003200afb297008502e80025
:10100000a5b79f000c06e8006fa89700800f560058
:10101000f4ff3a00b90137008fb89700410078001b
:1010200081bf9f00cf80de0001017800820178003f
:101030000205be000004be000203be000002be00a6
:101040004822de00482edd0004027600e4d79f002f
:101050000d48a3000a0032000404e000080032003a
:10106000e14f42000600320071fd2f000180470071
:10107000044878001840980029002000020037003a
:10108000f0d79f001900200072fd2f000284470056
:10109000a1ff370064fd2f000484470019002000e1
:1010a0009dff37000d0cb3000d007800000cb2005e
:1010b00028003a000d00e00005003d008fba9700bf
:1010c0004505be004504be0085bf9f0014003700e3
:1010d0000d48a3000b0032000fbe97004c00be006d
:1010e0008cbf9f004f89de00cf91de000002be0062
:1010f00002037800820378000605be000404be00e7
:10110000070037008fb897004100780081bf9f002b
:1011100000047800cfc4de00090578008a05780055
:10112000e00f5400e08f5c00e00f5d00e08f5d0099
:101130001f003d003d00b3006000b8006011b80022
:1011400008045000898458000a0559008b8559000d
:10115000170037000d00e00005003d000fb99700b3
:101160004205be004204be0082bf9f00100037004f
:101170000d48a300070032000fba97004400be00dc
:1011800084bf9f006011b8000205be000004be00cd
:10119000070037008fba97004500780085bf9f0091
:1011a00000047800090020000a0020000b00200045
:1011b0003fb697000c00e00007003a00e00f540033
:1011c000e08f5c00e00f5d00e08f5d0002003a0000
:1011d00010002000b0b79f008d007800010cb20015
:1011e000e1b79f0000042000808f500030003200e3
:1011f00003003c000100e00008003200400037001e
:10120000000820006fb19700800f510014003200d9
:10121000000c2000800f510039003a0014c0b300c8
:10122000254e21000b0037000400fb004300dd00c9
:10123000050040005001be004000be000040e1003b
:1012400001c8e10002d0e10003d8e1002b00390021
:101250000442e800f44f5200f3ff3a002700370041
:1012600000012000010020006011b80014c0b3008c
:101270000040e10001c8e10002d0e10003d8e10034
:101280001e003900450020000000d0008180d200ff
:101290000281d2008381d2008502e900faff3a0080
:1012a0000442e800f04f5200f1ff3a00130037000b
:1012b00080002000010020006011b80014c0b300bd
:1012c0000040e10001c8e10002d0e10003d8e100e4
:1012d0000a0039003c0020000000d0008180d200cc
:1012e0000281d2008381d2000c06e900faff3a00a5
:1012f0000442e800f54f5200f1ff3a00e4d79f00a6
:10130000efd097000100fb003fb19700820f500023
:1013100002003d00e2d79f00040037003fb2970073
:10132000800f520001003d00b0b79f00cfb2970080
:101330000500e00004003200638066000200320015
:101340008502e900c5b79f000de8a3000b0032003d
:101350004fb697003fb09700800f560003003c0047
:101360008000eb00c1b79f00040037004fb1970029
:101370003fb2970004015100c2b79f00efd297001f
:101380000500fb000006eb00dcaf9f00cfb097002c
:10139000808f50000200340000805000d0af9f00ca
:1013a0000d28a30037003200e18066000d18a3006d
:1013b0000c003200d00220000100e00001003a00e1
:1013c0000080e900ffb09700d7000700e10f400060
:1013d0000e0032002fb197000201e800a2b79f0073
:1013e0000a0037000100e00008003200ffb097005b
:1013f00000022000cc000700e10f40000300320093
:101400002fb297000402e800a4b79f00dfaa97005c
:101410000500e0000f0032000006eb00ffb097006f
:1014200000032000c0000700e10f4000030032006d
:101430002fb097000000e800a0b79f000c06e8005e
:10144000dfa89700810f5600f4ff3a000001eb007f
:10145000d2af9f003fb29700c320dd00a04d210016
:101460008080400091b79f004220dd006400500062
:1014700080b79f006320b900f0af9f006306500063
:1014800084003700dfaa97000500e0001100320059
:10149000688066000f003a0000067800ffb09700f1
:1014a00000022000a0000700e10f4000030032000e
:1014b0002fb097000000e800a0b79f000c06e800de
:1014c000dfa89700810f5600f4ff3a000001eb00ff
:1014d000d2af9f00e18066000d18a3000c0032001f
:1014e000d00220000100e00001003a000080e90085
:1014f000ffb097008c000700e10f4000d5ff3200dd
:101500002fb297000402e800a4b79f00d1ff370074
:101510000100e000cfff3200ffb097000002200082
:1015200081000700e10f4000caff3200afb2970010
:101530008502e800a5b79f00c6ff37000004200021
:10154000efb09700808f50003100320003003c0064
:101550000100e000080032003e00370000082000d3
:101560006fb19700800f510011003200000c200075
:10157000800f510037003a001fb097003002be00c4
:101580002003be000800be000a01be00d5fc070013
:10159000a4002000050020006033b800d8fc07003c
:1015a00004c3b30004424000e4d79f002900370081
:1015b00095582100d5b79f000d58a30002003a00ae
:1015c000a0592100d0b79f00140020000500200082
:1015d0006033b8008fb097008100e9000500330048
:1015e0000402d0008582d2000683d2008783d20015
:1015f000f9ff37000800be000a01be00b9fc070071
:101600006f0060005fb19700624078001000370003
:1016100014002000050020006033b8000c007800a2
:101620000000e900050033000402d0008582d200ea
:101630000683d2008783d200f9ff37000800be007e
:101640000a01be00a7fc0700674060000043b0002d
:10165000e0d79f00efd097000100fb00ffb097009c
:1016600031000700e10f4000030032002fb1970066
:101670000201e800a2b79f001fb297006802520063
:1016800094b79f008fb29700e482520085b79f0005
:1016900063065600d0ff2f003fb197000090b900bd
:1016a0007faa97000000420063005000800f5600a0
:1016b000a2ff3a000d38a30010003200dfaa970005
:1016c0000500e0000d0034000006eb00ffb09700bd
:1016d0000002200014000700e10f40000300320068
:1016e0002fb097000000e800a0b79f000c06e800ac
:1016f000dfa89700810f5600f4ff3a00be40780043
:10170000e1d79f000104e0005dfd3a002fb0970093
:101710004f0778004f06be004f05be004f04be00c5
:10172000ef01b10000000600889fbe0000017800b4
:1017300001047800b10090000118a3003d003200c0
:101740000198a30003003a00180090000000e00098
:1017500038003a000190a00031049800820478001b
:10176000f90fb200180090000000e00002003a00fb
:1017700028009000000c7800ea8f540006003a0020
:10178000380090000078a30003003a008800780039
:10179000d0002000e4ff070098009000580090005f
:1017a000808f50000b0032000100e8001004980008
:1017b0001800780009587800000c780011c0b300b8
:1017c000605d210001487800ea8f54000600320075
:1017d00019003700880078000940780019000700d8
:1017e0008004780014003700380090000088a300bf
:1017f0001100320018019000a800900048009000ed
:1018000065fb070098009000810f50000400320033
:10181000380090000003b300300498008084eb008f
:101820000000eb001004980028009000000c7800e5
:10183000010037008084eb00090078004f04be00ef
:10184000000006000200fa00889fbe00a0ff9f0073
:1018500001047800b1009000810478000904b2000e
:10186000020032000000fb00360037000118a30020
:1018700005003a000103b3003104980019049800f0
:101880000080eb002f003700580090000000e000bf
:1018900006003a004800900012002000e680570041
:1018a0003dfb070019049800240037002800900031
:1018b0000000e00008003a00205d210020049800ac
:1018c000000c7800200020005004980010049800bc
:1018d0000130a0003104980018019000a800900089
:1018e000480090002cfb070028009000000c7800b6
:1018f0000080eb001004980018007800aff8970003
:1019000001587800000c78002ff89700ea4f50003b
:101910000a003a00380090000088a3000700320057
:1019200018019000a8009000480090001afb0700e2
:1019300019049800a8009000010c7800aff89700f7
:101940000100fb004f04be000080fa00000006000a
:020000040000fa
:0200000401f009
:04000000ffff0000fe
:020000040000fa
:0200000401f009
:04000400ffff0000fa
:020000040000fa
:0200000401f009
:04000800ffff0000f6
:020000040000fa
:0200000401f009
:04000c0079ff000078
:020000040000fa
:0200000401f009
:04001000dbff000012
:020000040000fa
:0200000401f009
:040014007fff00006a
:020000040000fa
:0200000401f009
:04001800ffff0000e6
:020000040000fa
:0200000401f009
:04001c00dfff000002
:020000040000fa
:10000800ac020000ac020000ac020000ac02000030
:10001800ac020000ac020000ac020000ac02000020
:10002800ac020000ac020000ac020000ac02000010
:10003800ac020000ac020000ac020000ac02000000
:10004800ac020000ac020000ac020000ac020000f0
:10005800ac020000ac020000ac020000ac020000e0
:10006800ac020000ac020000ac020000ac020000d0
:10007800ac020000ac020000ac020000ac020000c0
:10008800ac020000ac020000ac020000bc9500000d
:10009800ac020000ac020000ac020000ac020000a0
:1000a800ac020000ac020000ac020000ac02000090
:1000b800ac020000ac020000ac020000ac02000080
:1000c800ac020000ac020000ac020000ac02000070
:1000d800ac020000ac020000ac020000ac02000060
:1000e800ac020000ac020000ac020000ac02000050
:1000f800ac020000ac020000ac020000ac02000040
:10010800ac020000ac020000ac020000ac0200002f
:10011800ac020000ac020000ac020000ac0200001f
:10012800ac020000ac020000ac020000ac0200000f
:10013800ac020000ac020000ac020000ac020000ff
:10014800ac020000ac020000ac020000ac020000ef
:10015800ac020000ac020000ac020000ac020000df
:10016800ac020000ac020000ac020000ac020000cf
:10017800ac020000ac020000ac020000ac020000bf
:10018800ac020000ac020000ac020000ac020000af
:10019800ac020000ac020000ac020000ac0200009f
:1001a800ac020000ac020000ac020000ac0200008f
:1001b800ac020000ac020000ac020000ac0200007f
:1001c800ac020000ac020000ac020000ac0200006f
:1001d800ac020000ac020000ac020000ac0200005f
:1001e800ac020000ac020000ac020000ac0200004f
:0801f800ac020000ac020000a3
:020000040000fa
:10020800ac020000ac020000ac020000ac0200002e
:10021800ac020000ac020000ac020000ac0200001e
:10022800ac020000ac020000ac020000ac0200000e
:10023800ac020000ac020000ac020000ac020000fe
:10024800ac020000ac020000ac020000ac020000ee
:10025800ac020000ac020000ac020000ac020000de
:10026800ac020000ac020000ac020000ac020000ce
:10027800ac020000ac020000ac020000ac020000be
:10028800ac020000ac020000ac020000bc9500000b
:10029800ac020000ac020000ac020000ac0200009e
:1002a800ac020000ac020000ac020000ac0200008e
:1002b800ac020000ac020000ac020000ac0200007e
:1002c800ac020000ac020000ac020000ac0200006e
:1002d800ac020000ac020000ac020000ac0200005e
:1002e800ac020000ac020000ac020000ac0200004e
:1002f800ac020000ac020000ac020000ac0200003e
:10030800ac020000ac020000ac020000ac0200002d
:10031800ac020000ac020000ac020000ac0200001d
:10032800ac020000ac020000ac020000ac0200000d
:10033800ac020000ac020000ac020000ac020000fd
:10034800ac020000ac020000ac020000ac020000ed
:10035800ac020000ac020000ac020000ac020000dd
:10036800ac020000ac020000ac020000ac020000cd
:10037800ac020000ac020000ac020000ac020000bd
:10038800ac020000ac020000ac020000ac020000ad
:10039800ac020000ac020000ac020000ac0200009d
:1003a800ac020000ac020000ac020000ac0200008d
:1003b800ac020000ac020000ac020000ac0200007d
:1003c800ac020000ac020000ac020000ac0200006d
:1003d800ac020000ac020000ac020000ac0200005d
:1003e800ac020000ac020000ac020000ac0200004d
:0803f800ac020000ac020000a1
:020000040000fa
:101950000a440000657400006563000074690000bb
:101960006e670000206300006172000064200000c8
:10197000696e0000666f00002e2e00002e00000031
:101980004c610000626500006c2000003a200000fd
:101990002025000073000000466f0000726d0000fb
:1019a000617400003a200000202500007300000050
:1019b000536900007a650000203a000020200000f2
:1019c000202500006c640000204d00004200000053
:1019d0004672000065650000203a000020200000eb
:1019e000202500006c640000204d00004200000033
:1019f0000a0a0000526f00006f74000020440000cb
:101a00006972000065630000746f00007279000065
:101a1000204300006f6e0000746500006e740000cb
:101a2000733a0000002a00002e2a0000001b00006c
:101a30005b3000003b330000346d0000001b0000f1
:101a40005b3000003b330000306d000000250000db
:101a50007325000063250000313200007320000070
:101a600025310000306c00006420000025300000ab
:101a7000326400002f25000030320000642f000087
:101a800025300000346400002025000030320000c2
:101a9000643a000025300000326400003a2500005e
:101aa00030320000640000001b5b0000303b00008f
:101ab000333100006d2500006420000066690000dd
:101ac0006c650000287300002920000025640000d8
:101ad00020640000697200002873000029200000c3
:101ae0006f6e00002063000061720000642e000031
:101af000001b00005b3000003b330000306d000035
:101b0000446f00006e6500002e0000004c41000094
:101b100052470000450000004269000067000000d5
:101b20004c6f000061640000696e000067200000d7
:101b3000666900006c65000020250000732e00001f
:101b40002050000072650000737300002045000003
:101b500053430000207400006f20000073740000e5
:101b60006f7000002e000000504c00004159000032
:101b7000494e0000473a0000202500007300000095
:101b800072000000464900004c450000204c000057
:101b90004f4100004420000045520000524f000019
:101ba0005200000045720000726f000072200000b9
:101bb0006f700000656e0000696e00006720000015
:101bc000666900006c6500002e000000506c00008b
:101bd0006179000062610000636b00002044000036
:101be0006f6e000065000000526500006164000037
:101bf00020660000696c000065200000646f000032
:101c00006e65000020280000256c000064200000a4
:101c1000627900007465000073290000000a00006a
:101c20000025000073250000630000000a54000036
:101c30007970000065200000666900006c65000096
:101c4000206e0000616d000065200000696e0000dc
:101c5000207200006f6f00007420000064690000b3
:101c600072650000637400006f720000792000004c
:101c7000746f00002062000065200000706c00009e
:101c800061790000656400002c200000666f000090
:101c90006c6c00006f77000065640000206200003b
:101ca000792000007468000065200000454e0000a7
:101cb00054450000522000006b650000792e0000a2
:101cc00000460000696c0000656e0000616d000058
:101cd00065200000697300002025000073000000eb
:101ce0004e6f000020660000696c0000656e000009
:101cf000616d000065200000656e000074650000e5
:101d000072650000642e0000000a00005479000093
:101d10007065000020700000686f0000746f0000a4
:101d2000206e0000616d000065200000696e0000fb
:101d3000207200006f6f00007420000064690000d2
:101d400072650000637400006f720000792000006b
:101d5000746f000020620000652000006c6f0000be
:101d600061640000656400002c200000666f0000c4
:101d70006c6c00006f77000065640000206200005a
:101d8000792000007468000065200000454e0000c6
:101d900054450000522000006b650000792e0000c1
:101da000000a0000537400006172000074690000b2
:101db0006e67000020520000656300006f72000033
:101dc000646900006e6700002e2000005072000061
:101dd000657300007320000045530000432000009d
:101de000746f000020730000746f0000702e0000fc
:101df0000057000052490000544900004e470000bf
:101e0000202e00002e2e000000770000005600005b
:101e10004f49000043450000312e000057410000ab
:101e200056000000466900006c6500002063000059
:101e30007265000061740000696f00006e20000090
:101e400065720000726f0000722e000000460000f4
:101e5000494c00004520000045520000524f000050
:101e6000522e00002e2e00000057000052490000a4
:101e7000544900004e470000204400004f4e00002f
:101e8000452e00002e2e0000005200006563000069
:101e90006f720000646900006e670000206400003b
:101ea0006f6e000065200000282500006c750000a2
:101eb000206200007974000065730000202d00008e
:101ec000202500006c7500007329000000570000f9
:101ed00072690000746900006e67000020690000ec
:101ee0006e200000707200006f67000072650000d5
:101ef0007373000020280000256c0000752000008e
:101f00006279000074650000732900002e20000033
:101f1000546f0000746100006c20000057720000d4
:101f200069740000746500006e3a0000202500000e
:101f30006c75000020620000797400006573000079
:101f400020280000256c00007573000029000000a7
:101f50005772000069740000696e0000672000007d
:101f6000646f00006e65000020280000256c0000f2
:101f7000752000007365000063290000000a00005e
:101f80003f2000002d200000536800006f77000004
:101f9000207400006869000073200000686500007c
:101fa0006c70000020700000616700006500000098
:101fb0005c2000002d200000436c000065610000e3
:101fc000722000005363000072650000656e00001f
:101fd000007c0000202d000020530000686f0000ee
:101fe000772000005344000020430000617200008d
:101ff00064200000496e0000666f00000040000091
:10200000202d0000204c00006973000074200000a7
:102010004361000072640000205200006f6f0000f6
:1020200074200000446900007265000063740000c1
:102030006f72000079000000252000002d200000b4
:1020400044720000617700002047000072610000c8
:102050007068000069630000732000006f6e00006c
:10206000204c000043440000002a0000202d000006
:10207000204c00006f6100006420000050680000e8
:102080006f7400006f2000006f6e0000204300009e
:102090006172000064000000262000002d20000076
:1020a000506c00006179000020480000656c000061
:1020b0006c6f0000206f00006e200000565300007f
:1020c0003130000035330000005b0000202d00009f
:1020d0002053000074610000727400002052000060
:1020e000656300006f720000646900006e670000a5
:1020f00020750000736900006e6700002056000024
:102100005331000030350000330000005d20000036
:102110002d2000005465000073740000205300005f
:10212000442000004361000072640000205700005a
:102130007269000074650000003d0000202d000061
:10214000205000006c610000792000004175000003
:10215000646900006f200000466900006c650000a3
:10216000206f00006e2000004361000072640000d8
:10217000000a00005465000073740000696e0000de
:102180006720000053740000617200007473000047
:1021900020280000256c00007520000062790000f6
:1021a00074650000732900002e00000057520000e3
:1021b00049540000494e000047200000544f0000e1
:1021c000205300004420000043410000524400001e
:1021d000202e00002e2e0000005400004553000069
:1021e000542e0000424900004e00000054450000fb
:1021f00053540000494e000047200000444f0000a7
:102200004e4500002e2e00002e00000054650000f8
:1022100073740000696e000067200000646f0000a6
:102220006e65000020280000256c0000752000006d
:102230006279000074650000732000002d2000000a
:10224000256c000075730000204000002025000070
:102250006c7500004b4200002f7300002900000045
:102260000a0a0000504900004332000034480000d0
:102270004a31000032380000475000003230000080
:1022800032200000486500006c6c00006f200000e8
:10229000576f0000726c0000642e000000530000b5
:1022a000543700003733000035200000262000009e
:1022b00053440000204300006172000064200000cd
:1022c0005465000073740000004400006574000051
:1022d00065630000746900006e6700002053000011
:1022e00044200000436100007264000000530000bd
:1022f000442000004361000072640000204e000092
:102300006f740000204600006f7500006e640000ce
:10231000210000005653000031300000353300002a
:10232000204f00004b3a0000207600002575000089
:10233000202800002575000029000000506c0000d6
:1023400061790000696e00006720000048650000a8
:102350006c6c00006f21000000560000533100003b
:10236000303500003320000045720000726f00001d
:10237000722e0000000000000000000000000000bd
:1023800000000000005f00000000000000070000e7
:1023900000070000001400007f1400007f140000fc
:1023a000242a00007f2a00001223000013080000e6
:1023b0006462000036490000552200005000000011
:1023c0000503000000000000001c00002241000086
:1023d00000000000412200001c0000001408000062
:1023e0003e08000014080000083e00000808000035
:1023f0000050000030000000000800000808000045
:1024000008080000006000006000000000200000dc
:1024100010080000040200003e5100004945000081
:102420003e000000427f00004000000042610000ca
:102430005149000046210000414500004b31000099
:1024400018140000127f000010270000454500000e
:10245000453900003c4a00004949000030010000b5
:1024600071090000050300003649000049490000d9
:102470003606000049490000291e00000036000011
:10248000360000000000000056360000000000008a
:102490000814000022410000001400001414000081
:1024a0001414000000410000221400000802000083
:1024b0000151000009060000324900007941000086
:1024c0003e7e000011110000117e00007f490000d7
:1024d00049490000363e0000414100004122000011
:1024e0007f410000412200001c7f0000494900009c
:1024f000494100007f09000009090000013e000079
:1025000041490000497a00007f08000008080000e7
:102510007f000000417f00004100000020400000db
:10252000413f0000017f000008140000224100002c
:102530007f40000040400000407f0000020c00008f
:10254000027f00007f040000081000007f3e0000b2
:1025500041410000413e00007f09000009090000e0
:10256000063e000041510000215e00007f0900008e
:102570001929000046460000494900004931000081
:10258000010100007f010000013f00004040000009
:10259000403f00001f200000402000001f3f0000bf
:1025a00040380000403f00006314000008140000a1
:1025b0006307000008700000080700006151000078
:1025c00049450000430000007f4100004100000039
:1025d000020400000810000020000000414100003b
:1025e0007f0000000402000001020000044000001f
:1025f00040400000404000000001000002040000d4
:102600000020000054540000547800007f4800006f
:1026100044440000383800004444000044200000d6
:1026200038440000444800007f3800005454000043
:1026300054180000087e000009010000020c000090
:1026400052520000523e00007f08000004040000c7
:1026500078000000447d00004000000020400000a1
:10266000443d0000007f00001028000044000000ee
:10267000004100007f400000007c000004180000c2
:10268000047800007c080000040400007838000092
:1026900044440000443800007c140000141400007e
:1026a0000808000014140000187c00007c080000da
:1026b00004040000084800005454000054200000a6
:1026c000043f000044400000203c00004040000067
:1026d000207c00001c200000402000001c3c00006a
:1026e00040300000403c000044280000102800005a
:1026f000440c000050500000503c000044640000b6
:10270000544c000044000000083600004100000066
:10271000000000007f0000000000000041360000c3
:1027200008000000100800000810000008780000f1
:1027300046410000467800004c6f000061640000d4
:10274000696e000067200000666900006c6500008b
:102750002025000073000000720000004572000098
:10276000726f0000722000006f700000656e000044
:10277000696e000067200000666900006c6500005b
:102780002e000000536800006f770000696e0000a3
:10279000672000006f6e0000204c000043440000e2
:1027a0002e20000041730000737500006d69000069
:1027b0006e67000020320000342d000062690000c6
:1027c0007420000062690000746d000061700000f8
:1027d000005200006561000064200000666900008e
:1027e0006c650000206400006f6e00006520000032
:1027f000282500006c64000020620000797400004d
:102800006573000029000000576100006974000032
:10281000696e000067200000666f000072200000f3
:102820006d650000646900006120000063610000c4
:10283000726400002e2e00002e000000496e000081
:1028400069740000696100006c6900007a69000029
:102850006e670000206d0000656400006961000083
:102860002063000061720000642e00002e2e000024
:10287000004d0000656400006961000020630000f5
:102880006172000064200000696e0000697400003d
:10289000696100006c6900007a650000642e000028
:1028a0002e2e0000004d00006564000069610000ec
:1028b000206300006172000064200000696e000067
:1028c00069740000696100006c6900007a610000b1
:1028d000746900006f6e00002066000061690000ee
:1028e0006c650000642e00002e2e0000004d0000dc
:1028f00065640000696100002063000061720000ef
:10290000642000006e6f0000742000006465000009
:102910007465000063740000656400002e2e0000e2
:102920002e0000004641000054310000320000003b
:1029300046410000543100003600000046410000ce
:102940005433000032000000556e00006b6e000032
:102950006f7700006e0000002a2e00002a000000a1
:1029600000950000000000000000000001f90000d8
:1029700000000000000000000887000004000000c4
:102980000000000009af000000000000010000008e
:102990000a1b000000000000010000000cc3000042
:1029a00001000000000000000daf00000200000068
:1029b0000000000010ff0000000000000000000008
:1029c00011ff0000000000000100000012ff0000e5
:1029d000000000000100000018ff000000000000df
:1029e0000100000019ff00000000000001000000cd
:1029f00020ff0000000000000000000021ff000098
:102a0000000000000000000026df000001000000c0
:102a1000000000003773000000000000000000000c
:102a20003a25000004000000000000003b250000e3
:102a3000000000000000000029ff0000040000006a
:102a40000000000017ff0000000000000000000070
:082a50002e2e00000000000022
:020000040000fa
:102a58000400fa000000eb00000f780006003700c1
:102a68009e007800203921008080400010c0b3000b
:102a7800804878001e0fe800200020009e0f1000fc
:102a8800f7ff34000040eb00d8f4b7000040eb003b
:102a9800cef4b7000080eb008080eb0050a68800e1
:102aa80061a688000080eb008080eb0090a688007b
:102ab800a1a68800cc350700e044210043020700a6
:102ac8000004e00036003a00d1a68000e04421006e
:102ad80080087800d1a680000000eb00d0009800a4
:102ae800d1a680000000eb00e0009800d2a680008c
:102af8006000b8007001980001099800d2a6800013
:102b08006000b8001009980021099800d1a680003b
:102b1800c0c5b300c058980010002000000f78000e
:102b280007003700d1a680001e0078007c00400016
:102b38008100400000c2b300804878001e0fe80002
:102b4800a00020009e0f1000f6ff3400d1a68000e0
:102b58000000eb00c0109800d1a680000001200002
:102b6800e0109800d2a68000009d8000119d800092
:102b78007011980001199800d2a68000009d80006d
:102b8800119d800010199800211998000040eb0051
:102b9800a4f3b700100020001007980002003700c7
:102ba8000000eb00100798001e0090000080fa005b
:102bb800000006001400fa00881f780060079800db
:102bc8007107980002579800135798006e009000fc
:102bd8004010900050079800b0002000200798008f
:102be8006e00900080189000701090006e019000a8
:102bf80010199800211998007e009000601190002b
:102c0800020078000080ea008180ea00300798001e
:102c18005e0090000000e00009003a00ea0047006a
:102c280012c0b3006e009000fc1107000000e00025
:102c38000f003a00b0012000200798000c00370070
:102c48005e0090006f0060000000e00008003200a5
:102c5800ea00470012c0b3006e009000ef110700b1
:102c68000000e00002003a00b001200020079800b0
:102c78002e009000fb0f5000b60032002e0090008e
:102c88000000e000b3003200ea0047006e00900048
:102c98007e170700104798001e409000e24f500032
:102ca800ac0032001e4090000004e000a0003a0092
:102cb8006e009000e010900041079800ce00900050
:102cc800f003200000806000400798001e5090002c
:102cd8000080fb00100f98001e0890000000e00024
:102ce800040032009e089000e18f50002800320056
:102cf800940037004e009000e80f50009100320019
:102d08000000eb0020079800d0c6b30030479800b9
:102d18000040eb00004f7800190037001e80fb00d0
:102d2800ee0090007c004000010040001040780058
:102d3800304798001e80fb00fe0090007c00400099
:102d48000100400010407800204798003e40900065
:102d58000080fb0000f60700000478002e40900079
:102d68000080fb00fcf50700800f540003003200d0
:102d7800b000200020079800720037001e4fe800be
:102d8800a0c0b3009e4f1000e4ff36006d0037006e
:102d98004e009000be009000010060000000e000be
:102da80068003a004e009000ef0f500065003200b6
:102db8000000eb0020079800d0c6b3003047980009
:102dc8007e009000c0589000a0c2b30080cf500091
:102dd800270032000040eb00004f78002100370048
:102de8001e80fb00ee0090007c00400001004000c7
:102df80010407800304798001e80fb00fe009000cd
:102e08007c004000010040001040780020479800f6
:102e1800ae409000a0c2b30080cf50001400320032
:102e2800ae409000f0c3b30080cf50000c003200d9
:102e38003e4090000080fb00c7f5070000047800c2
:102e48002e4090000080fb00c3f50700800f54005f
:102e580003003200b000200020079800040037006b
:102e68001e4fe80071c0b3009ecf1000dcff360093
:102e78007e009000c0609000a0c2b30080cf5000d8
:102e8800300032002e0090000000e0002d003a00d3
:102e980080c0b300004f7800210037001e80fb007f
:102ea800ee0090007c0040000100400010407800d7
:102eb800304798001e80fb00fe0090007c00400018
:102ec800010040001040780020479800ae40900074
:102ed800a0c2b30080cf50001a003200ae4090006c
:102ee800f0c3b30080cf50000c0032003e40900089
:102ef8000080fb0098f50700000478002e40900041
:102f08000080fb0094f50700800f54000300320096
:102f1800b0002000200798000a0037001e4fe80084
:102f2800a0c0b3009e4f1000dcff3600050037003c
:102f38000e5090000004e00002003a000000eb0090
:102f4800200798005e0090000000e80050079800f5
:102f58004aff37002e0090004f0478000080fa00e6
:102f6800000006001200fa00500798006107980058
:102f7800624f98000000eb00000f78005e009000a0
:102f880090007800410798004e0090003060900053
:102f98000004e00003003a0070002000000f7800f1
:102fa8008d0037005e00900080189000701090002f
:102fb8005e01900010199800211998006e00900089
:102fc800100078000000e00009003a0012c0b300c9
:102fd800ee0090005e009000101107000000e00075
:102fe80010003a00b0012000000f78000d003700f3
:102ff8006e009000100078006f0060000000e00094
:103008000800320012c0b300ee0090005e0090008d
:10301800021107000000e00002003a00b0012000a1
:10302800000f7800ee0090005e00900097160700f1
:10303800604798006e4090000004e00003003200f2
:10304800b0002000000f7800630037005e01900098
:103058006000b80070019800010998005e009000b7
:10306800a0009000100090005e01900030019800d0
:1030780041019800de0090000000eb00d0009800ad
:10308800de0090000000eb00e00098006e40900029
:10309800e14f500003003a00b0002000000f780014
:1030a8002d0037005e00900030019000c0019000b4
:1030b8004e009000711b0700100798002107980028
:1030c800d6d4bf000004e00006003200961d0700b9
:1030d8000004e0000300320090002000000f980078
:1030e8003f003700de00900081a6880092a680008d
:1030f800a3a680001e009000ae009000800f510033
:10310800818f5900140032000040eb00d8f4b7005a
:103118004e0090009080fb00104090000080fb0063
:103128004800dd0001007000000178001e009000da
:10313800ae009000e03407000004e00002003a000e
:1031480080002000000f78001e009000ae00900064
:1031580090a68800a1a688005e019000b2089000a1
:10316800b0ff2f000080600030099800ee48900002
:1031780070c7b30080cf500004003200ee489000c2
:1031880010c6b30080cf50000a003a00de0090005d
:10319800310890000000a000b00898005e0190007f
:1031a800b2089000d0ff2f0000806000300998001e
:1031b800090037005e019000b2089000e0ff2f0080
:1031c8000080600030099800de009000310890000f
:1031d8000010a000b00898009e007800010f980029
:1031e8000e0890000080fa00000006001c00fa009b
:1031f800200f9800320f9800430f98000040eb0012
:10320800204798002e089000100f78001e007800c4
:10321800206090000080fb00500f98005e0890002e
:10322800e10f50000d0032005e099000e30f5100dd
:10323800010032001200370080ff2f00f1ff20004c
:103248002007980031079800f0ff2f00f1ff2000b9
:1032580040079800510798001100370080ff2000b0
:10326800010020002007980031079800f0ff2f0088
:103278000100200040079800510798000800370017
:1032880080ff2f00010020002007980031079800d8
:10329800f0ff2f0001002000400798005107980018
:1032a8002e08900030019000c0019000620798003d
:1032b800730798006e019000fe0190001e007800d0
:1032c800ec210700000f9800110f98000e099000dc
:1032d8009e0990004e009000de009000800f510083
:1032e800818f590003003a0080c0b300204798003e
:1032f8001f0037009e007800415090000082fb00bc
:10330800515090000080fb004800dd000400700070
:1033180000017800615090000082fb00715090001d
:103328000080fb004800dd00040070008001780088
:103338000e0890009e089000800f5100818f590060
:1033480002003e00a0c0b300204798000e0990007c
:103358009e0990002e009000be009000800f510042
:10336800818f590002003900c0c3b300204798007c
:103378002e0890000e0990009e09900032009800d7
:10338800430098003e089000ce089000610050006d
:10339800e0805800300f9800410f98003e089000d8
:1033a800ce089000e00f5000e08f58000300320074
:1033b8002e4090000004e000b9ff32002e4090003b
:1033c8000080fb000080fa00000006000800fa00f8
:1033d800200798000040eb0020479800ae009000be
:1033e8000040eb00b0609800ae00900002ef2000b3
:1033f800f00f20000000610091417800e0c86100f2
:10340800914870004811de00114090006040600053
:10341800024070009040980039370700000f78008c
:103428001e007800104078000004e000050032001b
:1034380060c0b3002047980060c0b300a4f3b70091
:103448003c0037001e007800900078000010200033
:10345800008060000000e000270032001e007800b5
:10346800100090006101b800ae009000f00f20003d
:103478000002610001589000604060000440700044
:10348800805898004812de00115890006040600093
:103498000440700090589800f00f200000826100ee
:1034a800215890006040600004407000a0589800c7
:1034b8004819de00315890006040600002407000fa
:1034c800b05898001e00780090009000002020005e
:1034d800808f50000800360010c2b30020479800c3
:1034e80010c2b300a4f3b7002e4090000080fb0088
:1034f80030079800120037002e00900013000700d4
:10350800204798002e4090000004e00009003a008f
:103518002e0090003e010700204798002e409000a2
:103528000004e00003003a00ae00900010c0b300b1
:10353800b06098002e4090000080fb003007980093
:103548003e0090000080fa00000006000e00fa001d
:10355800300798000040eb00304798003e0090008c
:103568009080fb00104090000080fb004800dd00c8
:1035780001007000000178006000b800ce33070039
:10358800e14f50000500320080c0b300304798007a
:1035980080c0b300a4f3b700170137003e009000c5
:1035a8009080fb00104090000080fb004800dd0088
:1035b80001007000000f78001e007800e0f893000a
:1035c80050c5b30080cf5000a3003a001e00780019
:1035d800f0f89300a0cab30080cf50009e003a00d4
:1035e8003e0090009080fb00104090000080fb009f
:1035f8004800dd000100700061032000e2190700a7
:103608008040780060c4b30080cf500043003a0087
:103618003e0090009080fb00104090000080fb006e
:103628004800dd000100700071032000d619070072
:103638008040780010c4b30080cf500037003a00b3
:103648003e0090009080fb00104090000080fb003e
:103658004800dd000100700081032000ca1907003e
:103668008040780040c5b30080cf50002b003a005e
:103678003e0090009080fb00104090000080fb000e
:103688004800dd000100700091032000be1907000a
:103698008040780010c3b30080cf50001f003a006c
:1036a8003e0090009080fb00104090000080fb00de
:1036b8004800dd000100700061022000b219070017
:1036c8008040780090c2b30080cf500013003a00c9
:1036d8003e009000a0409000e0c0600021409800ab
:1036e800b0409000e0c0600031409800c0409000b9
:1036f800e0c0600041409800d0409000e0c0600009
:1037080051409800be00900020c0b300a06098000f
:103718000000eb0050079800ba0037003e00900008
:103728009080fb00104090000080fb004800dd0006
:1037380001007000210520009319070080407800df
:1037480060c4b30080cf500043003a003e009000b0
:103758009080fb00104090000080fb004800dd00d6
:1037680001007000310520008719070080407800ab
:1037780010c4b30080cf500037003a003e009000dc
:103788009080fb00104090000080fb004800dd00a6
:1037980001007000410520007b1907008040780077
:1037a80040c5b30080cf50002b003a003e00900087
:1037b8009080fb00104090000080fb004800dd0076
:1037c80001007000510520006f1907008040780043
:1037d80030c3b30080cf50001f003a003e00900075
:1037e8009080fb00104090000080fb004800dd0046
:1037f8000100700021042000631907008040780050
:1038080090c2b30080cf500013003a003e009000f1
:10381800a0409000e0c0600021409800b0409000b7
:10382800e0c0600031409800c0409000e0c06000f7
:1038380041409800d0409000e0c06000514098009e
:10384800be00900030c0b300a06098008000eb007c
:10385800510798006b0037003e0090009080fb00f5
:10386800104090000080fb004800dd00010070005f
:10387800200798002e009000e0f8930050c5b30090
:1038880080cf500005003a002e009000f0f8930019
:10389800a0cab30080cf50000500320040c0b3007a
:1038a800a4f3b70040c0b300304798005200370077
:1038b800ae00900061c093000082fb0071c09300cd
:1038c8000080fb004800dd00040070000001780063
:1038d80001c893000082fb0011c893000080fb0020
:1038e8004800dd000400700080017800be009000f0
:1038f800f00f20000002610021409000604060004d
:1039080004407000a04098004812de00314090004a
:103918006040600004407000b0409800f00f200044
:1039280000826100414090006040600004407000e7
:10393800c04098004819de00514090006040600087
:1039480002407000d04098002e009000a0c0930064
:10395800214798002e4090000080fb004007980007
:103968004e009000ee0f50001f003e001000200097
:10397800ce0090000100dd006007980000052400db
:10398800ee009000008060000000e0000e003a00a9
:1039980000802100ee009000008060000000e00040
:1039a8000d003a00ee009000628060000000e00028
:1039b80001003a000c003700be00900010c0b300b0
:1039c800a06098000c003700be00900020c0b30033
:1039d800a060980008003700be00900030c0b30017
:1039e800a06098000400370050c0b300a4f3b700eb
:1039f80050c0b300304798003e4090000080fb0064
:103a0800500798005e0090000080fa000000060051
:103a18001a00fa00889fbe008a9fbe00300f9800e7
:103a28000040eb00004f98000040eb001047980062
:103a38000040eb00004f78003e0890009080fb00ab
:103a4800104090000080fb004800dd00010070007d
:103a580080017800be089000214090000081fb00a2
:103a6800314090000080fb004800dd00020070003b
:103a780000027800414090000081fb005140900016
:103a88000080fb004800dd00020070008002780022
:103a9800030178000400be0087320700e14f5000a0
:103aa8000300320080c0b300004f9800eb023700db
:103ab8003e0890009080fb00104090000080fb00c2
:103ac8004800dd0001007000300798000000370052
:103ad8003e009000e0f8930050c5b30080cf50003e
:103ae80005003a003e009000f0f89300a0cab30029
:103af80080cf50000300320030c0b300004f980060
:103b0800210237003e0890009080fb001040900092
:103b18000080fb004800dd0001007000e10020008b
:103b2800a2180700100798003e0890009080fb003c
:103b3800104090000080fb004800dd00010070008c
:103b4800d100200090180700804078003e089000bf
:103b580011609800be089000214090000082fb0090
:103b6800314090000080fb004800dd000400700038
:103b780000017800414090000082fb005140900015
:103b88000080fb004800dd00040070008001780020
:103b98001e009000010020000201400083814800bf
:103ba800be089000f00f2000000261006140900004
:103bb8006040600004407000e04098004812de0059
:103bc800714090006040600004407000f040980030
:103bd800f00f200000826100014890006040600002
:103be80004407000804898004819de001148900091
:103bf8006040600002407000904898003e089000c5
:103c08009080fb00104090000080fb004800dd0021
:103c180001007000010120005b1807008040780057
:103c28003e089000016098003e0890009080fb00dc
:103c3800104090000080fb004800dd00010070008b
:103c480061012000591807006101b800be08900002
:103c5800f00f2000000261004158900060406000b1
:103c680004407000c05898004812de005158900077
:103c78006040600004407000d0589800f00f2000a9
:103c8800008261006158900060406000044070004c
:103c9800e05898004819de007158900060406000b4
:103ca80002407000f0589800be08900041589000fb
:103cb8000082fb00515890000080fb004800dd00a6
:103cc8000400700000017800615890000082fb0039
:103cd800715890000080fb004800dd00040070006f
:103ce80080017800e00f5100e08f590020003a0071
:103cf8003e0890009080fb00104090000080fb0080
:103d08004800dd0001007000410220004118070052
:103d18000001be00be089000f00f20000002610004
:103d2800415890006040600004407000c0589800fe
:103d38004812de0051589000604060000440700056
:103d4800d0589800f00f2000008261006158900060
:103d58006040600004407000e05898004819de0098
:103d6800715890006040600002407000f058980060
:103d7800be089000614090000081fb0071409000f7
:103d88000080fb004800dd0002007000000578009c
:103d9800014890000081fb00114890000080fb0062
:103da8004800dd0002007000800578003e089000a1
:103db800006090000084fb0009002000be0890000d
:103dc800415890000081fb00515890000080fb0092
:103dd8004800dd0002007000000378006158900080
:103de8000081fb00715890000080fb004800dd0056
:103df80002007000800378008800780006007800d0
:103e0800000ab80007c0b9000501780000014100a8
:103e180009b0b90000014100820278000a0142009d
:103e28008b814a00be089000f00f2000000261005c
:103e3800214890006040600004407000a04898004d
:103e48004812de0031489000604060000440700075
:103e5800b0489800f00f20000082610041489000af
:103e68006040600004407000c04898004819de00b7
:103e7800514890006040600002407000d0489800af
:103e88003e0890009080fb00104090000080fb00ee
:103e98004800dd000100700011012000c317070071
:103ea80080017800be089000f00f200000816100ba
:103eb800215090006040600002407000a0509800bf
:103ec8004819de00315090006040600002407000e8
:103ed800b05098003e0890009080fb001040900081
:103ee8000080fb004800dd00010070003101200067
:103ef800ae1707000100200070079800010f980016
:103f08007e0090008e089000e00f5000e08f58006f
:103f18000a003a003e0890009080fb001040900094
:103f28000080fb004800dd00010070000102200055
:103f3800b817070070079800010f98003e08900016
:103f48009080fb00104090000080fb004800dd00de
:103f580001007000b10020009417070020079800a6
:103f68002e0090000000e000040032002e009000b7
:103f7800610060000004e0000300320010c2b300da
:103f8800004f980000013700be08900021509000b3
:103f98000081fb00315090000080fb004800dd00ec
:103fa80002007000c500dd002e0090000080400077
:103fb8000000e9002e019000110009000280d800dd
:103fc80001002000100f9800210f98001e0090009b
:103fd8006105b8003e089000006090000084fb0076
:103fe80009002000be089000415890000081fb00a5
:103ff800515890000080fb004800dd00020070006e
:1040080000037800615890000081fb00715890000f
:104018000080fb004800dd0002007000800378008b
:104028008800780006007800000ab80007c0b900c8
:10403800050178000001410009b0b9000001410004
:10404800820278000a0142008b814a001e08900013
:10405800ae08900002014000838148007e00900075
:104068008e08900002005000838058005007980086
:10407800610798003e089000106090000081fb00e6
:10408800030020005e009000ee00900077f107002a
:104098000001be00be089000f00f20000002610081
:1040a800415090006040600004407000c05098008b
:1040b8004812de00515090006040600004407000db
:1040c800d0509800f00f20000082610061509000ed
:1040d8006040600004407000e05098004819de001d
:1040e800715090006040600002407000f0509800ed
:1040f800be089000415090000082fb005150900093
:104108000080fb004800dd0004007000000178001a
:10411800615090000082fb00715090000080fb000d
:104128004800dd00040070008001780040ff200096
:1041380001002000800f5100818f590004003e00cb
:10414800be08900010c0b300a06098001b003700a4
:10415800be089000415090000082fb005150900032
:104168000080fb004800dd000400700000017800ba
:10417800615090000082fb00715090000080fb00ad
:104188004800dd00040070008001780040ff2f0027
:1041980001002000800f5100818f590004003e006b
:1041a800be08900020c0b300a0609800030037004c
:1041b800be08900030c0b300a06098003e08900090
:1041c80020609000e34f500035003a003e08900010
:1041d8009080fb00104090000080fb004800dd004c
:1041e80001007000c10220000a170700009d880026
:1041f800119d8800be089000214890000082fb00b5
:10420800314890000080fb004800dd000400700089
:1042180000017800414890000082fb00514890005e
:104228000080fb004800dd00040070008001780079
:104238001e089000ae0890000201400083814800eb
:10424800be089000f00f2000000261006148900055
:104258006040600004407000e04898004812de00aa
:10426800714890006040600004407000f048980079
:10427800f00f200000826100015090006040600053
:1042880004407000805098004819de0011509000da
:104298006040600002407000905098003400370081
:1042a8006000b800009d8800119d8800be0890003d
:1042b800214890000082fb00314890000080fb00fc
:1042c8004800dd00040070000001780041489000bb
:1042d8000082fb00514890000080fb004800dd0090
:1042e8000400700080017800be0890002150900002
:1042f8000082fb00315090000080fb004800dd0088
:10430800040070004400de000100200002014000ab
:1043180083814800be089000f00f20000002610071
:10432800614890006040600004407000e0489800d8
:104338004812de0071489000604060000440700040
:10434800f0489800f00f20000082610001509000b2
:104358006040600004407000805098004819de00fa
:10436800115090006040600002407000905098002a
:10437800ae00900000202000808f50000200360020
:1043880010c2b300004f98003e08900020609000d3
:10439800e34f50000d0032000e4890000004e0008a
:1043a800ae0032003e009000a0c0900090c2b30062
:1043b80080cf5000050032003e009000a0c0900061
:1043c80080c2b30080cf5000a4003a00be00900025
:1043d800315090000081fb00415090000080fb00ac
:1043e8004800dd00020070000000e0003a003a00da
:1043f8003e009000407090000004e00036003a0053
:104408003e009000507090000004e00032003a0036
:104418003e009000607090000004e0002e003a001a
:104428003e009000707090000004e0002a003a00fe
:104438003e009000007890000004e00026003a005a
:104448003e009000107890000004e00022003a003e
:104458003e009000207890000004e0001e003a0022
:104468003e009000307890000004e0001a003a0006
:104478003e009000407890000004e00016003a00ea
:104488003e009000507890000004e00012003a00ce
:104498003e009000607890000004e0000e003a00b2
:1044a8003e009000707890000004e0000a003a0096
:1044b8003e009000a0c0900090c2b30080cf500092
:1044c800070032003e009000a0c0900080c2b300f8
:1044d80080cf50000200320030c0b300004f980077
:1044e8000e4890000004e000310032001e409000a9
:1044f8000004e0002e003a0010c0b30010479800f6
:104508003e0890009080fb00104090000080fb0067
:104518004800dd000100700080027800be089000ad
:10452800214090000082fb00314090000080fb0099
:104538004800dd0004007000000178004140900050
:104548000082fb00514090000080fb004800dd0025
:104558000400700080017800be0090002170900077
:104568000082fb00317090000080fb004800dd00f5
:104578000400700001002000020040008380480011
:1045880005017800cc2f0700e14f500005003200ec
:1045980080c0b300a4f3b70080002000400f98004b
:1045a800360037000040eb00004f980048fd370008
:1045b8000e4890000004e000280032001e04e000cd
:1045c80026003a0010c0b300004f78003e08900063
:1045d8009080fb00104090000080fb004800dd0048
:1045e8000100700080027800be0890002140900011
:1045f8000082fb00314090000080fb004800dd0095
:104608000400700000017800414090000082fb0027
:10461800514090000080fb004800dd00040070005d
:104628008001780066004100e080490005017800bb
:10463800a12f0700e14f50000500320080c0b300f1
:10464800a4f3b70080002000400f98000b0037004b
:104658000040eb00004f98001dfd37000e48900009
:104668000004e000020032000e489000a4f3b700f6
:104678000e4890000080fb00400f98004e08900004
:104688004f05be004f04be000080fa00000006007f
:104698000600fa00200798006000b800008fbe00ee
:1046a8002e0090002008900001002000008fbe001e
:1046b8001e00be00c000dd0000002000008fbe000c
:1046c8002e00900050089000010020001e1f70006e
:1046d8001e9770001e00be000080fa000000060051
:1046e8001400fa00500798006107980072079800b4
:1046f800030f98006000b800200798003107980061
:104708005e009000ee009000e00f5000e08f58002f
:10471800070032007e0190008e09900010002000f2
:1047280001002000800f5100818f590003003e00d6
:104738000080eb00100f98001b0137007e009000ee
:104748008e08900061015000e08158005e009000e2
:10475800ee009000800f5100818f59000300310056
:104768008080eb00110f98000f013700d6d4bf00ee
:104778000004e00006003200eb1707000004e00028
:10478800030032000081eb00120f98000601370089
:1047980000ef2000022020008000eb000df1070050
:1047a80000ef2000400798005e009000ee009000a7
:1047b800008fbe001e00be0012ec23000300200084
:1047c800aaef07004e09dd00c200de00810071007b
:1047d8004e00dd0020079800310798001e00be003b
:1047e80012ec230003002000bfef0700008fbe007b
:1047f8001e00be00f2032000030020009bef07000c
:104808004609dd00ca01de00830171004601dd00b2
:104818002e009000be00900002007000838070009f
:1048280020079800310798001e00be00f203200000
:1048380003002000acef0700008fbe00100020002e
:10484800010020003e014000ae8148002e0090008b
:10485800be0090000200700083807000200798005e
:10486800310798002e009000be0090004008de003e
:1048780001002000aff0b7002e009000be009000ad
:104888004809dd004800de0000007100c808de00ad
:10489800b0f0b7002e009000b1f0b7007e01900094
:1048a8008e0990005e009000ee009000000151001b
:1048b80081815900ce009000f00f200000026100b5
:1048c80021c893006040600004407000a0c89b00ad
:1048d8004812de0031c89300604060000440700058
:1048e800b0c89b00f00f20000082610041c893000f
:1048f8006040600004407000c0c89b004819de009a
:1049080051c893006040600002407000d0c89b000e
:10491800ce00900021c893000082fb0031c89300ac
:104928000080fb004800dd000400700000017800f2
:1049380041c893000082fb0051c893000080fb002f
:104948004800dd0004007000800178008003210029
:1049580001002000800f5100818f590004003e00a3
:10496800ce00900010c0b300a0c09b001b00370011
:10497800ce00900021c893000082fb0031c893004c
:104988000080fb004800dd00040070000001780092
:1049980041c893000082fb0051c893000080fb00cf
:1049a8004800dd000400700080017800f0d52f0079
:1049b800f1032000800f5100818f590004003e0050
:1049c800ce00900060c0b300a0c09b000300370079
:1049d8008081eb00130f980073003700ce00900021
:1049e8005e019000f00f20000001610061c093009b
:1049f8006040600002407000e0c09b005e009000d4
:104a08004801de0071c09300604060000240700001
:104a1800f0c09b006e019000f00f200000016100c3
:104a280001c89300604060000240700080c89b008d
:104a38006e0090004801de0011c8930060406000dd
:104a48000240700090c89b005e019000ee0190004b
:104a58007e0090008e08900002004000838048008d
:104a68000081eb008081eb00021f400003974800a3
:104a78001e00be0012ec230003002000fbee07001e
:104a8800ce09dd00c200de00818071004e00dd002d
:104a980020079800310798001e00be0012ec230082
:104aa8000300200010ef0700008fbe001e00be00ac
:104ab800f203200003002000ecee07004609dd00a9
:104ac800ca01de00830171004601dd002e0090005e
:104ad800be009000020070008380700020079800dc
:104ae800310798001e00be00f203200003002000da
:104af800fdee0700008fbe0010002000010020001e
:104b08003e014000ae8148002e009000be0090009b
:104b18000200700083807000200798003107980019
:104b28002e009000be0090004008de00010020002a
:104b3800b3f0b7002e009000be0090004809dd00d9
:104b48004800de0000007100c808de00b4f0b700bd
:104b58002e009000b5f0b700ce0090000040eb00aa
:104b6800e0789b00ce00900050c5b300e0f89b00b1
:104b7800ce009000a0cab300f0f89b0013c0b300a9
:104b880002ef20006000b800b9300700e14f500084
:104b9800030032008081eb00130f980002003700f9
:104ba8000000eb00100f98001e0890000080fa002b
:104bb800000006006c00fa00889fbe008a9fbe00b5
:104bc80060c79800422798005327980061279800eb
:104bd800200220000e004000000f98000040eb006b
:104be800a4f3b7000040eb00d8f4b7000040eb0096
:104bf800cef4b7000080eb008080eb0050a6880060
:104c080061a688000080eb008080eb0090a68800f9
:104c1800a1a688008e08900002ef2000f00f200067
:104c28000000610091417800e0c86100914870007f
:104c38004811de00114090006040600002407000a2
:104c480090409800682d07002d310700000f78006c
:104c58001e007800104078000004e00005003200d3
:104c680060c0b300a4f3b7000082eb00142f9800d3
:104c7800f508370002ef20006000b8000e2e07008c
:104c88000004e00005003a00b0c1b300a4f3b70087
:104c98000080eb00102f9800eb0837000e089000fa
:104ca8009080fb00104090000080fb004800dd0071
:104cb80001007000100f98001e089000e0f89300a3
:104cc80050c5b30080cf50009a003a001e089000eb
:104cd800f0f89300a0cab30080cf500095003a00c6
:104ce8000e0890009080fb00104090000080fb00b0
:104cf8004800dd0001007000610320002214070055
:104d08008040780060c4b30080cf500057003a005c
:104d18000e0890009080fb00104090000080fb007f
:104d28004800dd0001007000710320001614070020
:104d38008040780010c4b30080cf50004b003a0088
:104d48000e0890009080fb00104090000080fb004f
:104d58004800dd0001007000810320000a140700ec
:104d68008040780040c5b30080cf50003f003a0033
:104d78000e0890009080fb00104090000080fb001f
:104d88004800dd000100700091032000fe130700b9
:104d98008040780010c3b30080cf500033003a0041
:104da8000e0890009080fb00104090000080fb00ef
:104db8004800dd000100700061022000f2130700c6
:104dc8008040780090c2b30080cf500027003a009e
:104dd8000000eb00001798006ec090000000fb0078
:104de800002f98008e2890000100e0000900320092
:104df8000e299000e10f51000100320043003700f6
:104e0800f0c1b300a4f3b7008081eb00132f980022
:104e18008d0837000e089000a0409000e0c06000a8
:104e280021409800b0409000e0c0600031409800f8
:104e3800c0409000e0c0600041409800d040900021
:104e4800e0c06000514098000e089000f0fa07009a
:104e58000004e0002d003200b0c1b300a4f3b70095
:104e68000082eb00142f98007708370000ef20002d
:104e7800001798008e10900061c093000082fb001c
:104e880071c093000080fb004800dd000400700042
:104e98000001780001c893000082fb0011c893004c
:104ea8000080fb004800dd000400700080017800ed
:104eb8008e089000f00f2000000261002140900051
:104ec8006040600004407000a04098004812de0076
:104ed800314090006040600004407000b04098008d
:104ee800f00f2000008261004140900060406000a7
:104ef80004407000c04098004819de0051409000fe
:104f08006040600002407000d04098006ec0900081
:104f18000000fb00702798007e2090000000e00051
:104f28002f053200fe209000e18f5000060032006d
:104f38003405370040c0b300a4f3b7000081eb008c
:104f4800122f9800400837008e10900021c8930057
:104f58000082fb0031c893000080fb004800dd00a0
:104f6800040070000001780041c893000082fb0033
:104f780051c893000080fb004800dd000400700069
:104f880080017800620f9800730f98006e099000f6
:104f9800fe0990008003210001002000800f5100cd
:104fa800818f590071003e008e08900010c0b30038
:104fb800a06098008e10900010c0b300a0c09b00a5
:104fc80013c0b30002ef20006000b800a82f07004c
:104fd8000004e00005003a0090c0b300a4f3b70055
:104fe8008081eb00132f9800170837006e09900096
:104ff800fe0990007002210001002000800f51007e
:10500800818f5900040036008e08900020c0b3003c
:1050180090609800030037008e08900010c0b3001d
:105028009060980000ef2000022020008000eb0034
:10503800e8ee070020c3b3002aefb7000e0890007f
:10504800106090000080fb00000040006101b90082
:105058006e089000fe08900002014000838148001d
:10506800f0fd2f00f1ff2f00020040008380480070
:1050780050079800610798000e0890001060900093
:105088008080fb00501520000088b9000080e800ef
:10509800cf80de0030079800410798003e0190005d
:1050a800ce0190005e009000ee00900002004000eb
:1050b8008380480061005000e08058003e01900065
:1050c800ce01900069ed070050079800610798002d
:1050d8008e08900020c0b300806098008e08900071
:1050e8002150900060406000a0509800315090001e
:1050f800604060000014a000b05098008e08900036
:105108005e019000f00f20000001610041589000fe
:105118006040600002407000c05898005e00900037
:105128004801de0051589000604060000240700065
:10513800d05898006e019000f00f20000001610027
:10514800615890006040600002407000e05898008c
:105158006e0090004801de007158900060406000c9
:1051680002407000f0589800110137006e09900055
:10517800fe099000f0d52f00f1032000800f5100a8
:10518800818f59008c003e008e08900020c0b3002b
:10519800a06098008e10900060c0b300a0c09b0073
:1051a80013c0b30002ef20006000b800302f0700e2
:1051b8000004e00005003a0090c0b300a4f3b70073
:1051c8000082eb00142f98009f0737006e099000ab
:1051d800fe09900080de2f00f1ff2f000200400042
:1051e80083804800400f9800510f98008e08900067
:1051f80010c0b300906098000d0037000e089000b2
:10520800106090000080fb000000400080407800a3
:105218000e089000116098004e089000de0890007b
:105228008100d1000080d300400f9800510f9800f2
:105238004e099000de099000d0fe2f0001002000ea
:10524800800f5100818f5900ecff3e000e0890003e
:105258009060900000c8b30080cf50000500360071
:1052680040c0b300a4f3b7000080eb00102f9800f3
:105278007507370000ef2000022020008000eb00b7
:1052880054ee070060c3b3002aefb7000e08900081
:10529800106090000080fb00000040006101b90030
:1052a8006e089000fe0890000201400083814800cb
:1052b800f0fd2f00f1ff2f0002004000838048001e
:1052c80050079800610798000e0890001060900041
:1052d8000080fb004800dd000080e800cf80de0091
:1052e80030079800410798003e019000ce019000d9
:1052f8005e009000ee0090000200400083804800ad
:1053080061005000e08058003e019000ce019000fe
:10531800d6ec070050079800610798008e089000a7
:1053280020c0b300806098008e0890002150900043
:1053380060406000a05098003150900060406000cc
:105348000014a000b05098008e0890005e019000f4
:10535800f00f20000001610041589000604060009b
:1053680002407000c05898005e0090004801de00be
:10537800515890006040600002407000d05898007a
:105388006e019000f00f200000016100615890004c
:105398006040600002407000e05898006e00900085
:1053a8004801de00715890006040600002407000c3
:1053b800f05898007e0037008e08900030c0b30087
:1053c800a06098008e109000b0c0b300a0c09b00f1
:1053d80013c0b30002ef20006000b800a42e07003d
:1053e8000004e00005003a0090c0b300a4f3b70041
:1053f8008080eb00112f9800130737006e0990008a
:10540800fe099000420f9800530f98008e089000f4
:1054180010c0b300906098000d0037000e0890008f
:10542800106090000080fb00000040008040780081
:105438000e089000116098004e089000de08900059
:105448008100d1000080d300400f9800510f9800d0
:105458004e099000de099000e0ff2b00f1032000c8
:10546800800f5100818f5900ecff3e000e0890001c
:105478009060900000c8b30080cf5000050036004f
:1054880040c0b300a4f3b7008081eb00132f98004d
:10549800ed06370000ef2000022020008000eb001e
:1054a800cced07006e099000fe09900000fe2f0069
:1054b800f1ff2f0002004000838048005007980049
:1054c800610798000e089000106090000080fb00b3
:1054d8004700dd000000e800cf80de0030079800bc
:1054e800410798003e019000ce0190005e009000b8
:1054f800ee009000020040008380480061005000e8
:10550800e08058003e019000ce01900057ec070063
:1055180050079800610798008e08900020c0b300db
:10552800806098008e0890002150900060406000d4
:10553800a050980031509000604060000014a00016
:10554800b05098008e0890005e019000f00f200087
:105558000001610041589000604060000240700006
:10556800c05898005e0090004801de005158900035
:105578006040600002407000d05898006e019000b2
:10558800f00f200000016100615890006040600049
:1055980002407000e05898006e0090004801de005c
:1055a800715890006040600002407000f058980008
:1055b800b0ceb300f0eeb700c0c3b300f1eeb70051
:1055c80000c9b300f2eeb700d0c4b300f3eeb700e1
:1055d80030c4b300f4eeb70080c4b300f5eeb700f2
:1055e80000c5b300f6eeb70000c2b300f7eeb7008f
:1055f80060c4b300f8eeb70010c4b300f9eeb7000a
:1056080040c5b300faeeb7000040eb00fbeeb70070
:1056180020c0b300fceeb7000e08900010609000a8
:10562800fdeeb7000e08900020609000e14f50009a
:10563800040032000e08900020609000e24f5000f5
:1056480063013a0080c0b300feeeb7000040eb00f3
:10565800ffeeb7008e089000214090000082fb000a
:10566800314090000080fb004800dd00040070001d
:1056780000017800414090000082fb0051409000fa
:105688000080fb004800dd00040070008001780005
:1056980068014100e08149008e089000f00f200069
:1056a80000026100614090006040600004407000aa
:1056b800e04098004812de007140900060406000b1
:1056c80004407000f0409800f00f20000082610054
:1056d80001489000604060000440700080489800d5
:1056e8004819de00114890006040600002407000d8
:1056f8009048980020c0b30000efb7000040eb00ce
:1057080001efb70020c0b30002efb7000040eb0084
:1057180003efb7000040eb0004efb70080cfb30001
:1057280005efb7005e00900006efb7005e0090003e
:10573800ee009000480add004800de00000072001c
:10574800c808de0007efb700f0c3b30008efb700e2
:105758000040eb0009efb70000c0eb000aefb7000c
:105768000040eb000befb7008e089000214090003e
:105778000082fb00314090000080fb004800dd0003
:105788000400700000017800414090000082fb0096
:10579800514090000080fb004800dd0004007000cc
:1057a80080017800024078000cefb7008e08900066
:1057b800214090000082fb00314090000080fb00f7
:1057c8004800dd00040070000001780041409000ae
:1057d8000082fb00514090000080fb004800dd0083
:1057e8000400700080017800481add004810de00cf
:1057f80000007200c818de000defb7008e08900098
:10580800214090000082fb00314090000080fb00a6
:105818004800dd000400700000017800414090005d
:105828000082fb00514090000080fb004800dd0032
:1058380004007000800178004018de00010020009c
:105848000eefb7008e089000214090000082fb0008
:10585800314090000080fb004800dd00040070002b
:1058680000017800414090000082fb005140900008
:105878000080fb004800dd00040070008001780013
:105888004818de00010020000fefb7006e089000f6
:1058980010efb7006e089000fe0890004809dd0080
:1058a8004800de0000007100c808de0011efb700f4
:1058b8006e089000fe0890004008de0001002000fd
:1058c80012efb7006e089000fe0890004808de004e
:1058d8000100200013efb7000040eb0014efb70001
:1058e8000040eb0015efb70090c2b30016efb70009
:1058f8004e2090008040780000c0eb0000c060009f
:1059080017efb7004e209000de209000202f98005f
:10591800312f98002e289000be289000e00f5000ec
:10592800e08f580006003d002e299000be29900007
:10593800f20fb0000380b000222f9800332f980098
:105948002e299000be299000481add004810de007c
:1059580000007200c898de008040780000c0eb00ac
:1059680000c0600018efb7004e209000de209000c5
:10597800402f9800512f98004e289000de28900064
:10598800e00f5000e08f580008003d00f0ff2f00a6
:10599800010020004e299000de29900002014000fd
:1059a80083814800422f9800532f98004e29900079
:1059b800de2990004098de00cf80de00804078002d
:1059c80000c0eb0000c0600019efb7004e20900047
:1059d800de209000602f9800712f98006e289000ac
:1059e800fe289000e00f5000e08f580008003d00ae
:1059f800f0ff2f00f10f20006e299000fe29900083
:105a08000201400083814800622f9800732f98009c
:105a18006e299000fe2990004898de00cf80de00b5
:105a28008040780000c0eb0000c060001aefb700ab
:105a38006e2090000000e0003d0032006000b800d9
:105a48001007980021079800140037001e009000e6
:105a5800ae0090000001be00b202b0000380b000aa
:105a68001e009000800078006e20900000804000aa
:105a7800104078008040780000ef200000004100ce
:105a8800014878001e009000ae00900061004000c0
:105a9800e080480010079800210798001e00900039
:105aa800800078006e209000008040001040780050
:105ab8000004e000160032001e019000ae019000c4
:105ac800a000200001002000800f5100818f5900a4
:105ad800deff36000e0037001e009000ae0090007a
:105ae800b002b0000180b00002ef20008200400048
:105af80000c2b300804878001e009000ae009000fd
:105b080061004000e08048001007980021079800d5
:105b18001e019000ae019000a000200001002000ae
:105b2800800f5100818f5900ebff360019003700b4
:105b38006000b80010079800210798000e00370091
:105b48001e009000ae009000b002b0000180b000ce
:105b580002ef2000820040000040eb0080487800ff
:105b68001e009000ae00900061004000e0804800f8
:105b780010079800210798001e019000ae019000c0
:105b8800a000200001002000800f5100818f5900e3
:105b9800ebff360060c4b30026efb70010c4b300b3
:105ba80027efb70040c5b30028efb70010c3b30014
:105bb80029efb70000c2b3002befb70000c2b30053
:105bc8002cefb70000c2b3002defb700a2013700d9
:105bd80000c2b300feeeb7000040eb00ffeeb700d6
:105be8008e089000214090000082fb003140900018
:105bf8000080fb004800dd00040070000001780010
:105c0800414090000082fb00514090000080fb0062
:105c18004800dd0004007000800178000202b00036
:105c28000380b0008e089000f00f20000002610091
:105c3800614090006040600004407000e0409800bf
:105c48004812de007140900060406000044070001f
:105c5800f0409800f00f2000008261000148900099
:105c68006040600004407000804898004819de00d9
:105c78001148900060406000024070009048980011
:105c880020c0b30000efb7000040eb0001efb70001
:105c98000040eb0002efb7000040eb0003efb70055
:105ca8000040eb0004efb70080cfb30005efb7006a
:105cb8000040eb0006efb7000040eb0007efb7002d
:105cc800f0c3b30008efb7000040eb0009efb700de
:105cd80000c0eb000aefb7000040eb000befb70085
:105ce8008e089000214090000082fb003140900017
:105cf8000080fb004800dd0004007000000178000f
:105d0800414090000082fb00514090000080fb0061
:105d18004800dd000400700080017800024078002f
:105d28000cefb7008e089000214090000082fb0025
:105d3800314090000080fb004800dd000400700046
:105d480000017800414090000082fb005140900023
:105d58000080fb004800dd0004007000800178002e
:105d6800481add004810de0000007200c818de0086
:105d78000defb7008e089000214090000082fb00d4
:105d8800314090000080fb004800dd0004007000f6
:105d980000017800414090000082fb0051409000d3
:105da8000080fb004800dd000400700080017800de
:105db8004018de00010020000eefb7008e089000aa
:105dc800214090000082fb00314090000080fb00e1
:105dd8004800dd0004007000000178004140900098
:105de8000082fb00514090000080fb004800dd006d
:105df80004007000800178004818de0001002000cf
:105e08000fefb7006e08900010efb7006e08900013
:105e1800fe0890004809dd004800de00000071001f
:105e2800c808de0011efb7006e089000fe08900069
:105e38004008de000100200012efb7006e08900055
:105e4800fe0890004808de000100200013efb700ac
:105e58005e00900014efb7005e009000ee00900026
:105e6800c809dd004800de0000807100c808de00b7
:105e780015efb7005e009000ee0090004008de00cd
:105e88000100200016efb7005e009000ee009000c1
:105e98004808de000100200017efb7000040eb00c3
:105ea80018efb7000040eb0019efb7000040eb0017
:105eb8001aefb7000040eb001befb70020c0b3009b
:105ec8001cefb7000040eb001defb7000040eb00ef
:105ed8001eefb7000040eb001fefb70010c0b30083
:105ee80020efb7000040eb0021efb7000040eb00c7
:105ef80022efb7000040eb0023efb7000040eb00b3
:105f080024efb7000040eb0025efb7000040eb009e
:105f180026efb7000040eb0027efb7000040eb008a
:105f280028efb7000040eb0029efb7000040eb0076
:105f38002aefb7000040eb002befb7000040eb0062
:105f48002cefb7000040eb002defb7000040eb004e
:105f58002eefb7000040eb002fefb7000040eb003a
:105f680030efb7000040eb0031efb70090c2b3004c
:105f780032efb7004e2090008040780000c0eb0060
:105f880000c0600033efb7004e209000de20900084
:105f980000379800113798000e3090009e3090001e
:105fa800e00f5000e08f580006003d000e319000d1
:105fb8009e319000f20fb0000380b00002379800c5
:105fc800133798000e3190009e319000481add007a
:105fd8004810de0000007200c898de00804078009b
:105fe80000c0eb0000c0600034efb7004e20900006
:105ff800de20900020379800313798002e3090002e
:10600800be309000e00f5000e08f580008003d00bf
:10601800f0ff2f00010020002e319000be319000cb
:1060280002014000838148002237980033379800e6
:106038002e319000be3190004098de00cf80de0007
:106048008040780000c0eb0000c0600035efb7006a
:106058004e209000de20900040379800513798007d
:106068004e309000de309000e00f5000e08f580076
:1060780008003d00f0ff2f00f10f20004e31900086
:10608800de319000020140008381480042379800c9
:10609800533798004e319000de3190004898de006a
:1060a800cf80de008040780000c0eb0000c06000b8
:1060b80036efb7006e2090000000e0003d0032008f
:1060c8006000b800100798002107980014003700f6
:1060d8001e009000ae0090000001be007204b000e7
:1060e8000380b0001e009000800078006e209000b1
:1060f80000804000104078008040780000ef2000c9
:1061080000004100014878001e009000ae00900099
:1061180061004000e08048001007980021079800bf
:106128001e009000800078006e20900000804000e3
:10613800104078000004e000160032001e019000b4
:10614800ae019000a000200001002000800f510047
:10615800818f5900deff36000e0037001e009000c8
:10616800ae0090007004b0000180b00002ef200083
:106178008200400000c2b300804878001e009000f2
:10618800ae00900061004000e080480010079800d1
:10619800210798001e019000ae019000a000200089
:1061a80001002000800f5100818f5900ebff36005d
:1061b800190037006000b800100798002107980000
:1061c8000e0037001e009000ae0090007004b00072
:1061d8000180b00002ef2000820040000040eb0088
:1061e800804878001e009000ae00900061004000da
:1061f800e080480010079800210798001e019000d1
:10620800ae019000a000200001002000800f510086
:10621800818f5900ebff360060c4b30042efb7002e
:1062280010c4b30043efb70040c5b30044efb70054
:1062380030c3b30045efb70020c3b30046efb70043
:1062480000c2b30047efb70000c2b30048efb70081
:1062580000c2b30049efb70050c5b300eef0b70075
:10626800a0cab300eff0b7008e089000614090001c
:106278000081fb00714090000080fb004800dd00b9
:106288000200700000057800014890000081fb00c2
:10629800114890000080fb004800dd0002007000fb
:1062a800800578000e089000006090000084fb00d4
:1062b800090020008e089000415890000081fb00e2
:1062c800515890000080fb004800dd00020070007b
:1062d80000037800615890000081fb00715890001d
:1062e8000080fb004800dd00020070008003780099
:1062f8008800780006007800000ab80007c0b900d6
:10630800050178000001410009b0b9000001410011
:10631800820278000a0142008b814a008e089000b0
:10632800f00f2000000261002148900060406000ea
:1063380004407000a04898004812de0031489000e0
:106348006040600004407000b0489800f00f2000e2
:106358000082610041489000604060000440700085
:10636800c04898004819de0051489000604060001d
:1063780002407000d04898008e089000214090009c
:106388000081fb00314090000080fb004800dd00e8
:106398000200700000027800414090000081fb007c
:1063a800514090000080fb004800dd0002007000b2
:1063b800800278008041eb0002ef20000400be005c
:1063c800ab2a07000004e00013003a0090c0b300b5
:1063d800a4f3b7008081eb00132f98001a0337004d
:1063e8000e0890008af507000004e0000a00320059
:1063f800b0c1b300a4f3b7000082eb00142f9800db
:1064080011033700f0c1b300a4f3b7000080eb001c
:10641800102f98000c03370000ef20000220200006
:106428008000eb00ebe907000e0890002060900068
:10643800e34f500075013a0080cfb300f0eeb7008b
:1064480000c0eb00f1eeb70000c0eb00f2eeb700c1
:1064580000c0eb00f3eeb7000040eb00f4eeb7002d
:106468000040eb00f5eeb7000040eb00f6eeb70099
:10647800c0c0b300f7eeb70000c0eb00f8eeb700fd
:1064880000c0eb00f9eeb70000c0eb00faeeb70071
:1064980000c0eb00fbeeb7000e0890000060900013
:1064a8000080fb000000e900700798003600370004
:1064b8008e089000614090000081fb0071409000c0
:1064c8000080fb004800dd00020070000005780035
:1064d800014890000081fb00114890000080fb00fb
:1064e8004800dd0002007000800578007e00900002
:1064f8006104b8008e089000415890000081fb00ac
:10650800515890000080fb004800dd000200700038
:1065180000037800615890000081fb0071589000da
:106528000080fb004800dd00020070008003780056
:106538008800780006007800000ab80007c0b90093
:10654800050178000001410009b0b90000014100cf
:10655800820278000a0042008b804a008041eb00ea
:1065680002ef2000422a07000004e00003003a007e
:106578008080eb00112f9800b30237007e00900056
:106588000000e900700798007e009000e10f4000cd
:10659800c7ff3a0002ef20006000b8000089be0083
:1065a800640141006000b8000089be006401410038
:1065b8006000b8000089be008e089000614090001d
:1065c8000082fb00714090000080fb004800dd0065
:1065d8000400700000017800014890000082fb0070
:1065e800114890000080fb004800dd0004007000a6
:1065f8008001780061004100e080490010079800a0
:1066080021079800380037000e08900000609000bd
:106618000080fb000000e90070079800290037009f
:106628007e0090006104b8008e08900041589000e8
:106638000081fb00515890000080fb004800dd00fd
:106648000200700000027800615890000081fb0091
:10665800715890000080fb004800dd0002007000c7
:10666800800278008800780004007800000bb800e9
:1066780005c0b900070178000001410009a0b90070
:1066880000014100820378001e009000ae009000d7
:1066980006004000878048008041eb0002ef2000a0
:1066a800f32907000004e00003003a000081eb0032
:1066b800122f9800640237007e0090000000e90065
:1066c800700798007e009000e10f4000d4ff3a0068
:1066d8001e009000ae00900061004000e08048007d
:1066e80010079800210798008e08900061409000dc
:1066f8000081fb00714090000080fb004800dd0035
:106708000200700000027800014890000081fb0040
:10671800114890000080fb004800dd000200700076
:10672800800278008e089000415890000083fb009a
:10673800515890000080fb004800dd000600700002
:1067480000017800615890000083fb0071589000a8
:106758000080fb004800dd00060070008001780022
:1067680004014100858149001e009000ae009000a0
:10677800800f5100818f5900a3ff3e0010002000b8
:106788000100200010079800210798002100370019
:106798008e089000214890000082fb00314890004c
:1067a8000080fb004800dd00040070000001780054
:1067b800414890000082fb00514890000080fb0097
:1067c8004800dd0004007000800178001e00900081
:1067d800ae00900002004000838048008041eb003a
:1067e80002ef2000a22907000004e00003003a009d
:1067f8008081eb00132f9800130237001e009000d1
:10680800ae00900061004000e0804800100798004a
:10681800210798000e089000106090000081fb008e
:10682800030020001e009000ae009000800f510071
:10683800818f5900d6ff3e006e2090000000e000d6
:10684800570032006000b800100798002107980030
:10685800110037001e019000ae0190001e0090004c
:10686800800078006e209000008040001040780082
:106878008040780000ef20000000410001487800c7
:106888001e009000ae00900061004000e0804800cb
:1068980010079800210798001e00900080007800db
:1068a8006e20900000804000104078000004e00056
:1068b800140032001e019000ae019000a0002000dc
:1068c80001002000800f5100818f5900e1ff360040
:1068d8000c0037001e009000ae00900002ef200070
:1068e8008200400000c2b300804878001e0090007b
:1068f800ae00900061004000e0804800100798005a
:10690800210798001e019000ae019000a000200011
:1069180001002000800f5100818f5900edff3600e3
:1069280080c0b300fbeeb70010c1b30001efb700a1
:1069380010c1b30003efb70010c1b30007efb700f1
:106948008e089000214890000081fb00314890009b
:106958000080fb004800dd000200700000027800a3
:10696800414890000081fb00514890000080fb00e6
:106978004800dd0002007000800278008041eb00d2
:1069880002ef20000400be00392907000004e000df
:106998001b003a000082eb00142f9800aa01370070
:1069a8008e089000214890000081fb00314890003b
:1069b8000080fb004800dd00020070000002780043
:1069c800414890000081fb00514890000080fb0086
:1069d8004800dd0002007000800278008041eb0072
:1069e80002ef20000400be00212907000004e00097
:1069f80003003a000080eb00102f98009201370046
:106a08008000eb00112f98008f01370080cfb30072
:106a1800f0eeb70000c0eb00f1eeb70000c0eb00ed
:106a2800f2eeb7000e08900020609000e24f500090
:106a380002003a0000c0eb00f3eeb7000e08900029
:106a4800006090000080fb000000e90070079800db
:106a5800360037008e089000614090000081fb00ee
:106a6800714090000080fb004800dd0002007000cb
:106a780000057800014890000081fb001148900053
:106a88000080fb004800dd000200700080057800ef
:106a98007e0090006104b8008e0890004158900074
:106aa8000081fb00515890000080fb004800dd0089
:106ab8000200700000037800615890000081fb001c
:106ac800715890000080fb004800dd000200700053
:106ad800800378008800780006007800000ab80073
:106ae80007c0b900050178000001410009b0b900ec
:106af80000014100820278000a0042008b804a00af
:106b08008041eb0002ef2000d92807000004e000d4
:106b180003003a000081eb00122f98004a01370069
:106b28007e0090000000e900700798007e00900049
:106b3800e10f4000c7ff3a006000b8008077880086
:106b4800917788008e089000614090000082fb00d9
:106b5800714090000080fb004800dd0004007000d8
:106b680000017800014890000082fb001148900065
:106b78000080fb004800dd00040070008001780000
:106b880061004100e0804900100798002107980043
:106b9800380037000e089000006090000080fb006d
:106ba8000000e90070079800290037007e00900077
:106bb8006104b8008e089000415890000081fb00e5
:106bc800515890000080fb004800dd000200700072
:106bd80000027800615890000081fb007158900015
:106be8000080fb004800dd00020070008002780091
:106bf8008800780004007800000bb80005c0b900d0
:106c0800070178000001410009a0b9000001410016
:106c1800820378001e009000ae009000060040003d
:106c2800878048008041eb0002ef20009028070091
:106c38000004e00003003a008081eb00132f980065
:106c4800010137007e0090000000e90070079800fd
:106c58007e009000e10f4000d4ff3a001e00900033
:106c6800ae00900061004000e080480010079800e6
:106c7800210798008e089000614090000081fb0079
:106c8800714090000080fb004800dd0002007000a9
:106c980000027800014890000081fb001148900034
:106ca8000080fb004800dd000200700080027800d0
:106cb8008e089000415890000083fb0051589000c6
:106cc8000080fb004800dd0006007000000178002d
:106cd800615890000083fb00715890000080fb0011
:106ce8004800dd00060070008001780004014100c2
:106cf800858149001e009000ae009000800f510071
:106d0800818f5900a3ff3e008e089000215090000b
:106d18000081fb00315090000080fb004800dd003e
:106d2800020070004500dd006103b8008e08900085
:106d3800015890000082fb00115890000080fb0071
:106d48004800dd0004007000000178002158900020
:106d58000082fb00315890000080fb004800dd00f5
:106d68000400700080017800060041008780490017
:106d780061035000e08358008e089000015890008d
:106d88000082fb00115890000080fb004800dd00e5
:106d98000400700000017800215890000082fb0078
:106da800315890000080fb004800dd0004007000ae
:106db800800178000600be002ce60700200f98002e
:106dc800310f9800100020000100200010079800e3
:106dd80021079800210037008e0890002148900074
:106de8000082fb00314890000080fb004800dd0075
:106df8000400700000017800414890000082fb0008
:106e0800514890000080fb004800dd00040070003d
:106e1800800178001e009000ae0090000200400043
:106e2800838048008041eb0002ef20001028070013
:106e38000004e00003003a000082eb00142f9800e1
:106e4800810037001e009000ae00900061004000f5
:106e5800e080480010079800210798001e01900064
:106e6800ae0190002e089000be089000800f5100df
:106e7800818f5900d8ff39006e2090000000e00093
:106e8800570032006000b8001007980021079800ea
:106e9800110037001e019000ae0190001e00900006
:106ea800800078006e20900000804000104078003c
:106eb8008040780000ef2000000041000148780081
:106ec8001e009000ae00900061004000e080480085
:106ed80010079800210798001e0090008000780095
:106ee8006e20900000804000104078000004e00010
:106ef800140032001e019000ae019000a000200096
:106f080001002000800f5100818f5900e1ff3600f9
:106f18000c0037001e009000ae00900002ef200029
:106f28008200400000c2b300804878001e00900034
:106f3800ae00900061004000e08048001007980013
:106f4800210798001e019000ae019000a0002000cb
:106f580001002000800f5100818f5900edff36009d
:106f680080c0b300fbeeb70010c1b30001efb7005b
:106f780010c1b30003efb70010c1b30007efb700ab
:106f88008e089000214890000081fb003148900055
:106f98000080fb004800dd0002007000000278005d
:106fa800414890000081fb00514890000080fb00a0
:106fb8004800dd0002007000800278008041eb008c
:106fc80002ef20000400be00a92707000004e0002b
:106fd8001b003a000080eb00102f98001a003700c1
:106fe8008e089000214890000081fb0031489000f5
:106ff8000080fb004800dd000200700000027800fd
:10700800414890000081fb00514890000080fb003f
:107018004800dd0002007000800278008041eb002b
:1070280002ef20000400be00912707000004e000e2
:1070380003003a008080eb00112f9800020037000f
:107048000001eb00122f98001e2890004f05be008b
:107058004f04be000080fa00000006001200fa008b
:1070680060079800710798006e0090009000780003
:10707800510798006e00900010199000a019900018
:10708800028fbe007e009000100078006103b800f7
:10709800de009000015890000082fb00115890001b
:1070a8000080fb004800dd0004007000000178004b
:1070b800215890000082fb00315890000080fb00ae
:1070c8004800dd0004007000800178004b18dd00e6
:1070d8004511de0002017000c519de000600be0081
:1070e80062e50700004f98005e0090002060900065
:1070f8000080fb00000f98008e089000e18f500080
:107108001f0035000e099000e20f51000e003400f8
:107118008e099000e38f51000100320018003700fb
:107128005e009000906090000e4890000080fb0088
:107138000181fb00110009000280d8008000fd00d9
:10714800004f98000e003700009d8000119d8000c0
:10715800be0f1000ae8f1800090032005e009000cc
:10716800906090000e4890000080fb000181fb00b9
:10717800110009000280d8008000fd00004f98002f
:107188001e01be005e0090003c0b0700200798001f
:10719800310798005e0090009080fb00104090003e
:1071a8000080fb004800dd0001007000000278004c
:1071b8000e4890000081fb00030020002e00900084
:1071c800be00900002004000838048008041eb0030
:1071d80004017800262707000004e00003003a00b5
:1071e8000040eb00104f98000200370010c0b300b9
:1071f800104f98001e4890000080fb000080fa00a5
:10720800000006001800fa0070079800010f9800a7
:10721800120f98000000eb00000f78001e08900085
:10722800206090000080fb00300f98003e0890001e
:10723800e10f50000d003200be089000e38f5000af
:107248000100320012003700f0ff2f00f1ff20008c
:10725800100798002107980080ff2f00f1ff2000f9
:10726800300798004107980011003700f0ff2f0001
:1072780001002000100798002107980080ff2000d7
:1072880001002000300798004107980008003700e7
:10729800f0ff2f0001002000100798002107980038
:1072a80080ff2f0001002000300798004107980058
:1072b8007e0090008e089000e00f5000e08f58008c
:1072c800070032007e0190008e0990001000200017
:1072d80001002000800f5100818f59003d003a00c5
:1072e80020002000000f78003c0037007e0190004d
:1072f8008e0990001e089000de11070050079800c4
:10730800610798005e019000ee0190001e00900059
:10731800ae009000800f5100818f590003003a00a1
:1073280010002000000f78002a0037005e0090004f
:10733800ee009000e00f5000e08f58000700320088
:107348005e019000ee019000100020000100200076
:10735800800f5100818f590003003a00200020005f
:10736800000f78001b0037005e019000ee019000ce
:107378003e009000ce009000800f5100818f590090
:107388000200390020002000000f78008040eb0048
:107398006022b8007e0190008e0990001e089000bf
:1073a800d61307000001be001e009000ae0090003a
:1073b800800f5100818f590002003a001000200010
:1073c800000f78005e009000ee00900070079800b3
:1073d800010f98001e00e000c4ff320011c0b30086
:1073e8006022b8006011b8001e089000c31307009f
:1073f800210020009e8f100003003a00100020009a
:10740800200f9800020037008000eb00210f980041
:107418002e0890000080fa00000006002000fa0004
:10742800400f9800510f9800425f98004e08900056
:1074380090007800210f98004e089000701190007d
:107448008019900062079800730798004e08900012
:1074580010199000a019900022079800330798008f
:10746800ae089000015890000082fb00115890006f
:107478000080fb004800dd00040070000001780077
:10748800215890000082fb00315890000080fb00da
:107498004800dd0004007000800178004b1add0010
:1074a8004510de0000007200c518de00004f7800ad
:1074b8005e089000100078001e81fb001100090092
:1074c8000280d800204798002e0890002060900085
:1074d8000080fb00e30f5000010032000e0037006f
:1074e8002e089000906090002e4090000080fb00d5
:1074f8000181fb00110009000280d8008000fd0016
:107508002047980080ff2f00f1ff200040079800d7
:1075180051079800120037006e009000fe0090009e
:10752800e00f5000e08f5800090032002e0890004c
:10753800906090002e4090000080fb000181fb00cd
:10754800110009000280d8008000fd002047980043
:1075580080ff2f0001002000400798005107980085
:107568004e5890000004e00005003a005e089000c4
:10757800100078006f0060000000e000bc003a00d6
:107588002e4090000004e00005003a005e089000dc
:10759800900078001e80fb00808f500003003100af
:1075a8004e5890000004e0002e0032006e0090005b
:1075b800fe009000e00f5000e08f580004003a00f1
:1075c8006000b800200798003107980025003700b0
:1075d8004e5890000004e0000c0032005e08900055
:1075e800900178009e80fb002e08900010609000ab
:1075f8000080fb000088b900000178001100090034
:107608008281d800104798001300370010c0b300db
:1076180010479800100037002e019000be0190001e
:107628002e089000131107002007980031079800d2
:107638002e019000be0190004e009000de009000e8
:10764800800f5100818f5900060031001e409000c4
:107658000040e900104798001e4090000004e00038
:10766800edff3a002e019000be0190004e00900000
:10767800de009000800f5100818f590077003100a3
:107688004e0890002e019000be019000121898003c
:10769800231898002e019000be0190002e0890003b
:1076a800f6090700000f9800110f9800029d80004e
:1076b800139d80002e009000be009000820f5000a5
:1076c800838f580020003a002e4090000081fb0074
:1076d800030020000e0890009e089000020340005e
:1076e80083834800ae089000614890000082fb0048
:1076f800714890000080fb004800dd000400700025
:1077080000017800015090000082fb0011509000a9
:107718000080fb004800dd00040070008001780054
:10772800820f5300838f5b00070039002e089000fa
:1077380020609000e34f5000030032000000eb008f
:10774800300f98005d003700d6d4bf000004e00079
:1077580006003200f40b07000004e00003003200ca
:107768008001eb00730f9800560037000000eb0013
:1077780080a688000040eb00d8f4b7002e089000df
:107788009080fb00104090000080fb004800dd0066
:1077980001007000000278002e4090000081fb007c
:1077a800030020000e0890009e0890000200400090
:1077b80083804800040178003f230700e14f500010
:1077c800030032000000eb00300f98001e00370065
:1077d8004e5890000004e000140032002e0890007b
:1077e8009080fb00104090000080fb004800dd0006
:1077f80001007000800078005e089000100078009a
:107808001e81fb00811f7800110009000280d8004a
:107818000001780001007800cf0078004500dd0005
:1078280000804000300f9800070037002e089000b5
:107838009080fb00104090000080fb004800dd00b5
:1078480001007000300f98000080eb008080eb0092
:1078580090a68800a1a688001800370010c0b300c1
:10786800d7f4b7000000eb00300f98001300370082
:107878002e0890009080fb00104090000080fb00d4
:107888004800dd0001007000800078005e0890006c
:10789800100078001e81fb00811f7800110009008c
:1078a8000280d8000001780001007800cf0078003d
:1078b8004500dd0000804000300f98003e0a90002f
:1078c800740f98007e0890000080fa0000000600ff
:1078d8000800fa00100798002107980062479800ee
:1078e800734798000000eb00000f78000040eb00a1
:1078f800a4f3b700ae0090000000eb008008780009
:10790800ae0090001e0090005e0007000004e0003a
:107918000f0032006e419000ae0090001e009000f3
:10792800ef0007000080fb00000f78001e00e00059
:1079380009003a007e4090000004e0000600320092
:107948001e00900009000700000f780002003700b1
:1079580040012000000f78001e007800a4f3b70053
:107968001e0078000080fa00000006001400fa00eb
:10797800700798007e009000401090006007980003
:10798800e80047007e0090004e0807003007980086
:107998003e0090000000e00037003a00ec0047008d
:1079a8007e009000e7040700000f78004e0090006a
:1079b800de009000800078001e00780051089800d2
:1079c8004e009000de00900002002000f3ff20002f
:1079d80000027800810278000200780083007800b5
:1079e80000016200018062006102b800040f980083
:1079f800150f98000e0890009e089000c000dd004a
:107a080000002000000f9800110f98000e08900049
:107a18009e0890006112b800040f9800150f980096
:107a28000e0990009e09900002007000838070008b
:107a380010079800210798001e009000ae009000e3
:107a48004008de0001002000100798002107980078
:107a58009e0090001e00780021089800ec00470066
:107a68007e0090007dfd0700e14f500002003200cb
:107a780090002000300798003e0090000080fa0037
:107a8800000006001200fa006007980071079800cd
:107a980010c0b300304f98000040eb00004f980032
:107aa8006e00900080189000701090006e01900099
:107ab800101998002119980012c0b300fe00900018
:107ac8006e00900055fe0700000f78001e00e000d1
:107ad80003003a00b0c1b300304f9800750037007a
:107ae80010c0b300104f98006c0037000040eb0046
:107af800204f98007e009000900078003107980091
:107b08000041eb00fe0090006e00900043fe07006d
:107b1800000f78001e00e000030032001e0078000d
:107b280010407800004f98007e0090001000780008
:107b38008000e8007e009000010878001e00e00048
:107b48000d0032000e489000fb4f40000300320049
:107b58000e4890000004e00007003a002e4890000c
:107b68000040e800204f9800ae4890001e48900062
:107b780080cf5000e2ff39001e00e0003a003a00d2
:107b88006e00900010199000a0199000120798003c
:107b980023079800029d8000139d80001e0090001e
:107ba800ae009000820f5000838f58001b003a00ef
:107bb8006e0090001000780020609000e34f5000a5
:107bc8000300320020c0b300304f98003300370064
:107bd8006e0090001e019000ae01900032009800e7
:107be8004300980011c0b3006e00900051010700d7
:107bf800f54f500003003a0020c0b300304f980002
:107c0800260037007e009000be019000030878002f
:107c18000040eb00304f9800200037006e009000c5
:107c28001e019000ae0190003200980043009800b9
:107c380011c0b3006e0090003e010700f54f5000e0
:107c480003003a0020c0b300304f980013003700fb
:107c58007e009000be019000030878000040eb0011
:107c6800304f98000d003700ae4890001e48900035
:107c780080cf500009003a000040eb00304f9800d8
:107c88001e4890008080fb003e00900001005000dc
:107c98008000e8007e009000010878003e489000cf
:107ca800e14f500091ff32007e009000be0090002e
:107cb800010878003e4890000004e00003003a0004
:107cc80012002000020f9800020037008001eb002c
:107cd800030f98000e0890000080fa0000000600cc
:107ce8000c00fa002007980031079800024f98000e
:107cf8000040eb00204798002e009000801890006c
:107d0800701090002e019000101998002119980009
:107d180012c0b300be0090002e009000bffd070007
:107d2800000f78001e00e00003003a00b0012000b8
:107d380050079800510037002e009000fc004000ca
:107d48001e007800b2002000a9e307000e4890004a
:107d5800f24f500004003a009e00780000c1b300c2
:107d6800b0489800030037009e00780000c2b300b6
:107d7800b04898009e0078000040eb00c04898008a
:107d88009e0078000000eb00a00898009e00780094
:107d98000000eb00d00898001e0178006000b800d1
:107da80060099800710998003700070051392100cf
:107db800914078001e00780051489800b19c8000de
:107dc8001e00780071009800c19c80001e00780099
:107dd80001089800d19c80001e00780011089800c6
:107de800e19c80001e00780031089800f19c80001a
:107df8001e007800410898001e007800f0089000e6
:107e0800600890002e019000100998002109980040
:107e18001e007800f00090002e00900041089800a5
:107e28001e007800800890002e00900051089800ed
:107e38001e007800304890008080fb002e009000e3
:107e4800611098003e009000900078002e0090008d
:107e580041109800be0090002e0090007ffc0700a3
:107e6800e14f50000200320090c0b3002047980054
:107e78002e4090000080fb00500798005e009000a4
:107e88000080fa00000006000e00fa0027c6bf00b6
:107e9800614060000004e0000300320010c0b3003d
:107ea800004f7800020037000040eb00004f7800d8
:107eb80027c6bf00624060000004e00003003200f3
:107ec80010c0b30010479800020037000040eb00d4
:107ed800104798002706a8002726a8002031800010
:107ee80060079800203180005007980020318000fa
:107ef80040079800203180003007980010c0b30078
:107f08009e4f100001003a002706a8001e4090006e
:107f1800e14f500001003a002726a8000000eb00be
:107f2800200798006e009000ef0060002e0090007f
:107f38000100400020079800ee009000000f20008c
:107f4800008060004400de006a00b900800078000c
:107f58002e00900001004000200798002e0090009d
:107f680074004000200798002e0090004900dd00b2
:107f7800100798005e0090004c00de006100600071
:107f88000004e00003003200a00020002007980051
:107f9800020037000000eb0020079800de00900088
:107fa80000f0200000806000c800de002e00900075
:107fb80001004000200798002e0090004500dd00d9
:107fc800200798009e0090002e009000008070000e
:107fd80010079800de009000000f2000008060006d
:107fe8004400de00200798002e0090006a00b900c7
:107ff800200798005e009000ef0060002e009000bf
:1080080001004000200798009e0090002e0090007c
:1080180000807000100798001e009000c09c880027
:108028001e009000f09c88001e009000d09c8800e4
:10803800ce009000000f2000008060004400de00a9
:108048006a00b900200798004e009000ef00600019
:108058002e00900001004000200798002e0090009c
:108068004b00dd0010079800be00900000002f00b4
:10807800008060004c00de006a00b900200798000c
:10808800be00900000f0200000806000c800de0004
:108098002e00900001004000200798002e0090005c
:1080a800c500dd001e009000010070001007980058
:1080b800be009000000f2000008060004400de0039
:1080c8006a00b900200798003e009000ef006000a9
:1080d8002e00900001004000200798002e0090001c
:1080e800610060000004e0000300320040c6b300f5
:1080f80095f3b700020037000040eb0095f3b70096
:108108002e0090000000d100200798009e009000eb
:108118002e00900000807000100798001e0090004c
:10812800b09c88001e009000e09c88000080fa0047
:10813800000006001000fa0050079800414f980010
:108148005e00900090007800410798005e00900063
:1081580030019000c0019000220798003307980072
:108168005e0090004700070020079800310798003c
:108178002e009000be009000e00f5000e08f5800e5
:1081880003003a0053012000730798003a003700b3
:108198004e00900020609000e14f500008003a0027
:1081a8008040eb0084ff2000050020002e01900095
:1081b800be0190004e0090005010070013003700d9
:1081c8004e00900020609000e24f500008003a00f6
:1081d8008040eb0084ff2f00050020002e01900056
:1081e800be0190004e0090004410070007003700c1
:1081f8008040eb0084ff2f00f5ff20002e01900047
:10820800be0190004e0090003c1007005e009000f8
:1082180030019000c0019000028fbe008040eb004a
:108228002e029000be0290001e01be004e0090007b
:10823800321007005e0090002e019000be019000f1
:1082480032009800430098004e489000e14f5000db
:1082580007003a002e019000be0190004e009000e9
:108268006e0607000080fb007007980002003700c8
:108278008001eb00730798007e0090000080fa00f0
:10828800000006001a00fa00300f98006000b800dd
:10829800000f9800110f98003e0890009000780099
:1082a800210f98003e08900030019000c001900016
:1082b80062079800730798002e08900020609000cd
:1082c8000080fb00400f9800ce099000e18f51001c
:1082d8000c0032004e089000e30f500001003200fd
:1082e8001000370070ff2f00f1ff200020079800d2
:1082f80031079800f0ff2f00f1ff2000008fbe002b
:108308000f00370070ff20000100200020079800b0
:1083180031079800f0ff2f0001002000008fbe00f9
:108328000700370070ff2f00010020002007980089
:1083380031079800f0ff2f0001002000008fbe00d9
:108348006e019000fe019000100020000100200046
:10835800800f5100818f590004003e00200020004a
:108368000100200060079800710798006e019000d6
:10837800fe01900042079800530798006e01900094
:10838800fe0190002e089000ba0d07004600370045
:108398006e019000fe0190002e089000b50d0700b8
:1083a800000f9800110f98000e0890009e0890008a
:1083b800be0f5000ae8f580004003a006000b800ad
:1083c80060079800710798003c0037000e0890007d
:1083d8009e089000e00f5000e08f580037003200f0
:1083e8006e009000fe00900061004000e0804800b0
:1083f80060079800710798000e0990009e09900088
:108408002e009000be009000800f5100818f59000f
:1084180016003200ae089000415090000082fb0028
:10842800515090000080fb004800dd0004007000ff
:1084380000017800615090000082fb0071509000ac
:108448000080fb004800dd00040070008001780017
:1084580062014100e08149006e009000fe0090003a
:10846800800f5100818f590004003e002000200039
:108478000100200060079800710798006e019000c5
:10848800fe0190004e009000de009000800f510029
:10849800818f590004003a006000b8006007980016
:1084a80071079800050037006e009000fe009000ec
:1084b800e00f5000e08f5800b5ff3a006e009000c2
:1084c800fe0090000080fa00000006000a00fa0092
:1084d800300798006000b800008fbe003e00900092
:1084e80020409000e14f500086003a00be00900006
:1084f800e0442100800878003e0190006000b80048
:108508000009980011099800be0090000040eb0097
:10851800a04098003e009000100078003060900065
:10852800e14f500004003200be009000100020000f
:10853800a0009800d4003700be009000f00f200083
:10854800a00098003e00900010007800a060900005
:108558003e009000614098003e0090009000780036
:10856800015890000082fb00115890000080fb0029
:108578004800dd00040070000001780021589000d8
:108588000082fb00315890000080fb004800dd00ad
:108598000400700080017800820078003e0090009e
:1085a800410098003e009000100078009060900014
:1085b8003e009000214898003e009000900078000e
:1085c800415090000082fb00515090000080fb0059
:1085d8004800dd0004007000000178006150900040
:1085e8000082fb00715090000080fb004800dd0015
:1085f80004007000800178003e009000620098003e
:10860800730098003e0090001000780020609000f1
:108618000080fb00400798004e009000e20f5000d9
:10862800120032004e009000e30f500004003200a8
:108638004e009000e10f5000170032002000370074
:108648003e01900070ff2f00f1ff200060099800a4
:10865800710998003e019000f0ff2f00f1ff200003
:108668000011980011119800150037003e01900084
:1086780070ff2f0001002000600998007109980020
:108688003e019000f0ff2f0001002000001198002b
:10869800111198000a0037003e01900070ff200079
:1086a8000100200060099800710998003e019000bf
:1086b800f0ff2f0001002000001198001111980010
:1086c8003e019000200020000100200020099800b1
:1086d800310998003e009000b008900020089000f2
:1086e8003e01900040099800510998003e00900012
:1086f80020099000b00990003e009000100078001a
:10870800dc0c07003e009000100078000000e0003c
:1087180004003a00be00900010002000a00098005d
:10872800590037003e009000a0009000f00f200094
:10873800808f500054003a000040eb0040479800fa
:108748004b0037003e00900020099000b0099000cf
:108758003e00900010007800c60c0700008fbe0095
:108768003e0090009010900000109000be0f100086
:10877800ae8f180004003a00be00900020002000d0
:10878800a0009800400037001e00be00e00f500017
:10879800e08f580008003a003e00900090089000d2
:1087a8000008900061004000e08048003e01900011
:1087b80000099800110998003e009000b008900048
:1087c8002008900061004000e08048003e019000d1
:1087d80020099800310998003e009000f0089000a8
:1087e80060089000be0f5000ae8f58000b0032009a
:1087f8003e00900020099000b00990003e009000d3
:10880800f00090006000900062004000e0804800a6
:10881800800f5100818f5900050039003e019000fa
:10882800200020000100200020099800310998004c
:108838003e00900020099000b00990003e00900092
:10884800d008900040089000800f5100818f590097
:1088580004003a00be0090000000eb00a000980061
:10886800090037004e4090000040e800404798005b
:108878004e409000e14f4000b2ff3a00be00900029
:10888800f00f2000a00098000080fa000000060009
:108898000c00fa0040079800800420001007980098
:1088a8000040eb00a4f3b7004e0090004010900089
:1088b800300798004e00900030089000610060007a
:1088c8000000e0004e003200d6d4bf000004e000f3
:1088d80008003200940707000004e0000500320099
:1088e80090c0b300a4f3b7000080eb0050079800d5
:1088f800630037004e0090001000780011c0b300ec
:108908006022b8006011b8007c0e07006000b80053
:1089180050a6880061a688004e00900030019000a3
:10892800c00190004e00900010007800510c070024
:10893800e60047004e00900002010700000f780093
:108948001e00e00007003a00b0c1b300a4f3b7006e
:108958000080eb00100798001e0090005007980058
:108968004700370048fd0700e19c80001e007800a2
:1089780031089800f19c80001e007800410898009a
:108988004e009000a0089000100890001e0178008a
:1089980060099800710998004e00900060109000de
:1089a800804078001e00780031489800e6004700b3
:1089b8004e009000a9f907000004e000070032000b
:1089c800e60047004e009000de000700000f780028
:1089d8000000eb00100798000400370090c0b300b7
:1089e800a4f3b7000080eb00100798004e01900038
:1089f800b2089000e0ff2f00008060003009980066
:108a08000000eb002007980012003700ae0090002d
:108a1800600320000088b90080007800002f210042
:108a2800808040004e009000808f500006003a0081
:108a3800ae009000203921008080400010c0b300b3
:108a480080487800060037002e0090000000e800fb
:108a5800200798002e009000e20f5000ebff360030
:108a68009e00900080042000808f500002003a0091
:108a78000000eb00100798001e00900050079800b7
:108a88005e0090000080fa00000006000c00fa006a
:108a980040079800510798000040eb00004f78000d
:108aa8005e009000100078006f0060000000e00099
:108ab80010003a005e009000100078000000e0000e
:108ac8000c0032004e00900080189000701090004a
:108ad8004e019000101998002119980012c0b30097
:108ae800de0090004e0090004cfa07003007980016
:108af800050037000041eb00de0090004e009000ba
:108b080046fa0700300798003e0090000000e00099
:108b180003003a0020c0b3001047980085003700d2
:108b28003e00900010407800304798003e4090008a
:108b3800fb4f400003003a0010c0b30010479800f4
:108b48007c0037003e4090000004e00003003a003b
:108b580020c0b30010479800760037003e00900010
:108b6800b0489000314798000040eb00404798001b
:108b7800140037004e4090008080fb003e009000bb
:108b88000080400010407800204798002e40900058
:108b98000080fb0077de0700204798001e80fb005e
:108ba8002e419000ce0090007c0040000100400063
:108bb800024878001e4fe8004e4090000040e80050
:108bc800404798004e409000e74f5000e9ff3600bc
:108bd8003e009000b0489000314798003e00900059
:108be80000489000204798000040eb00404798005c
:108bf800150037004e4090000080fb00be0090003a
:108c080068004000010040001040780020479800ac
:108c18002e4090000080fb0056de07002047980099
:108c28001e80fb002e419000ce0090007c0040008a
:108c380001004000024878001e4fe8004e409000b6
:108c48000040e800404798004e409000e24f500036
:108c5800e8ff36005e009000900078004e0090001b
:108c6800411098003e00900010407800304798006e
:108c78003e409000fb4f400003003a0010c0b30094
:108c880010479800020037000040eb00104798009a
:108c98003e009000f0089000600890004e0190009f
:108ca80010099800210998003e00900078ee07000e
:108cb8004e01900010019800210198003e0090009c
:108cc800b0489000314798003e4090008080fb00fb
:108cd8004e009000611098003e4090000080fb001c
:108ce8004400de00610060000004e000090032007a
:108cf8003e009000f00090004e009000410898005f
:108d08003e009000800890004e00900051089800a6
:108d1800080037003e009000b00890004e00900018
:108d2800410898003e009000c00890004e00900056
:108d3800510898001e4090000080fb000080fa0057
:108d4800000006000a00fa00200798003107980082
:108d58002e00900080189000701090002e01900056
:108d6800101998002119980012c0b300be00900095
:108d78002e009000a9f90700100798001e00900027
:108d88000000e00003003a000000eb0040079800f4
:108d98002c0037001e00900010407800004f78002b
:108da8001e04e00002003a000000eb0010079800e3
:108db8001e0090000000e0002000320051ceb300f9
:108dc8009ecf100003003a000000eb001007980047
:108dd8001a0037001e009000b0489000014f78003c
:108de800130037003e009000100078008000e80073
:108df8003e009000010878000041eb00be009000a2
:108e08002e00900085f90700100798001e009000ba
:108e18000000e00003003a000000eb004007980063
:108e2800080037001e009000b0489000014f7800fd
:108e3800f0c0b3009e4f1000eaff32009e00900081
:108e4800410798004e0090000080fa0000000600dc
:108e58001600fa0070079800010f98002257980032
:108e68000000eb00400798006000b8002007980059
:108e78003107980010c0b300004f78007e009000c2
:108e8800900078001107980010c0b30010479800b0
:108e980010c0b300a4f3b700380037007e0090007c
:108ea80080189000701090007e01900010199800b2
:108eb8002119980012c0b3008e0890007e0090001f
:108ec80056f90700600798006e0090000000e00067
:108ed80003003a00b0012000200f98004900370035
:108ee8006e00900010407800204f98006e009000af
:108ef8000000e000060032002e4890000004e00068
:108f0800030032002e489000fb4f400003003a0057
:108f1800b0002000400798001e0037006e00900047
:108f280051ceb300014878008e0890007e00900072
:108f38004af807000004e00003003a00100020008f
:108f480040079800130037001e04e00006003200b6
:108f58006e009000ceed07002007980031079800ba
:108f68000040eb00004f78000e08900010007800d9
:108f78008000e9000e089000010878001e4090006b
:108f88000040e900104798001e409000e14f400063
:108f9800c2ff3a004e0090000000e00017003a00bf
:108fa800029d8000139d80002e009000be0090005e
:108fb800820f5000838f58000e0032002e50900010
:108fc8000004e0000b0032001e0190002e0090000b
:108fd800be0090008bf80700804078000000eb008e
:108fe800400798000104e00002003a001000200049
:108ff800400798004e009000a4f3b700ce00900000
:10900800210f98002e0890000080fa00000006004a
:109018007800fa00103f9800213f98000040eb00cc
:10902800a4f3b700c01f07000004e00005003200e9
:1090380080c1b300a4f3b7000080eb00303f980074
:109048005b00370066004700ae38900081020700d9
:10905800e60047000041eb001e38900005070700b6
:109068000004e00005003a0020c1b300a4f3b700f3
:109078000080eb00303f98004d003700e6004700c5
:109088000000eb00c0109800d0a680008018900067
:10909800701090006601470070119800011998003f
:1090a800d0a68000a0189000101890006601470014
:1090b8001019980021199800e6004700c003200005
:1090c8000e00400063020700e6004700c0032000ce
:1090d8000e0040008041eb0012c0b300b5e6070067
:1090e800eb0f50002e003a002e38900040109000f0
:1090f80020079800e40047002e38900011ff070071
:10910800100798000040eb00004f7800140037006b
:109118009e81fb001e80fb00e60047007c004000ab
:109128000100400010417800ae3890007c8041007a
:1091380001004000024878001e81fb001e80fb00f1
:10914800e60047007c0040000100400090407800a5
:109158001e00900000004100014878001e4fe80002
:10916800a0c0b3009e4f1000e9ff3600e40047009e
:109178002e389000b9f707000004e00005003a0017
:1091880090c0b300a4f3b7000080eb00303f980014
:10919800070037000000eb00303f9800040037005c
:1091a80010c1b300a4f3b7000080eb00303f980073
:1091b8003e3890000080fa00000006001200fa0015
:1091c80050079800610798000000eb0030079800ee
:1091d8000000eb002007980016003700ae00900052
:1091e8002039210000804000104078000004e00091
:1091f8000d003200ae009000203921008080400030
:109208000040eb0080487800ae009000600320002a
:109218000088b90080007800002f210000804000fd
:1092280030079800060037002e0090000000e80084
:10923800200798002e009000e20f5000e7ff34004e
:109248003e0090000000e00005003a0000c2b300b4
:10925800a4f3b7000000eb00000f9800710137007d
:109268000041eb00be0090005e0090008106070000
:109278000004e0000a003a00ae0090002039210006
:109288008080400010c0b3008048780020c1b3003f
:10929800a4f3b7008000eb00010f980061013700cc
:1092a8006e0090001040780020479800be009000a3
:1092b800e0442100800878003e0190006000b8007a
:1092c80010019800210198003e0190006000b8004c
:1092d8003001980041019800be0090000000eb00aa
:1092e800c0109800be00900000022000e010980016
:1092f800d0a6800080189000701090003e01900069
:109308007011980001199800d0a68000a01890004c
:10931800101890003e01900010199800211998002b
:10932800be009000203e2100ca0107008041eb00ea
:1093380012c0b300213e21003e0090001de6070048
:109348000000e000dd003a002e4090000080fb00a5
:109358007007980070052000fe009000808f500074
:109368001a00320070052000fe009000808f500027
:1093780009003c0010042000fe009000808f50007f
:109388004500320020052000fe009000808f50002c
:10939800ac003200c400370020072000fe00900017
:1093a800808f5000a700320070072000fe00900058
:1093b800808f50000500320010062000fe0090004b
:1093c800808f500034003200b70037003e00900014
:1093d8004010900040079800e800470012c0b30012
:1093e8003e0090009afe0700000f78001e00e00083
:1093f800f6003a00e800470013c0b3000041eb0054
:109408003e00900032f90700000f78001e00e000cf
:10941800ee003a00e800470072c7b3003e00900033
:10942800d0e60700000f78003e0090006010900022
:109438004400de00610060000004e0000400320027
:10944800f0c1b300a4f3b700f00f2000000f7800bc
:109458001e00e000dd003a00210020006011b80085
:109468003e0090003e080700000f78006e00900054
:109478000000e80090407800b0c2b30080cf5000f0
:10948800d2003a003e009000b00890000110a00001
:1094980031089800cd0037003e009000a0089000e9
:1094a80010089000e00f5000e08f58002e003200a6
:1094b8003e0090004010900040079800e8004700e8
:1094c80072c7b3003e009000a6e60700000f7800c0
:1094d8003e009000601090004400de0061006000d3
:1094e8000004e00004003200f0c1b300a4f3b700a8
:1094f800f00f2000000f78001e00e000b3003a00d3
:10950800210020006011b8003e00900014080700f8
:10951800000f78001e00e00003003200a0c1b30075
:10952800a4f3b700050037003e009000300190001a
:10953800c0019000e04421004e0907006e00900031
:109548000000e80090407800b0c2b30080cf50001f
:109558009e003a003e009000b00890000110a00064
:1095680031089800990037003e00900040109000a4
:1095780040079800e800470012c0b3003e00900082
:1095880033fe0700000f78001e00e0008f003a004d
:10959800e800470013c0b3000041eb003e00900014
:1095a800cbf80700000f78001e00e00087003a00a3
:1095b800e800470072c7b3003e00900069e6070064
:1095c800000f78003e009000601090004400de001c
:1095d800610060000004e00004003200f0c1b30044
:1095e800a4f3b700f00f2000000f78001e00e00081
:1095f80076003a00210020006011b8003e0090007b
:10960800d7070700000f78001e00e00002003200b4
:10961800a0c1b300a4f3b7006e0090000000e800fa
:1096280090407800b0c2b30080cf500067003a0085
:109638003e009000b00890000110a000310898008a
:10964800620037003e0090004010900040079800ec
:10965800e800470022c7b3003e00900041e607003b
:10966800000f78006e0090000000e800904078003d
:10967800b0c2b30080cf500054003a003e009000c2
:10968800601090004400de00610060000000e0000f
:109698004e003a003e009000b00890000100a00083
:1096a8003108980049003700f0c1b300a4f3b700af
:1096b800f00f2000000f780044003700213e210001
:1096c8003e009000e3000700ae40900070c7b30072
:1096d80080cf50000c003200ae40900070c5b3003f
:1096e80080cf500008003200ae40900010c6b30092
:1096f80080cf500004003200ae40900010c4b30088
:1097080080cf50002f003a000000eb00400798007f
:10971800e800470013c0b3000041eb003e00900092
:109728006bf80700000f78001e00e00027003a00e1
:10973800e800470072c7b3003e00900009e6070042
:10974800000f78003e009000601090004400de009a
:10975800610060000004e00004003200f0c1b300c2
:10976800a4f3b700f00f2000000f78001e00e000ff
:1097780016003a00210020006011b8003e00900059
:1097880077070700000f78001e00e0000200320093
:10979800a0c1b300a4f3b7006e0090000000e80079
:1097a80090407800b0c2b30080cf500007003a0064
:1097b8003e009000b00890000110a0003108980009
:1097c80002003700b0002000000f7800d61d070007
:1097d8000004e000050032003e019000b20890004d
:1097e800e0ff2f0000806000300998001e00e000b4
:1097f80008003200ae00900020392100808040002f
:1098080010c0b300804878000000eb0030079800d3
:10981800020037000040eb00a4f3b7003e009000c0
:10982800000f98000e0890000080fa000000060063
:109838000200fa00000f78000040eb00a4f3b70024
:109848001e00780080089000700090000080fa00e8
:10985800000006000600fa0010079800c03a210030
:10986800000f78000040eb00a4f3b700ae1d07001e
:109878000004e0000500320080c1b300a4f3b70083
:109888000080eb0020079800500037000041eb00f3
:109898009e0078001e009000f60407000004e00017
:1098a80005003a0020c1b300a4f3b7000080eb0024
:1098b80020079800450037009e007800e04421000a
:1098c800800878001e0178006000b8001001980038
:1098d800210198001e0178006000b800300198004e
:1098e800410198009e0078000000eb00c01098002d
:1098f8009e00780000022000e0109800d0a68000aa
:1099080080189000701090001e0178007011980067
:1099180001199800d0a68000a01890001018900097
:109928001e01780010199800211998009e007800ef
:10993800203e2100470007008041eb0012c0b30021
:10994800213e21001e0078009ae407000000e00094
:1099580005003200b0c0b300a4f3b7000080eb00ec
:1099680020079800190037001e007800601090004a
:109978004400de00610060000004e00005003200e1
:1099880030c1b300a4f3b7000080eb0020079800b3
:109998000e003700800220009e00400012c0b30075
:1099a8001e0078002afd07000000e00003003a00ce
:1099b8000000eb00200798000400370010c0b30037
:1099c800a4f3b7000080eb00200798002e00900059
:1099d8000080fa00000006000200fa00000f78007c
:1099e800d6d4bf000004e000010032004e03070097
:1099f8001e0178006000b800700198000109980005
:109a08009e0078000000eb00e00098009e007800bf
:109a18000000eb00d00098001e007800a000900025
:109a2800100090001e017800300198004101980054
:109a38000000eb0080a688000080fa000000060005
:109a48000000fa00a4d3bf000080fb000080fa00e9
:109a5800000006000c00fa00400798005107980023
:109a68004e009000200798005e00900010079800b4
:109a780060032000300798000000eb00000f78001a
:109a88000b0037001e007800800078002e00900040
:109a9800008140001e007800800078001e009000c1
:109aa8000080400010407800004978001e0fe80050
:109ab8003e0090009e0f1000f2ff35000080fa0073
:109ac800000006000800fa002007980031079800f7
:109ad8000000eb00000f78002e0090009000780046
:109ae800110798002e009000e6f907003e0190004b
:109af8000089be003e0090001000be00e00f50003c
:109b0800e08f580003003a0050012000000f780051
:109b18003f0037001e00900020609000e14f500089
:109b280010003a003e0090001001be008040eb009b
:109b380084ff2000050020001e009000ef090700a8
:109b48000001be00f0ff2f0001002000800f51002f
:109b5800818f590026003a0090002000000f7800fd
:109b6800230037001e00900020609000e24f500054
:109b780010003a003e0090001001be008040eb004b
:109b880084ff2f00050020001e009000db0907005d
:109b98000001be00f0ff2f0001002000800f5100df
:109ba800818f590012003a0090002000000f7800c1
:109bb8000f0037003e0090001001be008040eb000f
:109bc80084ff2f00f5ff20001e009000cb0907003e
:109bd8000001be00f0ff2f00f1ff2000800f5100b0
:109be800818f590002003a0090002000000f780091
:109bf8001e00e00006003a003e0090001001be0082
:109c08001e009000050007000080fb00000f780090
:109c18001e0078000080fa00000006001000fa001c
:109c28004007980052079800630798000040eb002f
:109c3800004f78005e019000ee0190004e00900009
:109c48008e0007001007980021079800d6d4bf009f
:109c58000004e00006003200b30207000004e00040
:109c6800030032009000200070079800430037007e
:109c78000000eb0080a68800d8d4bf000004e000f4
:109c880019003a00ce009000015890000082fb00b5
:109c9800115890000080fb004800dd0004007000af
:109ca80000017800215890000082fb003158900094
:109cb8000080fb004800dd0004007000800178008f
:109cc8004e0090009080fb00104090000080fb0048
:109cd8004800dd00010070008000eb00bddb0700dc
:109ce80010c0b300d8f4b7000040eb0060479800fc
:109cf800190037004e0090009080fb001040900043
:109d08000080fb004800dd000100700000017800c1
:109d18001e029000ae0290001e009000ae0090005f
:109d280061004000e0804800100798002107980073
:109d38008041eb000400be004d1c0700e14f5000bd
:109d48000200320090c0b300004f78006e409000cf
:109d58000040e800604798004e0090009060900036
:109d68006e40900080cf5000020036001e04e000d4
:109d7800e0ff32001e80fb00700798007e00900014
:109d88000080fa00000006000400fa00000f7800c6
:109d9800110798001e0090001e0040001040780037
:109da8000080fb000080fa00000006000800fa00ae
:109db8002007980031079800be0090002e00900000
:109dc800008040009040780031479800be00900025
:109dd8002e009000008040000000e80090407800cd
:109de800214798002e4090000080fb00000f78006b
:109df8001e0078004800dd00000f78003e4090000b
:109e08000080fb001e0f70001e0078000080fa0022
:109e1800000006000c00fa0040079800510798005f
:109e2800de0090004e009000e0ff07003007980029
:109e38005e0090008080e8004e009000dbff070085
:109e4800200798002e00900001002000008fbe001f
:109e58001e00be00c000dd0000002000008fbe0014
:109e68003e009000010020001e1f70001e97700029
:109e78001e00be000080fa00000006000a00fa007a
:109e8800889fbe0020079800320798004307980073
:109e98002e009000206090000080fb00e30f50002f
:109ea80001003200230037003e009000ce009000f1
:109eb80062035000e08358002e009000106090006c
:109ec8000082fb000500200086007800040078006e
:109ed800000cb80005b0b900090178000001410084
:109ee80007a0b9000001410082047800ae0090008c
:109ef800614890000082fb00714890000080fb00e0
:109f08004800dd0004007000000178000150900056
:109f18000082fb00115090000080fb004800dd002b
:109f28000400700080017800021f440003974c0071
:109f3800420037003e009000ce009000e00f500035
:109f4800e08f5800070032003e019000ce019000db
:109f58001000200001002000800f5100818f59005f
:109f680014003a00ae009000214890000082fb00e7
:109f7800314890000080fb004800dd0004007000bc
:109f880000017800414890000082fb005148900091
:109f98000080fb004800dd000400700080017800ac
:109fa8003e009000ce009000001f4100019749003c
:109fb800220037003e009000ce009000620350005f
:109fc800e08358002e009000106090000082fb0093
:109fd800050020008600780004007800000cb80016
:109fe80005b0b900090178000001410007a0b900d7
:109ff8000001410082047800ae00900061489000a2
:10a008000082fb00714890000080fb004800dd00e2
:10a018000400700000017800015090000082fb00ed
:10a02800115090000080fb004800dd000400700023
:10a0380080017800021f440003974c001e00be00f8
:10a048004f04be000080fa00000006000a00fa0073
:10a0580020079800614798000040eb00a4f3b70080
:10a068006e4090008080fb0080fd2f000080600023
:10a078000000e00005003200f0c1b300a4f3b7000f
:10a088000080eb00400798003c0037002e0090004d
:10a0980040109000100798002e0090008018900043
:10a0a800701090002e019000101998002119980046
:10a0b8008e80e8002e00900022fb0700000f780039
:10a0c8001e00e00005003a00b0c1b300a4f3b700d9
:10a0d8000080eb0040079800280037001e00780039
:10a0e800304890000080fb004300de006100600003
:10a0f8000004e00005003200f0c1b300a4f3b7008b
:10a108000080eb00400798001c0037002e009000ec
:10a11800601090004400de00610060000004e00070
:10a12800060032006e4090000044a0008080fb00d2
:10a138002e00900061109800040037006e409000d7
:10a148008080fb002e009000611098008e80e8004f
:10a158002e009000c1f307000004e00005003a005b
:10a1680090c0b300a4f3b7000080eb00400798004c
:10a17800020037000000eb00400798004e009000f6
:10a188000080fa00000006002600fa00600f980020
:10a19800710f98000217980013179800fe08900096
:10a1a8000e1090000088b90001002000400f9800b0
:10a1b800510f98006e089000300f98000000eb00d7
:10a1c800100f98000000eb00100798001e10900078
:10a1d80030089000610060000000e00007003a00cd
:10a1e800d0c1b300a4f3b70090002000100f98006e
:10a1f8008000eb0021179800480137004e089000b6
:10a20800de089000e00f5000e08f580003003a008d
:10a218000001eb002217980040013700421b07009d
:10a228000004e0000700320080c1b300a4f3b700c7
:10a2380080012000100f98008001eb002317980080
:10a24800360137000040eb00d8f4b7001e1090002c
:10a2580090007800210f98001e1090006001900077
:10a26800020f98001e109000700190008009900065
:10a2780042079800530798001e1090003001900084
:10a28800c00190002e089000fcfe070060079800af
:10a29800710798001e109000500090006101b800ee
:10a2a8006e009000fe00900000004100818049008f
:10a2b800600798007107980081a680001e10900022
:10a2c800808f50000d003200d6d4bf000004e0009b
:10a2d80008003200140107000004e0000500320005
:10a2e80090c0b300a4f3b7008001eb0023179800d7
:10a2f8000a0137001e10900080a6880092a68000f0
:10a30800a3a680006e009000fe009000800f510010
:10a31800818f590021003200d6d4bf000004e0002c
:10a3280008003200000107000004e00005003200c8
:10a3380090c0b300a4f3b7008000eb002117980089
:10a34800f60037000040eb00d8f4b7002e08900064
:10a358009080fb00104090000080fb004800dd006a
:10a3680001007000000178006e009000fe0090006f
:10a37800511807000004e00004003a00b0c1b3001f
:10a38800a4f3b70080002000100f98006e01900021
:10a39800fe01900092a68800a3a688001e109000d7
:10a3a80010099000a0099000220798003307980030
:10a3b800c00037004e019000de0190002e00900092
:10a3c800be009000800f5100818f590004003a00b0
:10a3d8001e109000b00890000120a00031089800dd
:10a3e8000e0890006103b800ae0890000158900074
:10a3f8000082fb00115890000080fb004800dd003f
:10a408000400700000017800215890000082fb00d1
:10a41800315890000080fb004800dd000400700007
:10a4280080017800820f5300838f5b0070003a0030
:10a4380010c0b300004f7800d6d4bf000004e0007d
:10a4480008003200b80007000004e00005003200f0
:10a4580090c0b300a4f3b7008001eb002317980065
:10a46800ae0037000000eb00000f98001e109000af
:10a47800500090008000e8001e10900051009800e5
:10a488001e109000d00090002e08900010609000e0
:10a498000080fb00808f500016003a009e1090004c
:10a4a8000000eb00d00098001e10900030089000cb
:10a4b800640060000000e000080032008040eb000b
:10a4c8001e1090001bf707000080fb00100f98007b
:10a4d8000040eb00004f7800060037001200200013
:10a4e800030020001e10900040e307000080fb00de
:10a4f800100f98001e089000f50f500005003a0054
:10a5080050c1b300a4f3b7000000eb002017980077
:10a51800820037001e0890000000e00034003a0076
:10a528001e10900030019000c00190002e0890008d
:10a5380052fe070060079800710798001e109000ef
:10a54800500090006101b8006e009000fe0090007d
:10a558000000410081804900600798007107980059
:10a568009e10900081a688001e04e0001c003200a6
:10a578002e0890009080fb00104090000080fb00a7
:10a588004800dd0001007000000178006e009000b6
:10a59800fe009000c81707000004e0000b003a0016
:10a5a800b0c1b300a4f3b70080002000100f9800da
:10a5b8000080eb008080eb0090a68800a1a68800b0
:10a5c8000001eb0022179800540037006e0090003d
:10a5d800fe00900090a68800a1a68800040037001d
:10a5e8006e019000fe01900092a68800a3a6880044
:10a5f8001e0890000000e0002e003a002e0890008f
:10a608009080fb00104090000080fb004800dd00b7
:10a6180001007000800078000e08900080804000e3
:10a628003e08900010407800804878000e0890009e
:10a638000000e800000f98003e0890000000e800c5
:10a64800300f98004e009000de009000610040003e
:10a65800e080480040079800510798004e08900095
:10a66800de08900061005000e0805800400f98001c
:10a67800510f98001e0090000000e8001007980095
:10a688001e10900030089000640060000000e00098
:10a69800060032002e009000be00900061004000cd
:10a6a800e0804800200798003107980010c0b300e8
:10a6b800d6f4b7001e0890000000e00005003a003c
:10a6c8004e089000de089000e00f5000e08f580020
:10a6d80038ff3a001e1090008e0990006300980021
:10a6e8001e1090004e019000de019000720098004c
:10a6f800030898001e1090002e019000be019000e3
:10a7080012089800230898001e0090007e09900007
:10a71800110009000280d800201798002e10900020
:10a728000080fa00000006000a00fa0080a68000f7
:10a73800000f78001e00780090007800110798003c
:10a748001e00780030019000c00190001e009000ab
:10a75800cafd070020079800310798001e007800fe
:10a76800500090006101b8002e009000be009000db
:10a7780000004100818049002007980031079800b7
:10a788001e0090009080fb00104090000080fb00ad
:10a798004800dd0001007000000178008041eb00f6
:10a7a8002e009000be009000b11907000004e000e0
:10a7b80003003a009000200040079800040037008a
:10a7c8000040eb00d6f4b7008000eb00410798008a
:10a7d8004e0090000080fa00000006000400fa0015
:10a7e800000f78000040eb00a4f3b7001e007800cb
:10a7f80070019000800990001e007800a008900069
:10a80800100890000002eb0014079800800f510018
:10a81800818f590002003a001000200010079800ac
:10a828001e0090000080fa00000006002000fa00d8
:10a83800300f9800410f9800520f9800630f98004e
:10a84800ce0890005e0890000088b9000100200042
:10a85800100f9800210f98003e089000000f9800f4
:10a868000000eb00100798000000eb00000f7800d4
:10a878000040eb00a4f3b7006e0890009000780049
:10a88800710798006e0890006001900022079800f8
:10a898006e0890007001900080099000520798009f
:10a8a800630798006e08900030089000620060000e
:10a8b8000000e00005003a00e0c1b300a4f3b700cf
:10a8c8008001eb00730f9800e7003700d6d4bf0073
:10a8d8000004e0000800320093ff07000004e000d5
:10a8e8000500320090c0b300a4f3b7000000eb00ed
:10a8f800700f9800dc00370081a680006e08900079
:10a90800808f5000c60032002e0090006103b8000e
:10a91800fe009000015890000082fb001158900042
:10a928000080fb004800dd00040070000001780092
:10a93800215890000082fb00315890000080fb00f5
:10a948004800dd000400700080017800820f530089
:10a95800838f5b00b2003200ee08900081a6880069
:10a968006e08900030019000c00190007e009000b9
:10a9780042fd070030079800410798006e089000d4
:10a98800500090006101b8003e009000ce00900099
:10a998000000410081804900300798004107980075
:10a9a8000040eb00d8f4b7007e0090009080fb00d8
:10a9b800104090000080fb004800dd00010070009e
:10a9c800000178003e009000ce009000ba16070003
:10a9d8000004e00007003a0080c0b300a4f3b70009
:10a9e80080002000100798000001eb00720f98000b
:10a9f8009d0037003e009000ce00900090a6880091
:10aa0800a1a68800860037006e0890001009900003
:10aa1800a00990005e009000ee009000800f5100a9
:10aa2800818f590005003a00d0c3b300a4f3b700e2
:10aa3800d0032000100798007e0037002e009000f9
:10aa48006103b800fe009000015890000082fb00ee
:10aa5800115890000080fb004800dd0004007000e1
:10aa680000017800215890000082fb0031589000c6
:10aa78000080fb004800dd000400700080017800c1
:10aa8800820f5300838f5b0046003a000000eb0002
:10aa9800200798006e089000500090008000e800a1
:10aaa8006e089000510098006e089000d000900049
:10aab8007e009000106090000080fb00808f5000a6
:10aac8000f003a00ee0890000000eb00d00098005c
:10aad80012002000030020006e089000c3e1070068
:10aae8000080fb00100798001e0090000000e000a6
:10aaf80003003200f0c0b300a4f3b7004d003700e4
:10ab08006e08900030019000c00190007e00900017
:10ab1800dafc070030079800410798006e0890009b
:10ab2800500090006101b8003e009000ce009000f7
:10ab380000004100818049003007980041079800d3
:10ab4800ee08900081a688000040eb00d8f4b7001a
:10ab58007e0090009080fb00104090000080fb0079
:10ab68004800dd0001007000000178003e00900000
:10ab7800ce009000501607000004e00005003a00df
:10ab880080c0b300a4f3b70080002000100798002d
:10ab9800280037003e019000ce01900092a6880060
:10aba800a3a688007e0090009080fb0010409000d3
:10abb8000080fb004800dd00010070008000780084
:10abc8002e00900000804000904078000e08900011
:10abd800014878002e0090000000e8002007980047
:10abe8000e0890000000e800000f98005e0090003a
:10abf800ee00900061004000e08048005007980097
:10ac0800610798001e0fe8001e089000ae0890002b
:10ac180061005000e0805800100f9800210f980044
:10ac28001e089000ae089000e00f5000e08f58001a
:10ac380075ff3a006e089000ae019000630098001e
:10ac48006e0890005e019000ee019000720098007e
:10ac5800030898001e0078004e09900011000900b2
:10ac68000280d800700f98007e0890000080fa00db
:10ac7800000006003400fa00601798007117980069
:10ac8800027798000040eb00204798000000eb0096
:10ac9800000f7800c0002000500798006e10900048
:10aca800bed70700a0a38800de009000a0a3800004
:10acb800808f5000090039006e1090009040780095
:10acc800e0c2b30080cf5000040032006e10900044
:10acd800104078000004e00003003a000000eb0098
:10ace800101f9800e80037007200470090a3880002
:10acf8000000eb00500798000c00370091a380007b
:10ad08005e009000008140005e00900080007800a6
:10ad18006e109000008040001040780000497800d4
:10ad28005e0090000000e80050079800de009000e8
:10ad3800a0a38000808f5000f0ff39000e709000b3
:10ad48008c010700700798007e009000e70f500004
:10ad580003003a000000eb00101f9800ca003700fb
:10ad6800a0a38000600798007e009000e60f5000c6
:10ad7800ba0032002e4090000004e000b7003a000c
:10ad88000000eb00300798001c00370091a38000fa
:10ad98003e0090000080400090407800e0c2b30080
:10ada80080cf500005003a006e009000be00900071
:10adb80001005000e40f500003003c003e009000ea
:10adc800e80f5000030034000000eb00101f98004b
:10add800ad00370091a380003e0090000080400045
:10ade80090407800e0c2b30080cf500007003200e6
:10adf8003e0090000000e80030079800be00900078
:10ae08006e009000808f5000e0ff35002e409000cb
:10ae18000004e00091003a007e1090007c004000a1
:10ae2800000f98000000eb00500798000900370059
:10ae38005e009000800078000e089000808040003e
:10ae480000c2b300804878005e0090000000e8006f
:10ae5800500798005e009000ea0f5000f4ff34009d
:10ae68003e0090002007980090a38000000f780013
:10ae78000000eb00500798000000eb004007980026
:10ae88002f0037005e0090001e0040001040780040
:10ae98000004e000270032004e0090008000780097
:10aea8000e089000808040005e0090001e00400068
:10aeb80010407800804878004e00900080007800ac
:10aec8000e089000008040009040780000c6b30053
:10aed80080cf5000140034004e00900080007800ad
:10aee8000e0890000080400090407800a0c7b30092
:10aef80080cf50000c003c004e009000800078008d
:10af08000e089000008140004e00900080007800fc
:10af18000e089000008040009040780000ceb300fa
:10af280000c04000004978004e0090000000e80092
:10af3800400798005e0090000000e8005007980065
:10af48004e009000e70f500004003c00de00900027
:10af58002e009000808f5000caff3500ae00900090
:10af68006e009000808f50003c003d002e00900045
:10af78000000e800200798008000200030079800b3
:10af88002f0037002e0090001e004000104078006f
:10af98000004e000270032003e00900080007800a6
:10afa8000e089000808040002e0090001e00400097
:10afb80010407800804878003e00900080007800bb
:10afc8000e089000008040009040780000c6b30052
:10afd80080cf5000140034003e00900080007800bc
:10afe8000e0890000080400090407800a0c7b30091
:10aff80080cf50000c003c003e009000800078009c
:10b008000e089000008140003e009000800078000b
:10b018000e089000008040009040780000ceb300f9
:10b0280000c04000004978003e0090000000e800a1
:10b03800300798002e0090000000e80020079800d4
:10b048003e009000ea0f500004003c00ae00900063
:10b058006e009000808f5000caff35007e0090007f
:10b06800e60f5000030032002e409000e14f5000e0
:10b0780003003a000000eb00101f980002003700a0
:10b0880010002000101f98001e1890000080fa0081
:10b09800000006002000fa00400f9800510f9800a9
:10b0a800425f98000040eb0020479800c000200055
:10b0b800300798004e08900090a388004e08900032
:10b0c800b6d60700a0a38800be009000a0a3800009
:10b0d800808f5000030031000000eb00700f9800d3
:10b0e800a10037004e589000a200070050079800b2
:10b0f8005e009000e70f500003003a000000eb00ec
:10b10800700f980098003700a0a3800040079800af
:10b118005e009000e60f5000030032002e409000c1
:10b12800e14f500003003a000000eb00700f980058
:10b138008d0037000000eb00300798000b00370047
:10b148003e01900091a380003e00900000804000e6
:10b15800904078006c0047000000410001487800ea
:10b168003e0090000000e800300798003e00900084
:10b17800e70f50000d003c0091a380003e009000b6
:10b188000080400090407800e0c2b30080cf5000bb
:10b198000600320091a380003e009000008040002d
:10b1a800104078000004e000e5ff3a003e009000ff
:10b1b8002007980008003700be0090006c00470088
:10b1c8008080400000c2b300804878003e009000b4
:10b1d8000000e800300798003e009000e70f50009c
:10b1e800f5ff340091a380002e00900000804000fd
:10b1f80090407800e0c2b30080cf500025003a00ac
:10b208002e0090000000e800200798000f0037008b
:10b218003e0190002e0090008000780090a38000ee
:10b2280000804000904078006c004700000041001a
:10b23800014878003e0090000000e80030079800c0
:10b248002e0090000000e8002007980091a38000dd
:10b258002e00900000804000104078000004e000bc
:10b268000c0032003e009000ea0f5000e8ff340066
:10b2780008003700be0090006c0047008080400046
:10b2880000c2b300804878003e0090000000e8004b
:10b29800300798003e009000ea0f5000f5ff340098
:10b2a8006c0047009040780000c2b30080cf500087
:10b2b80003003a00ec004700f0c5b300804878006e
:10b2c8005e0890007c0f40000000eb0030079800fb
:10b2d800200037003e0090001e014000be00900094
:10b2e8006c0047000080400010407800004978005a
:10b2f800be0090006c00470000804000904078003d
:10b3080000c6b30080cf50000f003400be0090008c
:10b318006c0047000080400090407800a0c7b30050
:10b3280080cf500008003c003e0090001e01400005
:10b338003e0090001e0040009040780000ceb30010
:10b3480000c04000004978003e0090000000e8007e
:10b35800300798003e009000ea0f5000ddff3400ef
:10b3680010002000700f98007e0890000080fa00fe
:10b37800000006000a00fa00604798000040eb0051
:10b3880010479800a0a38000ec0f5000030036007f
:10b398006000200020079800020037000000eb0042
:10b3a800200798000000eb001007980063003700a2
:10b3b80091a380001e00900000804000104078009b
:10b3c800004f7800f0c1b3009e4f100003003e000c
:10b3d80050c0b3009e4f100015003a0020c2b300c1
:10b3e8009e4f100012003200f0c2b3009e4f1000b2
:10b3f8000f003200a0c3b3009e4f10000c003200b3
:10b40800c0c3b3009e4f100009003200e0c3b30070
:10b418009e4f100006003200c0c5b3009e4f1000ba
:10b4280003003200c0c7b3009e4f100003003a006b
:10b438007000200040079800460037006e409000da
:10b448000004e00009003a00a0c2b3009e4f1000bb
:10b4580003003200f0c3b3009e4f100003003a000f
:10b4680070002000400798003a0037002e00900036
:10b47800e60f50002e00320000c2b3009e4f1000ad
:10b4880018003200b0c2b3009e4f10001500320001
:10b49800c0c2b3009e4f100012003200b0c3b30008
:10b4a8009e4f10000f003200d0c3b3009e4f100013
:10b4b8000c003200b0c5b3009e4f100009003200e6
:10b4c800d0c5b3009e4f100006003200e0c2b300a2
:10b4d8009e4f100006003a001e409000e14f5000b9
:10b4e80003003a0060002000200798001000370091
:10b4f800e0c2b3009e4f100002003a0010c0b30033
:10b50800104798002e009000e10f5000080032000c
:10b5180000c6b3009e4f100005003600a0c7b30058
:10b528009e4f100002003e001000200020079800e7
:10b538001e0090000000e80010079800a1a38000fa
:10b548001e009000810f500099ff39002e009000d6
:10b55800400798004e0090000080fa0000000600a6
:10b568001c00fa00889fbe00000f9800120f980078
:10b57800230f9800310f98001e089000ae08900025
:10b58800008fbe000e0890009000780031079800e8
:10b598003e099000520f9800de099000e18f51009b
:10b5a800040032005e089000e20f500009003200eb
:10b5b8000f0037000e08900070019000800990007d
:10b5c8001e00be000200400083804800008fbe00bd
:10b5d800070037000e08900010099000a00990009d
:10b5e8001e00be000000510081805900008fbe007f
:10b5f800d6d4bf000004e000080032004afc07006f
:10b608000004e0000500320090c0b300a4f3b700c6
:10b618008080eb00410f9800120137000e0890005f
:10b6280010019000a001900042079800530798006d
:10b638000e0890004e019000de0190003200980044
:10b64800430098000e08900010099000a00990008f
:10b6580042079800530798001e01be004e00900054
:10b66800de009000800f5100818f590005003600e0
:10b67800f0c1b300a4f3b7008081eb00430f98003a
:10b68800f80037000e099000b2089000b0ff2f00b4
:10b6980000806000300998001e00be000e0990006e
:10b6a80070019800010998001e03be00be009000ba
:10b6b800015890000082fb00115890000080fb00a8
:10b6c8004800dd0004007000000178002158900057
:10b6d8000082fb00315890000080fb004800dd002c
:10b6e80004007000800178000600be00dfd3070068
:10b6f80060079800710798001e04be00be00900005
:10b70800015890000081fb00115890000080fb0058
:10b718004800dd0002007000000278002158900007
:10b728000081fb00315890000080fb004800dd00dc
:10b738000200700080027800840078006e0090009b
:10b74800000bb8007e00900000a0b9000701780047
:10b75800000141006e0090000580b9000001410021
:10b76800820378000600540087805c00008fbe00ca
:10b778009e0078000e089000610098003e0090003e
:10b78800106090000081fb00030020006e00900014
:10b79800fe009000b5d307004007980051079800b5
:10b7a8003e009000106090000082fb000500200021
:10b7b800840078004e009000000bb8005e009000f6
:10b7c80000a0b90007017800000141004e00900078
:10b7d8000580b90000014100820378006e009000e6
:10b7e800fe0090000600500087805800600798000f
:10b7f80071079800ee0090000e0890005100980024
:10b808004e009000de009000e00f5000e08f5800de
:10b81800630032004e019000de0190000e08900097
:10b8280072de0700404798004e4090000004e00098
:10b838005b003200ce409000c0c3b30080cf500000
:10b8480052003a000e089000300890006100600035
:10b858000000e0001e0032000e089000a0009000da
:10b86800100090000e0990003001980041019800e6
:10b878004e019000de019000100020000100200021
:10b88800800f5100818f5900070032004e00900050
:10b89800de00900061015000e08158000e08900021
:10b8a80052de0700404798008040eb000e089000e9
:10b8b80020f207000004e00039003200f0c0b300b5
:10b8c800a4f3b7000080eb00400f98006500370034
:10b8d8000e089000a0009000100090000e09900043
:10b8e80030019800410198004e009000de00900061
:10b8f80061015000e08158000e0890003bde07000f
:10b90800404798004e4090000004e00005003200d7
:10b91800f0c0b300a4f3b7008080eb00410f98009b
:10b9280050003700be009000015890000082fb00d4
:10b93800115890000080fb004800dd0004007000f2
:10b9480000017800215890000082fb0031589000d7
:10b958000080fb004800dd000400700080017800d2
:10b96800820078000e089000610098003e00900068
:10b97800106090000080fb000000e9008000780063
:10b988000e0890005100980005003700f0c0b30081
:10b99800a4f3b7000081eb00420f98003100370094
:10b9a8000e08900030019000c00190003e00900009
:10b9b80032f9070040079800510798000e089000d8
:10b9c800500090000100200060079800710798005f
:10b9d8004e019000de0190006e009000fe00900085
:10b9e80002004000838048004007980051079800f3
:10b9f8000000eb0080a688000040eb00d8f4b700f8
:10ba08003e0090009080fb00104090000080fb00fa
:10ba18004800dd0001007000000178004e00900031
:10ba2800de009000a41207000004e00005003a00c0
:10ba3800b0c1b300a4f3b7008081eb00430f9800b6
:10ba4800080037004e009000de00900090a68800a5
:10ba5800a1a688000040eb00a4f3b7008000eb002b
:10ba6800410f98004e0890004f04be000080fa0075
:10ba7800000006003200fa00889fbe00500f9800b0
:10ba8800620f9800730f98006000b8006007980074
:10ba9800710798000040eb00d8f4b7005e089000ea
:10baa800206090000080fb00201798002e10900066
:10bab800e10f500016003200ae109000e38f5000e6
:10bac80001003200300037006e089000fe08900038
:10bad8004209dd00ce00de00810071004200dd0079
:10bae800200f9800310f98000040eb00005f98008d
:10baf800f0ff2f00f1ff2000200798003107980081
:10bb080080ff2f00f1ff2000008fbe002d003700be
:10bb1800ee08900030002000000ab8006e0890007f
:10bb28006000b90005017800000141007e0890001e
:10bb38006300b9000001410082027800240f9800d8
:10bb4800350f98002e08900061406000005f980053
:10bb58002e089000be0890008100d1000080d3001c
:10bb6800200f9800310f9800f0ff2f0001002000ef
:10bb7800200798003107980080ff2000010020006e
:10bb8800008fbe000f0037006e089000fe0890007e
:10bb98000000400081804800200f9800310f980075
:10bba8000040eb00005f9800f0ff2f00010020002c
:10bbb800200798003107980080ff2f00010020001f
:10bbc800008fbe00de089000614090000081fb00fd
:10bbd800714090000080fb004800dd00020070000a
:10bbe80000047800014890000081fb001148900093
:10bbf8000080fb004800dd0002007000800478002f
:10bc0800de089000015890000082fb001158900057
:10bc18000080fb004800dd0004007000000178008f
:10bc2800215890000082fb00315890000080fb00f2
:10bc38004800dd0004007000800178002e089000a4
:10bc4800be08900089d2070008004000898048009b
:10bc5800000f9800110f9800de089000015890001e
:10bc68000082fb00115890000080fb004800dd00b6
:10bc78000400700000017800215890000082fb0049
:10bc8800315890000080fb004800dd00040070007f
:10bc98008001780061015100e08159002e08900070
:10bca800be08900000027800810278000200780047
:10bcb8008300780000016200018062006102b80020
:10bcc80034179800451798003e109000ce10900049
:10bcd800c000dd00000020003017980041179800d0
:10bce8003e109000ce1090006112b80034179800f2
:10bcf800451798003e119000ce1190000200700088
:10bd080083807000200f9800310f980052a68000a1
:10bd180063a680000e0890009e089000800f5100d6
:10bd2800818f5900b7003a005e08900020609000ab
:10bd3800e34f500008003a002e0890008000780079
:10bd4800000f2100008040001002be006407980028
:10bd580075079800580137005e0890002060900031
:10bd6800e24f500009003a002e0890008000780049
:10bd7800000f210000804000100078000100200022
:10bd880060079800710798004b0137005e08900023
:10bd980020609000e14f500047013a002e089000c3
:10bda80080007800000f21000080400010407800db
:10bdb8000080fb00010020006007980071079800d0
:10bdc8000e5890000004e000080032006e00900059
:10bdd800fe009000cc0add004400de000080720006
:10bde800c408de0060079800710798002e089000cc
:10bdf800be08900061034000e0834800de08900020
:10be0800015890000082fb00115890000080fb0050
:10be18004800dd00040070000001780021589000ff
:10be28000082fb00315890000080fb004800dd00d4
:10be3800040070008001780061005100e080590022
:10be48008601780007027800000178000100780078
:10be580002816100000062006102b8005417980076
:10be6800651798005e109000ee109000c000dd008d
:10be78000000200050179800611798005e1090008d
:10be8800ee1090006112b8005417980065179800da
:10be98005e119000ee119000020070008380700027
:10bea800200f9800310f98002e089000be089000cf
:10beb800e00f5000e08f580027003a00ced4bf00b2
:10bec8000004e0000d00320011c0b3006022b80089
:10bed8006011b8005e08900008010700e00f5000ec
:10bee800e08f5800050032002e029000be0290003c
:10bef8000417980015179800fb0037000e089000eb
:10bf08009e08900061004000e0804800020f210078
:10bf1800691107000004e00009003a00f0ff2f0053
:10bf28000100200050a6880061a688002e0090001d
:10bf3800be0090000017980011179800ea0037001b
:10bf48000e0890009e08900061004000e0804800c4
:10bf580050a6880061a688002e089000800078000e
:10bf6800000f210000804000104078000080fb0096
:10bf78000100200040079800510798000e589000d3
:10bf88000004e0000d0032004e009000de0090003a
:10bf98004409dd00cc01de00830171004401dd00ad
:10bfa8006e009000fe009000000041008180490072
:10bfb8006007980071079800bf0037004e00900096
:10bfc800de0090006f0160006000b80003002000f0
:10bfd80002007000838070004809dd00c801de009f
:10bfe800830171004801dd006e009000fe009000a2
:10bff800000041008180490060079800710798009f
:10c00800ad003700ced4bf000004e0000d003200c0
:10c0180011c0b3006022b8006011b8005e0890003b
:10c02800b6000700e00f5000e08f5800050032000e
:10c038002e019000be019000021798001317980077
:10c04800a9003700020f21000e0890009e089000fa
:10c05800191107000004e00009003a00f0ff2f0062
:10c068000100200050a6880061a688002e029000da
:10c07800be02900004179800151798009a00370020
:10c088000e0890009e08900050a6880061a68800bf
:10c098005e08900020609000e34f500008003a00ce
:10c0a8002e08900080007800000f210000804000da
:10c0b8001001be0062079800730798007e003700e1
:10c0c8005e08900020609000e24f500009003a009e
:10c0d8002e08900080007800000f210000804000aa
:10c0e8001000780001002000600798007107980090
:10c0f800710037005e08900020609000e14f50000a
:10c108006d003a002e08900080007800000f210092
:10c1180000804000104078000080fb0001002000f3
:10c1280060079800710798000e5890000004e0001e
:10c13800080032006e009000fe009000cc09dd007f
:10c148004400de0000807100c408de00600798002b
:10c15800710798002e089000be0890006103400007
:10c16800e0834800de089000015890000082fb0040
:10c17800115890000080fb004800dd0004007000aa
:10c1880000017800215890000082fb00315890008f
:10c198000080fb004800dd0004007000800178008a
:10c1a80061005100e080590086017800070278009c
:10c1b800000178000100780002816100000062003f
:10c1c8006102b80074179800051f98007e1090004f
:10c1d8008e189000c000dd00000020007017980045
:10c1e800011f98007e1090008e1890006112b80010
:10c1f80074179800051f98007e1190008e19900002
:10c208000200700083807000200f9800310f9800a2
:10c218002e08900080007800000f21000080400068
:10c22800104078000080fb000100200040079800c3
:10c23800510798000e5890000004e0000d003200ed
:10c248004e009000de0090004409dd00cc01de00c5
:10c25800830171004401dd006e009000fe00900033
:10c26800000041008180490060079800710798002c
:10c27800110037004e009000de0090006f01600052
:10c288006000b80003002000020070008380700086
:10c298004809dd00c801de00830171004801dd00a6
:10c2a8006e009000fe00900000004100818049006f
:10c2b80060079800710798006e009000fe009000db
:10c2c800be0f5000ae8f5800030039001e02be009a
:10c2d80064079800750798006e009000fe009000b3
:10c2e80000179800111798000e1090009e109000eb
:10c2f8004f04be000080fa00000006003e00fa006d
:10c30800889fbe00200f9800320f9800430f9800b6
:10c31800540f9800650f9800615f98002e089000f0
:10c3280020609000e34f50000d0032002e0890006e
:10c3380020609000e24f5000090032002e08900063
:10c3480020609000e14f500005003200f0ff2f0000
:10c35800f1ff200010179800211798005c023700a1
:10c368002e089000206090000080fb00e30f500032
:10c378000100320004003700f0ff2f00f1ff200019
:10c38800008fbe0003003700f0ff2f0001002000df
:10c39800008fbe000040eb00d8f4b7006e58900044
:10c3a8000004e000350032000040eb002057980000
:10c3b80052a6800063a680004207980053079800a1
:10c3c800230037008041eb00020f21004e0090004f
:10c3d800de009000a61207000004e00004003a0006
:10c3e8001e02be001417980025179800380237005f
:10c3f8002e5090000040e80020579800ae089000aa
:10c40800415890000082fb00515890000080fb00ca
:10c418004800dd00040070000001780061589000b9
:10c428000082fb00715890000080fb004800dd008e
:10c4380004007000800178004e009000de0090003b
:10c44800000041008180490040079800510798008a
:10c458002e089000806090002e50900080cf5000f1
:10c46800d8ff3e000040eb00cef4b7006000b800f3
:10c478001017980021179800150237002e08900011
:10c48800206090000080fb00001798008e1090003c
:10c49800e18f50000f0032000e119000e30f5100a1
:10c4a80001003200220037003e089000ce089000bc
:10c4b800c209dd00ce00de00818071004200dd008f
:10c4c80060079800710798000040eb00105798002b
:10c4d8001f003700be08900030002000000ab80096
:10c4e8003e0890006000b900050178000001410095
:10c4f8004e0890006300b9000001410082027800f4
:10c5080064079800750798006e009000614060000d
:10c51800105798006e009000fe0090008100d10036
:10c528000080d30060079800710798000800370062
:10c538003e089000ce08900000004000818048002e
:10c5480060079800710798000040eb0010579800aa
:10c55800ae089000614090000081fb00714090009f
:10c568000080fb004800dd00020070000004780035
:10c57800014890000081fb00114890000080fb00fa
:10c588004800dd000200700080047800ae089000ca
:10c59800015890000082fb00115890000080fb00b9
:10c5a8004800dd0004007000000178002158900068
:10c5b8000082fb00315890000080fb004800dd003d
:10c5c80004007000800178006e009000fe0090006a
:10c5d80026d00700080040008980480020079800fe
:10c5e80031079800ae089000015890000082fb00c7
:10c5f800115890000080fb004800dd000400700026
:10c6080000017800215890000082fb00315890000a
:10c618000080fb004800dd00040070008001780005
:10c6280061015100e08159006e009000fe00900009
:10c638000002780081027800020078008300780008
:10c6480000016200018062006102b800341798009e
:10c65800451798003e109000ce109000c000dd00f5
:10c668000000200030179800411798003e109000f5
:10c67800ce1090006112b800341798004517980042
:10c688003e119000ce11900002007000838070006f
:10c69800600798007107980052a6800063a6800082
:10c6a8002e009000be009000800f5100818f59002d
:10c6b80046003200ced4bf000004e0003100320052
:10c6c8000040eb002057980054a6800065a6800023
:10c6d8004407980055079800230037008041eb0075
:10c6e800020f21004e009000de009000e0110700cc
:10c6f8000004e00004003a001e00be001017980075
:10c7080021179800720137002e5090000040e80071
:10c7180020579800ae089000415890000082fb0016
:10c72800515890000080fb004800dd0004007000b4
:10c7380000017800615890000082fb007158900059
:10c748000080fb004800dd000400700080017800d4
:10c758004e009000de0090000000410081804900fa
:10c7680040079800510798002e08900080609000bc
:10c778002e50900080cf5000d8ff3e000040eb00c4
:10c78800cef4b700020f21002e009000be009000ea
:10c79800490f07000004e00008003a00f0ff2f00ee
:10c7a8000100200050a6880061a688001e01be0076
:10c7b8001217980023179800450137002e029000a1
:10c7c800be02900054a6880065a688002e08900036
:10c7d80020609000e34f500072003a006e00900015
:10c7e80080007800000f2100808040005e089000e3
:10c7f800804878006e00900080007800100f2100bb
:10c80800008340005e089000ee08900002f02f00c0
:10c8180003002000000278008102780002007800fe
:10c828008300780000016200018062006102b800a4
:10c8380054179800651798005e109000ee1090004d
:10c84800c000dd0000002000501798006117980014
:10c858005e109000ee1090006112b8005417980016
:10c86800651798005e119000ee11900002007000ac
:10c8780083807000c809dd004800de000080710078
:10c88800c808de00004b78006e0090008000780039
:10c89800200f2100008340005e089000ee08900001
:10c8a80002002000f30f20000002780081027800c7
:10c8b80002007800830078000001620001806200b5
:10c8c8006102b80074179800051f98007e10900048
:10c8d8008e189000c000dd0000002000701798003e
:10c8e800011f98007e1090008e1890006112b80009
:10c8f80074179800051f98007e1190008e199000fb
:10c9080002007000838070004008de0001002000f3
:10c91800004b78006e00900080007800300f2100f6
:10c92800008340005e089000ee089000020020009e
:10c9380003f02000000278008102780002007800ed
:10c948008300780000016200018062006102b80083
:10c95800141f9800251f98001e189000ae1890000c
:10c96800c000dd0000002000101f9800211f980063
:10c978001e189000ae1890006112b800141f98009d
:10c98800251f98001e199000ae1990000200700033
:10c99800838070004808de0001002000004b78000a
:10c9a800c60037002e08900020609000e24f50002b
:10c9b8002c003a006e00900080007800000f2100e3
:10c9c800808040005e089000804878006e009000eb
:10c9d80080007800100f2100008340005e0890005e
:10c9e800ee08900002f02f000300200000027800fb
:10c9f800810278000200780083007800000162005c
:10ca0800018062006102b800341f9800451f980039
:10ca18003e189000ce189000c000dd0000002000f5
:10ca2800301f9800411f98003e189000ce189000c3
:10ca38006112b800341f9800451f98003e199000f5
:10ca4800ce1990000200700083807000c809dd00d4
:10ca58004800de0000807100c808de00004b780046
:10ca6800960037002e08900020609000e14f50009b
:10ca780092003a006e00900080007800000f2100bc
:10ca88000080400010427800045798001e50900023
:10ca98000004e000080032005e0890006f4060006b
:10caa800c400dd000e5090006f40600000c07000b0
:10cab80000579800020037005e0890000057980061
:10cac8006e00900080007800000f21000080400078
:10cad8008e529000054878006e009000fe0090008d
:10cae80061034000e0834800ae08900001589000c0
:10caf8000082fb00115890000080fb004800dd0018
:10cb08000400700000017800215890000082fb00aa
:10cb1800315890000080fb004800dd0004007000e0
:10cb28008001780061005100e0805900860178009a
:10cb38000702780000017800010078000281610096
:10cb4800000062006102b800541f9800651f980039
:10cb58005e189000ee189000c000dd000000200074
:10cb6800501f9800611f98005e189000ee18900002
:10cb78006112b800541f9800651f98005e19900054
:10cb8800ee19900002007000838070006007980022
:10cb9800710798006e009000fe009000e00f5000b2
:10cba800e08f580022003a0011c0b3006022b8009c
:10cbb8006011b8002e089000d0fd0700e00f50006b
:10cbc800e08f5800040032001e02be0014179800bf
:10cbd800251798003e0037002e009000be009000f8
:10cbe80061004000e0804800020f2100320e07007b
:10cbf8000004e00008003a00f0ff2f0001002000c8
:10cc080050a6880061a688001e00be001017980074
:10cc1800211798002e0037002e009000be009000cb
:10cc280061004000e080480050a6880061a68800a6
:10cc38006e00900080007800000f21000080400006
:10cc480090407800015798001e5090000004e000c2
:10cc5800080032005e089000ee0890004c09dd00e4
:10cc68004400de0000007100c408de000057980090
:10cc78000c0037005e089000ee089000c809dd003f
:10cc88004800de0000807100c808de006f416000c7
:10cc98008e50900000cfb30000c0600000407100cb
:10cca800005798006e00900080007800000f210067
:10ccb800008040000e5290000448780010c0b30075
:10ccc800cef4b7006000b80010179800211798003c
:10ccd8001e109000ae1090004f04be000080fa00b5
:10cce800000006000200fa00000f78000001eb00c7
:10ccf8009e0078000040eb00020007000080fa0068
:10cd0800000006004e00fa0040c79800312798003e
:10cd1800422798000000eb00300798001000200020
:10cd2800600798003e209000100798006e0f47009b
:10cd3800d1a680001e00780046f307000040eb00f3
:10cd4800a4f3b7001e009000104078000000fb001c
:10cd5800500798005e0090000000e00005003a00cf
:10cd6800f0c1b300a4f3b7008080eb00512798000e
:10cd7800d10137005e00900060279800e002200093
:10cd8800ee209000808f500005003200c005200082
:10cd9800ee209000808f5000d20032002c01370026
:10cda8001e0090000000e800100798001e00900088
:10cdb800104078000000fb0050079800de0090004b
:10cdc800e0022000808f50009f003a001e00900073
:10cdd8000000e800100798001e009000104078003e
:10cde8000000fb00500798001e00780070119000aa
:10cdf80080199000009d8000119d8000800f5100d7
:10ce0800818f590005003a00f0c1b300a4f3b700c0
:10ce18000080eb0050279800a70137001e0078001b
:10ce280080189000701090001e017800101998006a
:10ce3800211998001000200060079800ec004700b6
:10ce480012c0b3001e00780074e90700200798009c
:10ce58002e0090000000e00005003a00b0c1b300c9
:10ce6800a4f3b7008080eb005127980092013700a7
:10ce78002e00900006de07001e0178007011980051
:10ce8800011998001e00780080189000701090001a
:10ce98001e01780010199800211998001e007800ca
:10cea8008018900070109000e00f5000e08f58003c
:10ceb80023003a000000eb00400798004e00900065
:10cec8009e0078007c00400081004000c0c5b3008f
:10ced800804878004e0090000000e8004007980065
:10cee800090037004e0090009e0078007c0040004a
:10cef8008100400000c2b300804878004e009000d6
:10cf08000000e800400798004e009000ea0f50002b
:10cf1800f4ff3600009d8000119d80001e017800fe
:10cf28001019980021199800009d8000119d80001b
:10cf38001e0178007011980001199800210037002f
:10cf48000000eb00400798004e0090009e0078001b
:10cf58007c00400081004000e0c2b30080487800b7
:10cf68004e0090000000e800400798004e00900036
:10cf78009e0078007c00400081004000e0c2b300c1
:10cf8800804878004e0090000000e80040079800b4
:10cf9800090037004e0090009e0078007c00400099
:10cfa8008100400000c2b300804878004e00900025
:10cfb8000000e800400798004e009000ea0f50007b
:10cfc800f4ff36000000eb0060079800ec00470013
:10cfd80012c0b3001e00780010e907000000e0004e
:10cfe8000c003a00b0c1b300a4f3b7000080eb0016
:10cff80050279800300137001e0090000000e8001c
:10d00800100798001e009000104078000000fb00f8
:10d0180050079800de009000c0052000808f500067
:10d02800f5ff32005e0090000000e00051ff3a007a
:10d03800d0a680009e00780086f207008000eb00f2
:10d04800512798001c0137005e0090000000e000a6
:10d0580006003a00d0a680009e0078007df2070006
:10d068000000eb005027980013013700de00900005
:10d07800c0052000808f500015003a0007003700d7
:10d088001e0090000000e800100798001e009000a5
:10d09800104078000000fb0050079800de00900068
:10d0a800c0052000808f5000f5ff32005e00900020
:10d0b8000000e0002fff3a00d0a680009e00780014
:10d0c80064f207008000eb0051279800fa0037004f
:10d0d800f0c1b300a4f3b7000080eb00502798001c
:10d0e800f50037001e0090000000e80010079800c7
:10d0f8001e009000104078000000fb0050079800c8
:10d10800de009000c0052000808f500005003a0026
:10d11800f0c1b300a4f3b7008080eb00512798005a
:10d12800e50037005e0090000000e00025003a00ae
:10d13800d2a68000009d8000119d8000701198008b
:10d1480001199800d2a68000009d8000119d8000e2
:10d1580010199800211998000000eb00400798006a
:10d16800d1a680004e0090007c0040008100400065
:10d17800c0c5b300804878004e0090000000e80069
:10d188004007980009003700d1a680004e009000a3
:10d198007c0040008100400000c2b3008048780055
:10d1a8004e0090000000e800400798004e009000f4
:10d1b800ea0f5000f4ff36000000eb0050279800fb
:10d1c800bd003700009d8000119d80001e01780081
:10d1d8007011980001199800009d8000119d800031
:10d1e8001e01780010199800211998000000eb0022
:10d1f800400798004e0090009e0078007c00400098
:10d2080081004000c0c5b300804878004e009000ff
:10d218000000e80040079800090037004e00900021
:10d228009e0078007c0040008100400000c2b300ee
:10d23800804878004e0090000000e8004007980001
:10d248004e009000ea0f5000f4ff3600c9fe370088
:10d258000000eb0040079800c0002000300798004d
:10d26800100037004e0190005e009000804078006a
:10d278006047210000004100014878004e009000fe
:10d288000000e800400798001e0090000000e80039
:10d29800100798001e009000104078000000fb0066
:10d2a800500798005e0090000000e000080032007f
:10d2b800de009000c0052000808f5000040032007e
:10d2c800ce0090003e009000808f5000e5ff3900ae
:10d2d800ce00900060472100808040000040eb00b5
:10d2e800804878004e0090000000e8004007980051
:10d2f800ce0090003e009000808f50000f00360056
:10d30800070037001e0090000000e8001007980092
:10d318001e009000104078000000fb0050079800a5
:10d328005e0090000000e00004003200de00900083
:10d33800c0052000808f5000f2ff3a000041eb004a
:10d348009e0078006047210052f707000004e000c3
:10d3580003003a008080eb00512798005600370000
:10d368009e007800203e2100baf107008041eb00c2
:10d3780012c0b3009e007800203e21000dd60700a1
:10d388000000e00005003200c0c0b300a4f3b700fd
:10d398000080eb00502798004700370070a08000fd
:10d3a8004400de000000a200610060000004e0000c
:10d3b80005003200f0c1b300a4f3b7008080eb0091
:10d3c800512798003c0037000000eb004007980008
:10d3d8000d003700ce0190004e009000fc00400088
:10d3e800203e210000804000104178009e00780017
:10d3f8007c80410001004000024878004e00900007
:10d408000000e800400798004e009000ea0f500026
:10d41800f0ff3600209f8000319f80001e017800b9
:10d4280070119800011998001e007800801890006b
:10d43800701090001e0178001019980021199800aa
:10d448005e0090000000e00016003a00d0a68000c0
:10d458009e0078007ff107000000eb00502798003d
:10d46800150037001e0090000000e8001007980023
:10d478001e009000104078000000fb005007980044
:10d488005e0090000000e00006003a00d0a6800090
:10d498009e0078006ff107008000eb00512798008c
:10d4a80005003700de009000c0052000808f500086
:10d4b800ecff32002ffe37005e2090000080fa005b
:10d4c800000006002200fa00500f9800610f980033
:10d4d8005e0890000000e000030032006e08900033
:10d4e8000017980002003700a100200001179800db
:10d4f8000e119000320f9800203e2100000f980076
:10d508000040eb00704f98000000eb0030079800d7
:10d518000000eb00200798000040eb00a4f3b700e0
:10d528005e0890000000e00003003a004048210037
:10d53800200f98000a003700de099000230f98009a
:10d548006e0890000000e00005003a00f0c1b3004a
:10d55800a4f3b7000000eb00700f9800dd0137005e
:10d56800be0890002e089000008040000000e900ee
:10d57800100f9800d1a680000e08900035f1070022
:10d588000e089000c0589000e0c2b30080cf500051
:10d59800a4003a000e089000d0589000e0c2b300f2
:10d5a80080cf50009f003a000e0890007011900044
:10d5b8008019900052079800630798001000200017
:10d5c800400f98000e08900080189000701090008e
:10d5d8000e0990001019980021199800f8004700ca
:10d5e80012c0b3000e0890008ce70700000f780007
:10d5f8001e00e00005003a00b0c1b300a4f3b70074
:10d608008001eb00730f9800b20137001e0078000c
:10d618001fdc0700309d8800419d8800309d8000f8
:10d62800419d8000e00f5000e08f580006003a004e
:10d63800009d8000119d80000e09900070119800d7
:10d648000119980005003700309d8000419d800039
:10d658000e09900070119800011998000e089000aa
:10d6680080189000701090000e0990001019980012
:10d67800211998000000eb00400f9800f8004700bf
:10d6880012c0b3000e08900064e70700000f78008e
:10d698001e00e00005003a00b0c1b300a4f3b700d3
:10d6a8000000eb00700f98008a0137001e00780018
:10d6b800f7db0700309d8800419d88001300370084
:10d6c8004e0890000000e800400f9800f80047005e
:10d6d8000041eb000e08900050e70700000f7800ab
:10d6e8001e00e00005003a00b0c1b300a4f3b70083
:10d6f8008000eb00710f9800760137001e0078005b
:10d70800e3db0700309d8800419d8800329d800042
:10d71800439d80005e009000ee009000800f510055
:10d72800818f5900e6ff3a00329d8000439d8000ba
:10d738005e009000ee009000800f5100818f59002c
:10d748000c003a001e00780010407800fb4f4000a3
:10d75800dbff32001e00780030489000e84f500090
:10d76800d7ff32001e00780030489000ef4f50007d
:10d77800d3ff32003e0090000000e0001f003a0096
:10d788000040eb00604f9800190037006e48900089
:10d798008001fb006e4890008000fb001e007800ae
:10d7a80000804000104178008e0890007c80410085
:10d7b8000100400002487800d2a680006e48900020
:10d7c8008001fb006e4890008000fb001e0078007e
:10d7d80000804000904078007c80410002004000ba
:10d7e800014878006e4890000040e800604f9800bb
:10d7f8006e489000ea4f5000e4ff34000e08900095
:10d808005e019000ee0190007210980003189800d5
:10d818000e0890005e019000ee019000121898002a
:10d82800231898000e089000c0589000c0c5b30097
:10d8380080cf5000030032006e089000e20f5000c5
:10d848000a003a00ae089000c0c5b30080487800ce
:10d858002e0890008000e8000040eb008048780027
:10d86800ae099000730f98001a0137000000eb0012
:10d87800200798008a003700a0c0b300604f9800c6
:10d88800030037006e4890000040e900604f9800a0
:10d898006e4890000000fb008e0890007c0040005d
:10d8a800010040009040780000c2b30080cf5000d3
:10d8b800f4ff32006e489000e74f50003200340009
:10d8c800190037002e009000800078002e08900084
:10d8d800008140006e4890000000fb008e08900018
:10d8e8007c004000010040001040780000497800aa
:10d8f8002e0090000000e800200798006e48900075
:10d908000040e900604f9800ae0090003e0890008b
:10d91800808f500004003a000000eb0020079800b8
:10d9280010c0b300704f98006e489000e74f500049
:10d93800e4ff3c002e009000800078002e08900044
:10d9480080804000e0c2b300804878002e0090003c
:10d958000000e80020079800ae0090003e08900004
:10d96800808f500008003a000000eb002007980064
:10d9780010c0b300704f9800030037006e48900045
:10d988000040e900604f98006e4890000000fb00de
:10d998008e0890007c004000010040009040780014
:10d9a80000c2b30080cf5000f4ff320019003700e6
:10d9b8002e009000800078002e0890000081400022
:10d9c8006e4890000000fb008e0890007c0040002c
:10d9d8000100400010407800004978002e009000b7
:10d9e8000000e800200798006e4890000040e90019
:10d9f800604f9800ae0090003e089000808f500065
:10da080004003a000000eb002007980010c0b300a3
:10da1800704f98006e4890000004e000e4ff3d005d
:10da28002e009000800078002e0890008080400032
:10da3800c0c5b300804878002e0090000000e800c0
:10da480020079800ae0090003e089000808f50009c
:10da580004003a000000eb002007980010c0b30053
:10da6800704f98000e089000801890007010900079
:10da78000e09900010199800211998000e089000be
:10da8800970007000004e0000500320080c0b300e2
:10da9800a4f3b7000000eb00700f98008d0037006a
:10daa8000e0890007011900080199000009d800071
:10dab800119d8000800f5100818f59006eff3a0040
:10dac8002e0090000000e900200798000000eb00fd
:10dad800300798007e4890000004e00051003200b2
:10dae800ae009000410798001c0037003e009000ef
:10daf800800078002e0890000080400010417800d7
:10db0800224798003e009000800078002e08900080
:10db1800008140002e009000800078002e089000c0
:10db28000080400010407800004978002e009000e6
:10db3800800078002e08900000804000ae419000e0
:10db4800034878002e0090000000e90020079800a4
:10db58003e0090000000e800300798002e0090007a
:10db6800be009000010050000000e000dfff3c0014
:10db78004e0090000000e800300798009e089000d2
:10db88002e08900000805000200798001c003700e5
:10db98003e009000800078002e0890000080400031
:10dba80090407800214798003e009000800078005f
:10dbb8002e089000008140002e0090008000780020
:10dbc8002e0890000080400010407800004978003e
:10dbd8002e009000800078002e0890000080400001
:10dbe8002e419000024878002e0090000000e900c5
:10dbf800200798003e0090000000e80030079800d9
:10dc08002e009000be009000010050000000e000cf
:10dc1800dfff3c009e0890000040eb008048780041
:10dc28002a003700ae019000430798001c00370017
:10dc38003e009000800078002e0890000080400090
:10dc480090407800214798003e00900080007800be
:10dc58002e089000008140002e009000800078007f
:10dc68002e0890000080400010407800004978009d
:10dc78002e009000800078002e0890000080400060
:10dc88002e419000024878002e0090000000e90024
:10dc9800200798003e0090000000e8003007980038
:10dca8002e009000be009000010050000000e0002f
:10dcb800dfff3c00ce0090002e089000008040005e
:10dcc8008000e8000040eb0080487800ae09900032
:10dcd800730f98007e0890000080fa00000006008c
:10dce8001000fa0060079800100020005007980004
:10dcf800ea00470012c0b3006e009000c7e50700b5
:10dd0800000f78001e00e00003003a00f00f20002a
:10dd180070079800b70037001e0078005cda07002b
:10dd2800309d8800419d8800309d8000419d800085
:10dd3800e00f5000e08f58001d003a006e00900080
:10dd4800c1c5b300415898000000eb004007980097
:10dd5800090037004e009000ee0090007c00400063
:10dd68008100400000c2b300804878004e00900057
:10dd78000000e800400798004e009000ea0f5000ad
:10dd8800f4ff3400009d8000119d80006e0190001a
:10dd98007011980001199800009d8000119d800065
:10dda8006e0190001019980021199800780037002a
:10ddb800329d8000439d8000120798002307980039
:10ddc800309d8000419d80006e0190007011980088
:10ddd80001199800309d8000419d80006e019000df
:10dde8001019980021199800ea00470012c0b300e2
:10ddf8006e00900089e50700000f78001e00e00023
:10de080003003a00f30f20007307980079003700e9
:10de18001e0078001eda0700309d8800419d8800aa
:10de2800309d8000419d8000e00f5000e08f580039
:10de380006003a00009d8000119d80006e01900050
:10de4800701198000119980005003700309d800076
:10de5800419d80006e019000701198000119980092
:10de68006e00900080189000701090006e01900075
:10de780010199800211998000000eb00500798002d
:10de8800ea00470012c0b3006e00900063e5070087
:10de9800000f78001e00e00003003a00f00f200099
:10dea80070079800530037001e007800f8d9070063
:10deb800309d8800419d880011003700ea00470026
:10dec8000041eb006e00900054e50700000f780059
:10ded8001e00e00003003a00f10f200071079800cf
:10dee800440037005e0090000000e80050079800ea
:10def8001e007800e6d90700309d8800419d880003
:10df0800329d8000439d80001e009000ae0090006e
:10df1800800f5100818f5900e8ff3a00329d800040
:10df2800439d80001e009000ae009000800f5100bd
:10df3800818f59000c003a001e00780010407800cc
:10df4800fb4f4000ddff32001e0078003048900093
:10df5800e84f5000d9ff32001e007800304890008a
:10df6800ef4f5000d5ff32006e0090001e01900068
:10df7800ae01900072109800031898006e0090008f
:10df88001e019000ae019000121898002318980006
:10df98000000eb00400798004e0090000000e000f1
:10dfa80012003a000000eb00300798000c00370020
:10dfb800be019000be0090001e0078000080400066
:10dfc80010417800ee0090007c8041000100400084
:10dfd800024878003e0090000000e80030079800f2
:10dfe8003e009000ea0f5000f1ff34008001eb0082
:10dff800730798007e0090000080fa000000060079
:10e008000200fa00000f78000001eb009e00780083
:10e018000040eb00020007000080fa000000060044
:10e028002200fa00205f9800610f9800720f980094
:10e038000000eb00400798000000eb003007980054
:10e048006e089000200798006e089000100798004e
:10e05800c03a2100000f78000040eb00a4f3b7009d
:10e06800b10b07000004e0000500320080c1b300d6
:10e07800a4f3b7000080eb00001798008f01370069
:10e088000000eb0050079800060037002e009000b3
:10e098000000e800200798005e0090000000e800fb
:10e0a800500798002e009000104078000004e0000f
:10e0b8000a0032002e00900090407800e0c2b300c1
:10e0c80080cf5000050032002e009000904078006c
:10e0d800c0c5b30080cf5000ecff3a005e0090004e
:10e0e800e80f500005003600f0c1b300a4f3b700f4
:10e0f8000080eb0000179800700137000000eb006b
:10e10800400798002e00900090407800e0c2b300cd
:10e1180080cf50001b003a002e0090000000e8005d
:10e1280020079800060037002e0090000000e80045
:10e13800200798004e0090000000e8004007980073
:10e148002e009000104078000004e0000500320026
:10e158002e00900090407800c0c5b30080cf5000da
:10e16800f1ff3a004e009000e30f50000500360022
:10e17800f0c1b300a4f3b7000080eb0000179800cb
:10e188004e013700de0090004e0090008080400075
:10e198003e009000808f5000080036005e0090001e
:10e1a800ce009000010040003007980003003700bf
:10e1b8002e0090000000e800200798002e00900034
:10e1c80090407800c0c5b30080cf5000f8ff3200ff
:10e1d8002e009000104078000004e000010032009a
:10e1e800a7ff37006e089000100798006e0890008f
:10e1f80020079800d1a680001e00780015ee0700c1
:10e20800000037002e009000104078000000fb004e
:10e2180050079800de009000e0022000808f500038
:10e2280054003a002e0090000000e80020079800f3
:10e238002e009000104078000000fb005007980066
:10e24800de009000e0022000808f50000c003200b9
:10e258005e0090000000e00009003200de0090003f
:10e26800c0052000808f500005003200f0c1b300c7
:10e27800a4f3b7000080eb00001798000f013700e7
:10e28800de009000e0022000808f50002a003a0053
:10e29800d0a680007011900080199000009d800029
:10e2a800119d8000800f5100818f590005003a00b0
:10e2b800f0c1b300a4f3b7000080eb00001798008a
:10e2c800fe0037002e0090000000e80020079800ac
:10e2d8002e009000104078000000fb0050079800c6
:10e2e800de009000c0052000808f5000080032003a
:10e2f8005e0090000000e00005003200f0c1b300ad
:10e30800a4f3b7000080eb0000179800eb0037007b
:10e318008052290073fa0700070037002e0090008a
:10e328000000e800200798002e00900010407800b8
:10e338000000fb0050079800de009000c005200098
:10e34800808f5000f5ff32005e0090000000e00072
:10e35800acff3a00d0a680009e007800bded070013
:10e36800f0c1b300a4f3b7000080eb0000179800d9
:10e37800d2003700de009000c0052000808f5000da
:10e3880038003a00d2a68000009d8000119d8000d0
:10e398007011980001199800d2a68000009d800095
:10e3a800119d800010199800211998000000eb00b9
:10e3b80050079800d1a680005e0090007c004000c5
:10e3c80081004000c0c5b300804878005e0090001e
:10e3d8000000e8005007980009003700d1a6800027
:10e3e8005e0090007c0040008100400000c2b30045
:10e3f800804878005e0090000000e8005007980010
:10e408005e009000ea0f5000f4ff36002e009000e6
:10e418000000e800200798002e00900010407800c7
:10e428000000fb0050079800de009000c0052000a7
:10e43800808f5000030032005e0090000000e00072
:10e4480070ff3a00d0a680009e00780081ed07009a
:10e45800f0c1b300a4f3b7000080eb0000179800e8
:10e46800960037002e009000104078000000fb0056
:10e47800500798000000eb0040079800c0002000fb
:10e4880030079800100037004e0190005e009000a1
:10e49800804078006c004700000041000148780087
:10e4a8004e0090000000e800400798002e00900001
:10e4b8000000e800200798002e0090001040780027
:10e4c8000000fb00500798005e0090000000e0008c
:10e4d80008003200de009000c0052000808f500048
:10e4e80004003200ce0090003e009000808f500063
:10e4f800e5ff3900ce0090006c00470080804000a6
:10e508000040eb00804878006c004700904078009d
:10e51800e0c2b30080cf500022003a006c004700f0
:10e52800104090000004e0000d0032006c0047002d
:10e5380090409000e0c2b30080cf50000800320045
:10e54800d0a680009e00780042ed0700f0c1b3001d
:10e55800a4f3b7000080eb000017980057003700bd
:10e568006c00470090409000e0c2b30080cf50009c
:10e578000c003a006c004700204090000004e000c6
:10e5880008003200d0a680009e00780031ed070018
:10e59800f0c1b300a4f3b7000080eb0000179800a7
:10e5a800460037006c004700cef907000000e00085
:10e5b80015003a00070037002e0090000000e80020
:10e5c800200798002e009000104078000000fb0003
:10e5d80050079800de009000c0052000808f500092
:10e5e800f5ff32005e0090000000e0009dff3a0059
:10e5f800d0a680009e00780016ed07000000eb0012
:10e60800001798002d003700ec00470060472100f4
:10e6180068c90700604721002b0007000000e000e0
:10e6280006003a00d0a680009e00780009ed070099
:10e638000080eb0000179800200037006c004700ae
:10e64800a8f907000000e0000f003200d0a6800003
:10e658009e007800ffec0700b0c1b300a4f3b70038
:10e668000080eb0000179800140037002e0090007f
:10e678000000e800200798002e0090001040780065
:10e688000000fb00500798002e0090009040780092
:10e69800c0c5b30080cf5000f4ff32005e00900088
:10e6a8000000e0006fff3a00d0a680009e007800ce
:10e6b800e8ec07000000eb00001798000e1090002f
:10e6c8000080fa00000006001200fa0070079800a7
:10e6d800203e2100500798000000eb0060079800da
:10e6e8000041eb00de0090007e00900069f2070018
:10e6f8000004e00005003a0020c1b300a4f3b7000d
:10e708000000eb00000f980066003700d0a68000dc
:10e7180080189000701090005e01900070119800b1
:10e7280001199800d0a68000a01890001018900039
:10e738005e01900010199800211998005e01900060
:10e748006000b80010019800210198005e01900057
:10e758006000b8003001980041019800d0a6800000
:10e76800900078005e00900001087800ec004700f7
:10e7780013c0b30022c1b3005e00900054e4070048
:10e788000000e000030032000001eb00020f9800d7
:10e7980044003700ced4bf000004e0000e00320071
:10e7a8005e0090001000780011c0b3006022b8002d
:10e7b8006011b800d1f60700e00f5000e08f580054
:10e7c8000500320090c0b300a4f3b7008001eb004d
:10e7d800030f9800330037005e009000701190001e
:10e7e80080199000009d8000119d8000800f5100cd
:10e7f800818f590003003a006000b800008fbe0006
:10e80800040037005e00900070119000801990009d
:10e81800028fbe005e00900080189000701090007b
:10e828005e0190001019980021199800ec0047002b
:10e8380012c0b3005e009000f8e20700400798009d
:10e848004e0090000000e00005003a00b0c1b3009f
:10e85800a4f3b7008001eb00030f98001100370004
:10e868004e0090008ad707002007980031079800cb
:10e878005e009000100078001e02be002e0190007d
:10e88800be0190000a0007000004e0000300320007
:10e8980010002000000f9800020037000001eb0074
:10e8a800020f98000e0890000080fa000000060091
:10e8b8003e00fa00501798006217980073179800e6
:10e8c800041f9800151f98006a0047002007980049
:10e8d8000000eb0080a688000002200030079800a6
:10e8e800de109000015890000082fb001158900043
:10e8f8000080fb004800dd00040070000001780083
:10e90800215890000082fb00315890000080fb00e5
:10e918004800dd0004007000800178005e1090005f
:10e928009080fb00104090000080fb004800dd0054
:10e93800010070008000eb00a6c80700ea0047004d
:10e94800e0c2b3008048780010002000400798001b
:10e9580008003700ce0090006a0047008080400021
:10e9680000c2b300804878004e0090000000e80024
:10e97800400798004e009000e70f5000f5ff360062
:10e988000000eb0040079800090037004e00900097
:10e99800ea004700680040008100400000c2b30060
:10e9a800804878004e0090000000e800400798007a
:10e9b8004e009000e20f5000f4ff3600ea004700d6
:10e9c80000c1b300b0489800ea0047000040eb00df
:10e9d800c0489800ee1090006a004700510898005f
:10e9e8006e109000fe10900002002000f3ff20003f
:10e9f8000002780081027800020078008300780025
:10ea080000016200018062006102b800341f9800b2
:10ea1800451f98003e189000ce189000c000dd00f9
:10ea280000002000301f9800411f98003e189000f9
:10ea3800ce1890006112b800341f9800451f980046
:10ea48003e199000ce19900002007000838070007b
:10ea58004008de0001002000800078006a004700be
:10ea6800210898006a0147006000b8006009980012
:10ea78007109980051392100914078006a004700d7
:10ea880051489800b19c80006a00470071009800c6
:10ea9800c19c80006a00470001089800ea0047000e
:10eaa8000000eb0090089800ea0047000000eb0027
:10eab800b0089800ea0047000000eb00c008980082
:10eac8000000eb0040079800110037005e1090002e
:10ead8009080fb00104090000080fb004800dd00a3
:10eae80001007000800078004e0090000081400016
:10eaf800ae0090004e00900000804000104078006a
:10eb0800004978004e0090000000e8004007980097
:10eb1800ce0090003e009000808f5000ebff39003f
:10eb2800ea004700e0c2b300904098008e189000b9
:10eb38006a004700510898000e1890009e1890002f
:10eb480002002000f3ff2000000278008102780014
:10eb580002007800830078000001620001806200f2
:10eb68006102b800541f9800651f98005e18900055
:10eb7800ee189000c000dd0000002000501f980033
:10eb8800611f98005e189000ee1890006112b8009e
:10eb9800541f9800651f98005e199000ee199000a8
:10eba80002007000838070004008de000100200031
:10ebb800800078006a004700210898000000eb00f8
:10ebc80040079800130037005e1090009080fb000b
:10ebd800104090000080fb004800dd00010070003c
:10ebe800800078004e009000808040003e00900039
:10ebf80000814000ae0090004e0090000080400070
:10ec080010407800004978004e0090000000e800ad
:10ec180040079800ce0090003e009000808f500082
:10ec2800e9ff39006e119000fe1190005e1090000f
:10ec380092ec0700008fbe005e1090009080fb00f1
:10ec4800104090000080fb004800dd0001007000cb
:10ec5800000178008041eb001e00be008408070018
:10ec68000004e00005003a0090c0b300a4f3b70028
:10ec78008001eb00231f98000200370014002000d9
:10ec8800241f98002e1890000080fa00000006004b
:10ec98000400fa00000f780021479800ae41900068
:10eca8000001eb009e0078000040eb000200070026
:10ecb8000080fa00000006002800fa00605f980053
:10ecc800011798001217980043679800c03a21006e
:10ecd80050079800203e2100400798000000eb00f4
:10ece800600798000000eb00100798000040eb0058
:10ecf800a4f3b700d1a680005e00900055eb070092
:10ed08000e109000f7f707000000e0000500320041
:10ed1800c0c0b300a4f3b7000080eb003017980020
:10ed28009f023700d0a680007011900080199000d3
:10ed3800009d8000119d8000800f5100818f590037
:10ed480009003200d0a68000701190008019900050
:10ed58005e0090008018900070109000800f5100a5
:10ed6800818f590008003a00d0a68000de0090008c
:10ed780038eb0700f0c1b300a4f3b7000080eb0044
:10ed880030179800860237006e0090000000e800f7
:10ed980060079800d0a68000ec00470012c0b300be
:10eda8009ee10700300798003e0090000000e00058
:10edb80008003a00d0a68000de00900025eb07008e
:10edc800b0c1b300a4f3b7000080eb00301798007f
:10edd800730237006e0090000000e800600798009a
:10ede800d0a68000ec0047000041eb008be1070053
:10edf800300798003e0090000000e00008003a004c
:10ee0800d0a68000de00900012eb0700b0c1b3006e
:10ee1800a4f3b7000080eb003017980060023700b9
:10ee28004e6090000004e00025003a001f00370003
:10ee38003e00900010407800fb4f40000800320070
:10ee4800d0a68000de00900002eb070060c1b3008e
:10ee5800a4f3b7000080eb00301798005002370089
:10ee68006e0090000000e80060079800d0a68000bf
:10ee7800ec0047000041eb0068e10700300798000c
:10ee88003e0090000000e00008003a00d0a6800094
:10ee9800de009000efea0700b0c1b300a4f3b700aa
:10eea8000080eb00301798003d0237003e009000cc
:10eeb800104078000004e000ddff3a00ee01370062
:10eec8000040eb00aaf3b7000000eb002007980011
:10eed800e60137003e009000104078000004e00092
:10eee8000a0132003e00900010407800fb4f4000bd
:10eef800050032003e00900030489000ef4f50006f
:10ef080001003a00e00037003e0090001040780011
:10ef1800fb4f4000d90032003e009000304890007e
:10ef2800e84f5000d50032003e0090003048900075
:10ef3800ef4f5000d10032003e0090003048900062
:10ef48000080fb004400de00610060000004e00077
:10ef5800740032002e0090000000e800200798009e
:10ef68000040eb00104798000d0037001e4090004d
:10ef78000081fb001e4090008080fb003e00900056
:10ef88000080400090407800700047000000410079
:10ef9800014878001e4090000040e80010479800a3
:10efa8001e409000e74f500008003c001e409000b3
:10efb8008080fb003e009000008040009040780078
:10efc80000c2b30080cf5000e8ff3a003e00900036
:10efd8008048900000c2b30080cf50002700320064
:10efe8001e4090008080fb00700047008080400039
:10eff800e0c2b300804878001e4090000040e8005e
:10f00800104798000040eb00004f78000f003700d1
:10f018001e4090000081fb001e4078000080fb002d
:10f02800be00900068004000010040009040780059
:10f038007000470000004100014878001e40900021
:10f048000040e800104798001e4fe80020c0b300b9
:10f058009e4f100009003c001e4078000080fb0015
:10f06800be00900068004000010040009040780019
:10f0780000c2b30080cf5000e5ff3a001e40900068
:10f088008080fb0070004700808040000040eb005b
:10f09800804878007000470012f707001047980072
:10f0a8001e4090000004e00008003200d0a6800056
:10f0b800de00900067ea0700c0c0b300a4f3b70001
:10f0c8000080eb0030179800b5013700d0a680000b
:10f0d80070119000801990005e00900080189000d8
:10f0e80070109000800f5100818f590008003a007d
:10f0f800d0a68000de00900056ea0700f0c1b300f9
:10f10800a4f3b7000080eb0030179800a401370083
:10f11800200020006007980010c0b300d9f4b700a1
:10f12800590037000040eb00104798000e003700e8
:10f138001e4090008081fb001e4090008080fb00f4
:10f148003e0090000080400010417800ce00900002
:10f158007c80410001004000024878001e40900079
:10f168000040e800104798001e409000e74f50000c
:10f17800efff34000040eb00104798001000370004
:10f188001e4090000080fb00e80140001e409000f7
:10f198000080fb00be0090006800400001004000b5
:10f1a80010417800ce0090007c80410001004000b2
:10f1b800024878001e4090000040e8001047980080
:10f1c8001e409000e24f5000edff3400ce0090004a
:10f1d800e044210080087800ee0090004e00900086
:10f1e80041109800d0a68000801890007010900000
:10f1f8004e0190007011980001199800d0a6800067
:10f20800a0189000101890004e0190001019980056
:10f21800211998004e0190006000b8001001980074
:10f22800210198004e0190006000b800300198005c
:10f2380041019800ec00470012c0b3004e00900056
:10f2480003e707000000e00008003200d0a68000b5
:10f25800de009000ffe9070010c0b300a4f3b70078
:10f268000080eb00301798004d0137006e009000c9
:10f278000000e80060079800030037006e00900067
:10f288000000e80060079800d9d4bf000004e0003f
:10f298000e0032000040eb00d9f4b700d2a680007f
:10f2a800d0a6800080189000701090001019980067
:10f2b80021199800d0a68000ec00470012c0b300c6
:10f2c80056e007003007980005003700d0a68000f8
:10f2d800ec0047000041eb0050e0070030079800c1
:10f2e8003e0090000000e000e0003a00d0a6800058
:10f2f800de009000d7e90700b0c1b300a4f3b7005f
:10f308000080eb0030179800250137002e00900090
:10f318000000e000d30032000000eb007007980006
:10f32800d2a68000d0a680008018900070109000af
:10f338001019980021199800d0a68000ee00470007
:10f3480012c0b30035e00700300798003e00900077
:10f358000000e00008003a00d0a68000de0090001f
:10f36800bce90700b0c1b300a4f3b7000080eb000c
:10f37800301798000a0137003e009000c4d40700f7
:10f38800700798008052290056f607001007980069
:10f398001e0090000000e00008003200d0a68000a7
:10f3a800de009000abe90700c0c0b300a4f3b700cb
:10f3b8000080eb0030179800f9003700200020008b
:10f3c80060079800d2a68000d0a680008018900020
:10f3d800701090001019980021199800d0a680008c
:10f3e800ec00470012c0b3000ce00700300798009b
:10f3f8003e0090000000e00008003a00d0a680001f
:10f40800de00900093e90700b0c1b300a4f3b70091
:10f418000080eb0030179800e10037003e009000b4
:10f428009bd40700309d8800419d88001700370055
:10f438006e0090000000e80060079800d0a68000e9
:10f44800ec0047000041eb00f4df070030079800ac
:10f458003e0090000000e00008003a00d0a68000be
:10f46800de0090007be90700b0c1b300a4f3b70049
:10f478000080eb0030179800c90037003e0090006c
:10f4880083d40700309d8800419d88007e0090004d
:10f498006101b800309d8000419d8000800f5100bf
:10f4a800818f5900e2ff3a007e0090006101b800a8
:10f4b800309d8000419d8000800f5100818f590050
:10f4c80008003a003e00900010407800fb4f4000d2
:10f4d800d7ff32003e00900030489000e84f5000bf
:10f4e800d3ff32000000eb00100798001e009000c8
:10f4f8000000e00032003a00700047000001780088
:10f508006000b8000089be00640141006000b800d6
:10f518000089be00640141006000b8000089be0097
:10f528000040eb00104798000d0037001e40900087
:10f538000081fb001e4090008080fb003e00900090
:10f5480000804000904078007000470000004100b3
:10f55800014878001e4090000040e80010479800dd
:10f568001e409000e74f5000f0ff34000040eb00d1
:10f57800104798000f0037001e4090000080fb00e5
:10f58800680140001e4090000080fb00be00900013
:10f59800680040000100400090407800700047007b
:10f5a80000004100014878001e4090000040e8003b
:10f5b800104798001e409000e24f5000eeff3400c4
:10f5c80070004700790007000000e00008003200e2
:10f5d800d0a68000de0090001ee9070010c0b3002e
:10f5e800a4f3b7000080eb00301798006c003700d8
:10f5f8006e0090000000e80060079800d2a6800026
:10f60800d0a6800080189000701090001019980003
:10f6180021199800d0a68000ec00470012c0b30062
:10f628007edf0700300798003e0090000000e000f1
:10f6380008003a00d0a68000de00900005e9070027
:10f64800b0c1b300a4f3b7000080eb0030179800f6
:10f65800530037002e0090000000e90020079800b2
:10f668000200370010c0b300aaf3b700aad3bf0046
:10f678000004e00017fe320070004700210020005f
:10f6880090f707000000e00006003a00d0a68000ce
:10f69800de009000efe807000080eb0030179800cc
:10f6a8003f00370070004700000178006000b80094
:10f6b8000089be00640141006000b8000089be00f6
:10f6c800640141006000b8000089be000040eb0002
:10f6d800104798000e0037001e4090000081fb0084
:10f6e800d1a680001e4090000080fb007c004000f6
:10f6f8000100400090407800700047000000410081
:10f70800014878001e4090000040e800104798002b
:10f718001e409000ea4f5000efff3400805229004d
:10f7280070f50700100798001e0090000000e00028
:10f7380008003200d0a68000de009000c5e807006f
:10f74800c0c0b300a4f3b7000080eb0030179800e6
:10f7580013003700700047001400070010079800d6
:10f768001e0090000000e00008003200d0a68000d3
:10f77800de009000b7e8070010c0b300a4f3b7009c
:10f788000080eb003017980005003700d0a68000f5
:10f79800de009000afe807000000eb00301798008b
:10f7a8003e1090000080fa00000006003e00fa00bb
:10f7b800501f9800dc0507000004e0000300320039
:10f7c8000080eb00601f980033003700d1a680004e
:10f7d800640047009fe807000040eb00004f7800f6
:10f7e8000b003700d2a680009e81fb001e80fb0024
:10f7f800800078005e1890000080400090407800fb
:10f808007c80410002004000014878001e4fe8005b
:10f81800a0c0b3009e4f1000f2ff3600d1a68000b2
:10f82800203e21008be80700d0a680008041eb0035
:10f8380012c0b300213e2100decc07000000e0002a
:10f848000e003a00d0a6800081022000808040008f
:10f85800d0a6800012c0b3007de507000000e000dc
:10f8680003003a000000eb0010079800050037007d
:10f878000080eb0010079800020037000080eb00c2
:10f8880010079800d0a68000e400470071e8070040
:10f898001e009000601f98006e1890000080fa000b
:10f8a800000006004400fa00601f9800711f9800cd
:10f8b8000227980064004700100798000040eb00fa
:10f8c800a4f3b70012c0b3009e0090006e18900019
:10f8d800e8ec07000004e00005003a0020c1b3008e
:10f8e800a4f3b7000080eb0010279800f70037005a
:10f8f8000e2090008040eb00216898000040eb004b
:10f90800004f78000b0037009e81fb001e80fb0033
:10f91800800078006e189000008040001041780048
:10f928008e20900078804100010040000248780055
:10f938001e4fe800b1c0b3009ecf10000f003e007c
:10f948001e80fb00800078006e1890000080400048
:10f95800104078000004e000ebff3a000700370091
:10f968001e80fb008e20900078004000810040003f
:10f978000040eb00804878001e4fe800c0c0b3008c
:10f988009e4f1000f6ff36007e18900080407800e9
:10f998000e20900051609800d0a68000801890003a
:10f9a800701090000e2190003011980041119800bd
:10f9b8009e009000e0442100800878001e0190001d
:10f9c8006000b80010019800210198001e01900005
:10f9d8006000b80030019800410198009e00900036
:10f9e8000000eb00c01098001e009000fe18900068
:10f9f80061109800d0a680008018900070109000c8
:10fa08001e0190007011980001199800d0a680007e
:10fa1800a0189000101890001e019000101998006e
:10fa2800211998009e009000203e210009e8070057
:10fa380013c0b30012c0b300213e21001e00900085
:10fa48005ccc07000000e00005003200b0c0b30045
:10fa5800a4f3b7000080eb00102798009b00370044
:10fa68001e00900040109000501f9800a103200035
:10fa78008e80400022c7b3001e00900039cd0700d9
:10fa88000000e0008d003a000040eb0010479800ad
:10fa9800090037001e4090008080fb000e20900077
:10faa800808040000040eb00804878001e409000b5
:10fab8000040e800104798001e409000ec4f5000ae
:10fac800f4ff36001e00900060109000e80f500010
:10fad800480032000040eb00004f78000040eb0087
:10fae800104798000e0037001e81fb001e40900052
:10faf8000080fb009e0090007c0040000100400058
:10fb0800904078000e2090000000410001487800e5
:10fb18001e4fe8001e4090000040e8001047980083
:10fb28001e409000e74f500009003e001e40900024
:10fb38000080fb009e0090007c0040000100400017
:10fb48009040780000c2b30080cf5000e6ff3a0032
:10fb58001e009000c060900000c2b30080cf50002b
:10fb6800340032009e80fb000e2090008080400010
:10fb7800e0c2b300804878001e4fe80080c0b300a0
:10fb8800104798000e0037001e81fb001e409000b1
:10fb98000080fb009e0090007c00400001004000b7
:10fba800904078000e209000000041000148780045
:10fbb8001e4fe8001e4090000040e80010479800e3
:10fbc8001e409000ea4f50001a003e001e40900070
:10fbd8000080fb009e0090007c0040000100400077
:10fbe8009040780000c2b30080cf5000e6ff3a0092
:10fbf800100037000040eb00004f78000a00370083
:10fc08001e81fb001e80fb009e0090007c004000cf
:10fc180001004000904078000e2090000000410054
:10fc2800014878001e4fe800a1c0b3009ecf100025
:10fc3800f3ff36001e0090006010900080407800ae
:10fc48000e209000514898001e009000a0089000d7
:10fc5800100890000e21900070019800010998008a
:10fc68001e0090005008900001002000c001dd0037
:10fc7800020020001e0090004008900001002000b3
:10fc880002004000838048000e219000100998006f
:10fc9800210998001e009000c01090000e209000ce
:10fca800310898008e20900010c0b300a06898001a
:10fcb8000000eb001027980004003700b0c1b30023
:10fcc800a4f3b7008080eb00112798001e20900055
:10fcd8000080fa00000006003e00fa00501f98005d
:10fce80064004700100798000040eb00a4f3b70039
:10fcf8005e189000206890000004e00005003a00bb
:10fd080070c0b300a4f3b7000080eb00601f980038
:10fd1800d50037005e18900030119000c011900097
:10fd2800d0a680008018900070109000800f5100bd
:10fd3800818f590005003200f0c1b300a4f3b70069
:10fd48000080eb00601f9800c70037005e18900025
:10fd58007800400012c0b3009e009000c5eb070079
:10fd68000004e00005003a0020c1b300a4f3b70086
:10fd78000080eb00601f9800bb0037009e009000d9
:10fd8800e0442100800878001e0190006000b8005f
:10fd980010019800210198001e0190006000b80031
:10fda80030019800410198005e18900030089000da
:10fdb8008000e8001e009000411098005e18900036
:10fdc800506090008080fb001e0090006110980039
:10fdd800d0a6800080189000701090001e0190003e
:10fde8007011980001199800d0a68000a018900002
:10fdf800101890001e019000101998002119980001
:10fe08009e009000203e210012e7070013c0b300b7
:10fe180012c0b300213e21001e00900065cb0700f0
:10fe28000000e00005003200b0c0b300a4f3b70042
:10fe38000080eb00601f98008b0037000040eb004b
:10fe4800004f7800060037009e80fb005e18900087
:10fe5800808040000040eb00804878001e4fe8009a
:10fe6800c0c0b3009e4f1000f7ff36001e00900080
:10fe780060109000e80f5000490032000040eb008d
:10fe8800104798000040eb00004f78000e00370044
:10fe98001e4090000081fb001e80fb009e00900029
:10fea8007c00400001004000904078005e189000ff
:10feb80000004100014878001e4090000040e80022
:10fec800104798001e4fe80070c0b3009e4f100006
:10fed80008003e001e80fb009e0090007c00400051
:10fee800010040009040780000c2b30080cf50006d
:10fef800e7ff3a001e009000c060900000c2b30007
:10ff080080cf50003a0032001e4090008080fb00f5
:10ff18005e18900080804000e0c2b30080487800fe
:10ff28001e4090000040e8001047980080c0b300d1
:10ff3800004f78000e0037001e4090000081fb0043
:10ff48001e80fb009e0090007c00400001004000e5
:10ff5800904078005e189000000041000148780049
:10ff68001e4090000040e800104798001e4fe8002f
:10ff7800a0c0b3009e4f10001d003e001e80fb0075
:10ff88009e0090007c0040000100400090407800f6
:10ff980000c2b30080cf5000e7ff3a0014003700da
:10ffa8000040eb00104798000e0037001e409000fc
:10ffb8000081fb001e4090000080fb009e00900026
:10ffc8007c00400001004000904078005e189000de
:10ffd80000004100014878001e4090000040e80001
:10ffe800104798001e409000ea4f5000efff36007f
:10fff8001e00900060109000804078005e1890000d
:020000040001f9
:10000800514898001e009000a00890001008900029
:100018005e19900070019800010998001e00900078
:100028005008900001002000c001dd0002002000ff
:100038001e009000400890000100200002004000cf
:10004800838048005e1990001009980021099800e3
:100058001e009000c01090005e18900031089800b3
:100068000000eb00601f98006e1890000080fa00f6
:10007800000006001600fa00881f780041c2bf0081
:1000880001c8b300014060000004e0002b003a0002
:10009800f403070040c0b300004f7800c442a80032
:1000a80000c0eb00c5030700c442a9001e4fe900c9
:1000b8000e84e800680047006011b8008040eb003b
:1000c80054000700680047001001be00028cbe0003
:1000d800a0019000230498000e80e80010407800ea
:1000e800e14f5000020032001e04e000ebff3a002e
:1000f8000e80e80010407800e14f50000400320004
:10010800a70307000000eb00200f98002900370024
:10011800fb030700aed4bf000004e00003003a0070
:1001280011002000210f9800220037009c030700cf
:100138000001eb00220f98001e0037000e84e80033
:100148006e0047006011b80061c0b30031000700bd
:100158006e0047001001be00028cbe00a001900096
:10016800230498000e80e80090007800c0c02e009c
:10017800008060000000e0000c00320088030700e7
:10018800df030700aed4bf000004e00003003a001c
:1001980010002000200f9800060037008003070099
:1001a8008000eb00210f98000200370012002000a9
:1001b800220f98002e0890004f0478000080fa0063
:1001c800000006000000fa0030a680000080fa0057
:1001d800000006000000fa0010a6800021a680009a
:1001e8000080fa00000006000000fa00c442a800df
:1001f800c042a9000080fa00000006000000fa00d2
:1002080067030700c442a8000000eb000080fa0062
:10021800000006001c00fa00500f98004157980093
:10022800320f9800430f9800c442a9004e50900026
:100238000080fb006600b90080007800004b2900b0
:1002480000804000904078006c00470061409800b2
:100258006c0047003e099000ce09900012009800fb
:10026800230098004e5090000080fb006600b90003
:1002780080007800004b29000080400090409000ea
:100288006c004700014878006c014700b2009000fc
:100298000004200000807000300198006c004700c6
:1002a80060409000450307006c00470050409000f4
:1002b800420307006c004700404090003f030700de
:1002c8006c004700304090003c0307006c0047007a
:1002d80020409000390307006c0047001040780068
:1002e800360307004e509000e54f500001003a00d9
:1002f8004003070040012000200798003d03070045
:100308008040780066004700014878002e00900081
:100318000000e900200798006600470010407800b8
:10032800e14f400003003a002e0090000000e0007a
:10033800f2ff3a004e5090000080fb006600b900c2
:100348008080e800004b2900008040001000780001
:10035800e20f500009003a0066004700904078001c
:10036800660047001140980022030700804078008b
:100378006600470001487800390037004e50900069
:100388000080fb006600b9008080e800004b29006f
:100398000080400010007800e10f500017003a007c
:1003a80000002000a1002000008fbe0011030700fc
:1003b8008040780066004700014878000080eb0024
:1003c8008080eb001e0f40005e97480066004700e3
:1003d800104078000004e00004003a001e00be004f
:1003e800e00f5000e08f5800f0ff3a00e6004700a9
:1003f8000040eb0080487800190037004e5090000c
:100408000080fb006600b9008080e800004b2900ee
:100418000080400010007800e40f500010003a00ff
:10042800f4020700804078006600470051409800b9
:10043800f0020700804078006600470041409800bd
:10044800ec020700804078006600470031409800c1
:10045800e8020700804078006600470021409800c5
:1004680000c0eb00d50207004e5090000080fb0052
:100478006600b900e4004000004b290000804000fd
:10048800104078000004e00001003a00c442a800cf
:10049800660047001001be00de0890008288be009a
:1004a800a00190005e099000230198005e0890006a
:1004b8000080fa00000006001800fa00000f9800fb
:1004c800110f9800220f98008e80e800002020006d
:1004d800800878000e81e80000202000010020003c
:1004e80010019800210198000e80e800ae089000e5
:1004f800310098000e80e8000e0990009e099000d7
:1005080042009800530098008e80e80010c0b300a5
:10051800c04898000e80e8000e000700004f7800e1
:100528001e04e00003003a0013002000330f980077
:100538000500370000c0eb009e4f1000f5ff3a00a1
:100548008000eb00310f98003e0890000080fa0010
:10055800000006002a00fa00881f7800600798004b
:100568006e009000404890000080fb004017980003
:100578004e109000e20f500085003200ce1090001f
:10058800e28f500007003c004e1190000200e0008e
:100598000c003200ce119000e18f51000c003200a7
:1005a800e80037004e109000e30f50005000320072
:1005b800e00f2000ce109000808f5000d200320053
:1005c800e00037000001eb0032179800e200370026
:1005d80000202000a0a488006e009000434b21005a
:1005e80006000900b0197800e000b100c8d4bf00c7
:1005f8000004e00008003a00e0a58000f1a58000b2
:100608004909dd00c700de00810071004900dd00f6
:10061800e0a58800f1a58800b2a58000c3a58000e8
:100628000020200001002000800f5100818f590018
:100638000e003e0010c0b3008ef4b700e2a58000a3
:10064800f3a58000660447006e00470081c0b30030
:10065800f0fe07006e0047001001be00028cbe00cd
:10066800a0019000230498000d0037000040eb0023
:100678008ef4b700e2a58000f3a580006604470069
:100688007400470091c0b300e2fe07007400470001
:100698001001be00028cbe00a00190002304980047
:1006a80066004700104078000004e00006003200b1
:1006b800ee009000e0cfb300c04898001000200082
:1006c80030179800a40037000000200041002000e7
:1006d80080a4880091a48800ee00900030c0b30088
:1006e800c048980011002000311798009a00370080
:1006f80080a4800091a48000e00f5000e08f580093
:100708001d00320080a4800091a480006100500088
:10071800e080580080a4880091a488003502070072
:10072800404798004e409000e14f40000f003200d3
:100738004e409000e24f400006003a00ee00900064
:1007480020c0b300c048980022002000321798004b
:1007580081003700ee009000e0cfb300c048980059
:1007680013002000331798007b003700100020008a
:100778003017980078003700ee009000e0cfb30003
:10078800c048980011002000311798007200370007
:10079800b0a58000c1a58000e00f5000e08f580090
:1007a800490032006e00900010007800a0a5880073
:1007b8006e00900030009000d0a58800b2a580009f
:1007c800c3a58000a0a58000010020000000510002
:1007d80081805900b0a58800c1a58800a1a4800027
:1007e800a0a5800000805000a0a48800d2a58000a9
:1007f80012079800a3a58000030f78001e00e000f0
:100808001c0032001e0090000000e900100798004c
:10081800f00f2000401288001e0090000000e80041
:10082800100798001e0fe9001e00e00009003200c2
:1008380040c2bf00614060000004e000fcff3200dd
:1008480040128000804078001e0090000148780027
:10085800efff370040c2bf00614060000004e000c5
:10086800fcff320040128000804078001e0090009b
:1008780001487800a0a480000000e0000f003a00c2
:10088800dc010700db010700b0a58000c1a58000de
:10089800e00f5000e08f580003003200ee00900097
:1008a80030c0b300c048980000202000a0a48800f1
:1008b8001000200030179800270037002100200082
:1008c80031179800240037008ed4bf000004e000e0
:1008d80004003a007a0047006011b80051c0b30024
:1008e8004cfe0700c442a80000c0eb00b30107009b
:1008f800ee0090000040eb00c04898000001eb00bb
:100908003217980014003700ee00900000c0eb008a
:10091800c048980066044700000220000e0040000e
:100928006011b80051c0b3003afe07000002200071
:100938000e0040001001be00028cbe00a001900015
:1009480023049800c442a80000c0eb009b010700e4
:10095800f00f2000301798003e1090004f047800e8
:100968000080fa00000006002c00fa00881f7800ba
:10097800700798007e009000404890000080fb00bf
:10098800501798005e109000e20f50007800320077
:10099800de109000e28f500007003c005e119000ce
:1009a8000200e0000f003200de119000e18f5100dc
:1009b8000f003200280137005e109000e40f50004d
:1009c800fe003200de109000e48f5000bb003500be
:1009d800e00f20005e119000800f510013013200db
:1009e8001d0137008001eb00431798001c013700f8
:1009f80000202000e0a488007e009000414b2100e8
:100a080006000900b0187800e000b100b2a5800027
:100a1800c3a580000020200001002000800f5100a5
:100a2800818f590003003e00a0c0b30096f4b700c0
:100a380028003700b0c0b30096f4b700b0a5800016
:100a4800c1a580004709dd004900de0000007100f3
:100a5800c908de0020079800310798002e00900092
:100a6800be009000e00f5000e08f580006003a00ea
:100a78002e009000be00900061004000e080480019
:100a88002007980031079800680447007000470065
:100a98006011b800f1c0b300defd07007000470028
:100aa8001001be00028cbe00a00190002304980033
:100ab80068004700104078000004e00005003a0094
:100ac800760047002e019000be01900031c1b300ae
:100ad800d0fd0700c8d4bf000004e00008003a00b9
:100ae800e0a58000f1a580004909dd00c700de000f
:100af800810071004900dd00e0a58800f1a58800ab
:100b0800e2a58000f3a580006149210091407800aa
:100b1800680447007c004700befd07007c004700d2
:100b28001001be00028cbe00a001900023049800b2
:100b380068004700104078000004e000060032001a
:100b4800fe00900000c0eb00c0489800f00f2000a5
:100b580040179800c2003700fe00900020c0b30084
:100b6800c04898002100200041179800bc003700b9
:100b7800e1a4800000202000808f500008003a0087
:100b880096d4bf00eb4f500003003a00c0cfb3002b
:100b98000a01070002003700e0cfb3000701070091
:100ba8007e00900010007800a0a588007e009000cc
:100bb80030009000d0a58800b2a58000c3a58000b1
:100bc800a0a580000100200000005100818059008c
:100bd800b0a58800c1a58800e1a48000a0a5800078
:100be80000805000e0a48800d2a580001207980079
:100bf800a3a58000030f78001e0090001040780025
:100c08000080fb00401288001e0090000000e800f1
:100c1800100798001e0fe90040c2bf006140600045
:100c28000004e000fcff3200401280009ef4b70090
:100c38001e00e000f0ff3a00e0a480000000e000a1
:100c48001b003a0000202000e0a4880000c0eb0050
:100c5800da00070000c0eb00d8000700e500070035
:100c68000080fb007f006000e50f500006003200a6
:100c7800fe009000e0cfb300c0489800300020008c
:100c88004017980076003700fe00900030c0b3008f
:100c9800c048980000002000a1002000c0a48800df
:100ca800d1a4880031002000411798006c0037005b
:100cb800220020004217980069003700c0a4800075
:100cc800d1a48000e00f5000e08f580035003200ba
:100cd800c0a48000d1a4800061005000e0805800ca
:100ce800c0a48800d1a4880000c0eb00b3000700ae
:100cf800c00007009ef4b7009ed4bf000004e000c7
:100d080025003200b0a58000c1a58000e00f50008a
:100d1800e08f58001a003a0000002000a1002000cf
:100d2800c0a48800d1a4880096d4bf00eb4f50001f
:100d38000a003a00d0cfb300a000070000c0eb00c3
:100d48009e000700fe00900040c0b300c048980015
:100d5800330020004317980041003700c442a80020
:100d680000c0eb0095000700fe0090000040eb007b
:100d7800c04898000000eb00401798003800370082
:100d8800fe00900020c0b300c04898002100200059
:100d980041179800320037003200200042179800af
:100da8002f003700fe009000e0cfb300c048980045
:100db800330020004317980029003700c0a48000a2
:100dc800d1a48000e00f5000e08f580017003200d7
:100dd800c0a48000d1a4800061005000e0805800c9
:100de800c0a48800d1a48800820007009ef4b70040
:100df8009ed4bf000004e00009003200c442a800ed
:100e080000c0eb006d000700fe0090000040eb0002
:100e1800c04898000000eb00401798001000370009
:100e280031002000411798000d00370020022000f3
:100e38000e0040006011b80051c0b300f5fc070077
:100e4800c442a80000c0eb005c000700fe00900050
:100e580000c0eb00c0489800f20f2000421798002d
:100e68004e1090004f0478000080fa000000060041
:100e78000c00fa0010079800210798003207980024
:100e8800034f98000e4890000004e00008003a0064
:100e98001e009000ae009000e00f5000e08f580058
:100ea80003003a000000eb00500798001b003700d1
:100eb8000020200000a5880000202000010020005c
:100ec80010a5880021a58800be00900031a58800e3
:100ed8001e009000ae00900040a5880051a5880033
:100ee80010c0b300acf4b700004a21009efe070012
:100ef800004f78001e04e00003003a0011002000b3
:100f0800510798000500370000c0eb009e4f100005
:100f1800f5ff3a008000eb00510798005e00900052
:100f28000080fa00000006000000fa000000eb0054
:100f38000080fa00000006000800fa0060479800e8
:100f48006e409000404798000c003700b07c2000ad
:100f580001002000008fbe000080eb008080eb00c5
:100f68001e0f40005e9748000080eb008080eb0079
:100f7800be0f1000ae8f1800f7ff3a004e409000e9
:100f88000040e900404798004e409000e14f400083
:100f9800eeff3a00000000000080fa0000000600a2
:100fa8000000fa0000128000f1ff27000100600035
:100fb800001288000080fa00000006000400fa0011
:100fc800204798002e4090000080fb0040128800c7
:100fd80040c2bf00614060000004e000fcff320036
:100fe80040128000004f78000000eb000080fa00fb
:100ff800000006000000fa00f00f200040128800f0
:1010080040c2bf00614060000004e000fcff320005
:10101800401280000080fb000080fa0000000600fb
:101028000200fa00000f78000000eb0000128800b0
:101038000000eb0010128800101280001e007000e3
:101048001012880042c2a8004302a900c882a90061
:10105800c942a900c8a2a80041e2a8000080fa007d
:10106800000006000400fa00300020001007980075
:1010780000052000000f78001e00e00012003a0072
:10108800f0032000e6ff07001b0037008000200067
:101098009e0f10000e0036001e0090000000e900b0
:1010a800100798009e007800638060000000e00050
:1010b800020032001e007800640f40001e00780015
:1010c8004200de00000f78001e00e000efff3a004b
:1010d8001e0fe9001e0078004200dd000080ea00d3
:1010e800fc0060001e00900080807000000220005c
:1010f80000807000caff07000080fa0000000600a8
:101108007a00fa00889fbe000040eb00aef4b700fa
:101118000040eb00aff4b7006000b80010a68800ec
:1011280021a688000040eb00c8f4b700c442a8001c
:10113800ccff0700e0c1b3007fff0700c442a8004e
:101148000000eb00400798000500370000c0eb00e6
:101158009aff07004e0090000000e8004007980042
:101168004e009000e90f5000f8ff360040062000be
:1011780040079800c442a80000c0eb008fff07009a
:10118800c442a9004e0090000000e9004007980002
:101198006a044700400220000e0040006011b800b9
:1011a8008040eb001bfc0700400220000e004000be
:1011b8001001be00028cbe00a0019000230498001c
:1011c8006a00470010407800e14f500003003200e9
:1011d8004e0090000000e000e6ff3a004e0090004c
:1011e8000000e00025003a00c442a80000c0eb005f
:1011f80072ff0700c442a9006a044700a002200049
:101208000e0040006011b80051c0b30001fc070097
:10121800a00220000e0040001002be00048cbe0098
:10122800a0029000250498006a04470000032000eb
:101238000e0040006011b8008040eb00f5fb07008d
:10124800000320000e0040001001be00028cbe000a
:10125800a0019000230498006a004700104078001d
:10126800e14f50000500320020c0b300aef4b700d3
:10127800e44a210064379800ac0137006a0447004b
:10128800600320000e004000a21a20000300200086
:1012980021c0b300dffb0700600320000e00400000
:1012a8001001be00028cbe00a0019000230498002b
:1012b8006a004700a000900010009000f2ff200094
:1012c8000300200000027800810278000200780004
:1012d8008300780000016200018062006102b800aa
:1012e80074379800053f98007e3090008e38900043
:1012f800c000dd000000200070379800013f980012
:101308007e3090008e3890006112b80074379800d3
:10131800053f98007e3190008e39900002007000e1
:1013280083807000a21a200003002000820f500062
:10133800838f58004f003a006a0047001000780079
:10134800640060000000e0004a003a006a044700b8
:10135800c00320000e0040006011b80001c1b300b6
:10136800acfb0700c00320000e0040001002be00c6
:10137800048cbe00a0029000250498000000eb0039
:101388004007980019003700200420000e00400094
:101398006011b800f1c0b3009efb07006a04470063
:1013a800800420000e0040000200200003002400fa
:1013b80021c1b30097fb0700800420000e00400005
:1013c8001001be00028cbe00a0019000230498000a
:1013d8006a004700104078000004e0000600320070
:1013e8004e0090000000e800400798004e00900072
:1013f800e10f4000e4ff3a004e009000e10f40008a
:1014080002003a0020c0b300aef4b7006a044700f7
:10141800e00420000e0040006011b80001c1b300d4
:101428007cfb0700e00420000e0040001002be0014
:10143800048cbe00a0029000250498006a004700b2
:10144800a0009000100090004e08de00010020006f
:10145800610060000004e0000300320010c0b30027
:10146800c8f4b700270037000040eb00c8f4b70005
:1014780024003700c442a80010c0b300aefe070025
:10148800c442a9000040eb00c8f4b700f0ff2100f7
:10149800400798006a044700400520000e004000fd
:1014a8006011b80011c0b3005afb070040052000c6
:1014b8000e0040001001be00028cbe00a00190008a
:1014c800230498004e0090000000e90040079800af
:1014d8006a004700104078000004e0000300320072
:1014e8004e0090000000e000eaff3a004e00900035
:1014f8000000e00003003a0020c0b300aef4b700db
:10150800c442a800c442a800e0032000c4fe0700ab
:10151800c442a90040012000400798006a0447001f
:10152800a00520000e0040006011b80031c0b300d3
:1015380038fb0700a00520000e0040001002be0086
:10154800048cbe00a0029000250498004e00900074
:101558000000e900400798006a0047001040780042
:101568000004e000030032004e0090000000e0009c
:10157800eaff3a004e0090000000e00006003a0042
:1015880020c0b300aef4b700c442a800e04a21006e
:1015980060379800e50037000040eb00604798008e
:1015a8000040eb0070479800160037006e4090002e
:1015b8000084fb008ffe0700804078007000470021
:1015c80000004400014878006e4090000040e800a8
:1015d800604798007e4090000004e00006003a0052
:1015e8007000470010407800e24f400002003a00c7
:1015f8000040eb00604798007e4090000040e80003
:10160800704798007e409000f34f5000e7ff360087
:101618000020200030a688000020200080a5880037
:10162800af14a80070004700104078008080fb00cd
:10163800000c2000008060000000e0003a0032004a
:1016480070004700704090000080fb0001002000ff
:10165800f2032000030020000002780081027800d5
:1016680002007800830078000001620001806200b7
:101678006102b800143f9800253f98001e3890007a
:10168800ae389000c000dd0000002000103f980038
:10169800213f98001e389000ae3890006112b800c3
:1016a800143f9800253f98001e399000ae399000ed
:1016b8000200700083807000c001dd00020020007d
:1016c80070004700004890000080fb004800dd00e3
:1016d8000100200000017100818171007000470045
:1016e800104890000080fb000100200000007100fd
:1016f8008180710010079800210798001e00900053
:10170800ae009000ca09dd00c600de0081807100cd
:101718004a00dd00f03fb0000180b00010a688004c
:1017280021a68800730037007000470060409000d1
:101738000080fb0001002000c001dd000200200045
:1017480070004700704090000080fb004800dd00fa
:1017580001002000000171008181710070004700c4
:10176800004890000080fb0001002000000071008c
:101778008180710010079800210798001e009000d2
:10178800ae00900002fc2f00330020000002780019
:10179800810278000200780083007800000162006e
:1017a800018062006102b800343f9800453f98000c
:1017b8003e389000ce389000c000dd0000002000c8
:1017c800303f9800413f98003e389000ce38900056
:1017d8006112b800343f9800453f98003e399000a8
:1017e800ce399000020070008380700010079800c6
:1017f800210798001e009000ae009000ca09dd0085
:101808004600de0000807100c608de001007980060
:10181800210798007000470010489000634060005e
:1018280000404000004178007000470020489000c8
:101838008080fb0000082000008060004780de00f8
:101848000040710010479800700047005040900019
:101858006f4f60001e80fb00e90050001000200060
:101868000100dd00004f78001e009000ae009000df
:1018780061034000e08348001e4090000080fb00a8
:101888008080e800100020000100dd006102b8003f
:101898008600780004007800000cb80005b0b90094
:1018a800090178000001410007a0b90000014100ca
:1018b800820478001e4078000083fb0007002000a7
:1018c8008800780006007800000ab80007c0b90050
:1018d800050178000001410009b0b900000141008c
:1018e8008202780061005200e0805a0010a6880049
:1018f80021a68800000620000e0040006011b800f4
:1019080011c1b30043fa070030a680006101b80096
:10191800600620000e00400071c0b3003dfa0700c9
:10192800c442a800e44a2100643798006e30900051
:101938004f04be000080fa00000006000000fa0014
:10194800517420009140780080cfb30000c060003f
:1019580045e7b70044c7bf00f043b20001c4b30075
:101968000140700044e7b7004174200091407800be
:1019780000ceb30000c0600044e7b700313a8000f1
:1019880000e02f00008060000102200001007000cc
:10199800303a88000080eb006019880000202000a1
:1019a8007016880080122100401688000000eb00a5
:1019b80000168800416a20009140780000ceb300ec
:1019c80000c060000034a000a4e6b700916c2000bd
:1019d8009140780000ceb30000c060003040b300f2
:1019e800c9e6b70050100700113a8000f00b20003c
:1019f800008160006104200070052000237420002d
:101a0800814978008049780082497800c16a2000bd
:101a18009140780000ceb30000c06000c040b30021
:101a2800ace6b700216c20009140780000ceb300ee
:101a380000c06000a040b300c2e6b700d16c20002f
:101a48009140780000ceb30000c06000b040b30001
:101a5800cde6b700816a20009140780000ceb3003f
:101a680000c060005040b300a8e6b700a16c200099
:101a78009140780000ceb30000c060007040b30011
:101a8800cae6b700416c20009140780000ceb30050
:101a980000c060000034a000c4e6b700113a80001e
:101aa80000042000008170006104200070052000ff
:101ab80023742000814978008049780082497800a1
:101ac8000080fa00000006007200fa00881f780003
:101ad80080ca28004d100700280320000e04440087
:101ae800200520000e004000760f0700200520008a
:101af8000e0040000f000900301c78000802b100f9
:101b08000002b100200320000e00400074004000d5
:101b1800801f780000cc2800801f78000e00780015
:101b280007bc0700e48757000e007800371007004d
:101b380014c0b30003fe2f000e01780041c1b300aa
